:100000000C94CB010C94E8010C94E8010C94E801E9
:100010000C94E8010C94E8010C94E8010C94F807A6
:100020000C94E8010C94E8010C94E8010C94E801AC
:100030000C94E8010C94E8010C94E8010C94E8019C
:100040000C94E8010C94E8010C94E8010C94E8018C
:100050000C94E8010C94E8010C94E8010C94E8017C
:100060000C94E8010C94E8010C94E8010C94E8016C
:10007000084AD73B3BCE016E84BCBFFDC12F3D6C0F
:1000800074319ABD56833DDA3D00C77F11BED9E475
:10009000BB4C3E916BAAAABE000000803F0000004E
:1000A00000000000000000065F5F0600000000077F
:1000B000070007070000147F7F147F7F1400242EA1
:1000C0006B6B3A120000466630180C666200307A9C
:1000D0004F5D377A48000407030000000000001C51
:1000E0003E63410000000041633E1C000000082AFE
:1000F0003E1C1C3E2A0808083E3E0808000000A0DE
:10010000E06000000000080808080808000000007F
:100110006060000000006030180C060301003E7FA4
:10012000594D7F3E000042427F7F40400000627395
:1001300059496F660000226349497F360000181C48
:1001400016137F7F1000276745457D3900003C7EF0
:100150004B4979300000036371190F070000367FA7
:1001600049497F360000064F49693F1E00000000E4
:100170006C6C0000000000A0EC6C00000000081C8B
:1001800036634100000014141414141400000041DC
:1001900063361C080000020351590F0600003E7F21
:1001A000415D5D1F1E007C7E13137E7C0000417F3D
:1001B0007F49497F36001C3E634141632200417FF5
:1001C0007F41637F1C00417F7F495D416300417F28
:1001D0007F491D0103001C3E6341517372007F7F04
:1001E00008087F7F000000417F7F410000003070E1
:1001F00040417F3F0100417F7F081C776300417FC2
:100200007F41406070007F7F060C067F7F007F7F0C
:10021000060C187F7F001C3E6341633E1C00417F3B
:100220007F49090F06001E3F21717F5E0000417F5C
:100230007F19396F460026674D597B320000034114
:100240007F7F410300007F7F40407F7F00001F3F92
:1002500060603F1F00007F7F3018307F7F00637732
:100260001C081C776300074F78784F0700006773FE
:10027000594D47637100007F7F4141000000010339
:10028000060C183060000041417F7F000000080C20
:100290000603060C0800808080808080808000003B
:1002A000030704000000207454543C784000413F90
:1002B0007F44447C3800387C44446C28000030780B
:1002C00048493F7F4000387C54545C180000487E09
:1002D0007F490302000098BCA4A4F87C0400417F7D
:1002E0007F08047C780000447D7D4000000040C40D
:1002F00084FD7D000000417F7F10386C4400004188
:100300007F7F400000007C7C0C180C7C78007C7C9B
:1003100004047C780000387C44447C38000084FC71
:10032000F8A4243C1800183C24A4F8FC8400447C65
:1003300078441C180000485C5454742400000004E5
:100340003E7F442400003C7C40403C7C40001C3C00
:1003500060603C1C00003C7C6030607C3C00446C75
:100360003810386C44009CBCA0A0FC7C00004C649D
:10037000745C4C64000008083E77414100000000B6
:100380000077770000004141773E08080000020333
:1003900001030203010011241FBECFEFD4E0DEBF32
:1003A000CDBF12E0A0E0B1E0E6E9F8E202C00590BE
:1003B0000D92A23DB107D9F722E0A2EDB2E001C053
:1003C0001D92AC3EB207E1F70E94EA010C94491479
:1003D0000C94000080E895E20E9414020E94400202
:1003E0000E94D7020E94F3060E94DE0778940E94C2
:1003F00032058EE091E09F938F930E94FC0F0E9444
:1004000005050E9414090F900F90FFCF5D9BFECF52
:100410008CB980E090E008955F9B03C08CB190E0C0
:10042000089580E090E0089582959295907F9827B6
:10043000807F98279C0140E050E060E070E08BE412
:1004400090E00E945E0CCA01B901615071098109F6
:1004500091090E94F90D2AE939E949E15EE30E9418
:10046000B40E0E94C10D70BD69B988E18AB98EE8E9
:1004700080BD6CE072E086E092E00E94B10F0895CA
:1004800080E885BF80E280BF0895CF92DF92EF922F
:10049000FF920F931F93CF93DF9385E191E09F939A
:1004A0008F930E94FC0F0E94710F7C010E94760FB7
:1004B0000F900F90C12CD12CC0E0D0E00DE211E0E4
:1004C0000E94710FF601F85E808320812817A1F049
:1004D00099279F938F931F922F93DF92CF921F9311
:1004E0000F930E94FC0F21968DB79EB708960FB60A
:1004F000F8949EBF0FBE8DBF9FEFC91AD90AC114D1
:1005000088E0D806E9F6C7010E94760F00E010E007
:10051000E12CF12C0F2EF7E6CF2EF1E0DF2EF02D9F
:100520000E94710FF801F85E20812817B1F0992719
:100530009F938F931F922F931F930F93DF92CF92CE
:100540000E94FC0F9FEFE91AF90A8DB79EB7089633
:100550000FB6F8949EBF0FBE8DBF0F5F1F4F0115E2
:1005600098E01907E9F6FF92EF92DF93CF9385EABF
:1005700091E09F938F930E94FC0F0F900F900F902C
:100580000F900F900F90DF91CF911F910F91FF90DF
:10059000EF90DF90CF900895E0E0F4E1808387E86A
:1005A00093E10197F1F700C000008081089584E095
:1005B00090E00E94CC0290E09093E1028093E002F0
:1005C00085E090E00E94CC0290E09093DF0280935F
:1005D000DE020895CF92DF92EF92FF92CF93DF93E6
:1005E00084E090E00E94CC02C091E002D091E10250
:1005F000682F70E080E090E00E94F70D6B017C01B5
:10060000BE01DD0F880B990B0E94F90D9B01AC0117
:10061000C701B6010E94B30C0E94C10D77237CF084
:10062000072E000C880B990B0E94F90D24EA30E785
:100630004DE35FE30E944F0D0E94C10D0EC0072ED7
:10064000000C880B990B0E94F90D23E333E343EB75
:100650005FE30E944F0D0E94C10DCB0104960997E4
:1006600010F460E070E06C398FEF780714F46CE9F7
:100670007FEFCB016536710514F084E690E0DF91E1
:10068000CF91FF90EF90DF90CF900895CF92DF92BF
:10069000EF92FF92CF93DF9385E090E00E94CC022F
:1006A000C091DE02D091DF02682F70E080E090E020
:1006B0000E94F70D6B017C01BE01DD0F880B990BC9
:1006C0000E94F90D9B01AC01C701B6010E94B30C59
:1006D0000E94C10D77237CF0072E000C880B990B2C
:1006E0000E94F90D28EB3EE145E45FE30E944F0DC7
:1006F0000E94C10D0EC0072E000C880B990B0E94A2
:10070000F90D23E333E343EB5FE30E944F0D0E94B7
:10071000C10DCB010496099710F460E070E06C39CC
:100720008FEF780714F46CE97FEFCB016536710524
:1007300014F084E690E0DF91CF91FF90EF90DF908E
:10074000CF900895009771F08130910571F082305B
:10075000910571F08330910571F0049779F08BE089
:1007600092E0089581E092E0089583E092E0089598
:1007700085E092E0089587E092E0089589E092E0B4
:100780000895CF92DF92EF92FF92CF93DF930E9472
:10079000EA02EC010E944603BC01990F880B990BF9
:1007A0000E94F90D6B017C01BE010D2E000C880B1F
:1007B000990B0E94F90D9B01AC01C701B6010E9483
:1007C0004F0D0E94200D20E030E044E353E40E94EE
:1007D000B40E2BED3FE049E450E40E944F0D0E941F
:1007E000C10D9B01DD2314F42C543F4F332314F42B
:1007F00028593E4FC901DF91CF91FF90EF90DF90D4
:10080000CF900895CF93DF930E94EA02EC010E94FB
:1008100046039E01215B3F4F2F39310530F49C0187
:10082000215B3F4F2F393105F8F0BC01CE010E940A
:10083000C1039C012B5331402E323105C0F08E3262
:100840009105C0F0235F3E4F29353105B0F02955A1
:1008500031092B353105A0F0825E9109893591056A
:1008600090F080E090E011C080E090E00EC081E068
:1008700090E00BC081E090E008C083E090E005C00C
:1008800082E090E002C084E090E0DF91CF91089593
:1008900086E090E00E94CC02682F70E080E090E05B
:1008A0000E94F70D20E030E048EC52E40E94B40EC4
:1008B00020E030E04FE753E40E944F0D0E94C10D4D
:1008C000CB01089587E090E00E94CC02682F70E091
:1008D00080E090E00E94F70D20E030E048EC52E428
:1008E0000E94B40E20E030E04FE753E40E944F0D29
:1008F0000E94C10DCB01089586B3817090E00895E8
:1009000086B38695817090E0089586B38695869526
:1009100091E08927817090E00895E0910201F091C3
:100920000301808308952091000130910101820F1D
:10093000931FFC016083089590E0FC01EE0FFF1F00
:10094000EE0FFF1FEE0FFF1FE256F040880F991FBA
:10095000880F991F880F991F8A559040A091000118
:10096000B091010124912C933196E817F907B1F762
:100970000895EF92FF920F931F93CF93DF93EC01B3
:1009800088818823D9F1219602ED12E00F2EF1E241
:10099000EF2EF02D0F2EFFE7FF2EF02D8A3049F5B8
:1009A0008091D2029091D3028630910529F4109261
:1009B000D3021092D20205C001969093D302809385
:1009C000D202E0910201F0910301D8018C9180558F
:1009D0008083E0910201F0910301E082E091020145
:1009E000F09103011082E0910201F0910301F08285
:1009F00002C00E949C0489918111D0CFDF91CF91D8
:100A00001F910F91FF90EF90089528E030E050E89B
:100A100040E00AC0E0910001F091010110820197CD
:100A2000C9F72150310919F0852F942FF3CF08957C
:100A300030EB50E040E02FEFE0910201F091030134
:100A40003083852F942FE0910001F0910101E80F90
:100A5000F91F2083019680389105A9F73F5F383B45
:100A600059F70895E0910201F09103018EEA808325
:100A7000E0910201F091030181EA8083E09102019B
:100A8000F09103018AED8083E0910201F09103016E
:100A900082E18083E0910201F091030188EC808380
:100AA000E0910201F091030188EA8083E091020164
:100AB000F09103018FE38083E0910201F091030143
:100AC00085ED8083E0910201F091030180E880834D
:100AD000E0910201F091030181E88083E09102013D
:100AE000F091030180E58083E0910201F091030120
:100AF00089ED8083E0910201F091030181E280831E
:100B0000E0910201F091030190E29083E0910201F3
:100B1000F09103011082E0910201F09103018083C2
:100B2000E0910201F09103011082E0910201F09145
:100B300003018FE78083E0910201F091030182E2DB
:100B40008083E0910201F09103011082E0910201A3
:100B5000F091030187E08083E0910201F0910301AD
:100B60008BED8083E0910201F091030180E38083AB
:100B7000E0910201F09103018DEA8083E09102018E
:100B8000F09103011082E0910201F091030184EAE7
:100B90008083E0910201F091030186EA8083E09175
:100BA0000201F09103018FEA80830895009721F1FB
:100BB0009C0127703327232B69F4BC01992314F47B
:100BC000695F7F4FCB01959587959595879595950D
:100BD00087950895BC01072E000C880B990B0E9485
:100BE000F90D20E030E040E05EE30E94B40E0E9488
:100BF000C10DCB010196089581E090E00895CF9258
:100C0000DF92EF92FF920F931F93CF93DF938C01AC
:100C10007B01813891050CF055C0613471050CF0F1
:100C200051C0CB010E94D605D82EC92EC7018770AE
:100C30009078992324F40197886F9F6F01960E9402
:100C4000D605C2E0D0E0082E02C0CC0FDD1F0A940A
:100C5000E2F7E0910201F09103012FEA2D0D2083CC
:100C60009F938F93CF92DF92FF92EF921F930F93F8
:100C700081E192E09F938F930E94FC0FC80101973E
:100C80002DB73EB7265F3F4F0FB6F8943EBF0FBE5D
:100C90002DBF1816190674F420E030E0E091000131
:100CA000F0910101E20FF31F10822F5F3F4F2817D1
:100CB0003907A4F32091000130910101F901E80FF7
:100CC000F91FC083DF91CF911F910F91FF90EF909B
:100CD000DF90CF90089580EB87BB81E18DB96E9A4C
:100CE00008958FB9779BFECF08958FEF0E9471060C
:100CF0008FB10895C4980895C49A0895CF93C82FCA
:100D00000E947A0683E00E9471068C2F0E94710671
:100D10000E947506C82F0E947C068C2FCF910895E3
:100D2000CF93DF93D82FC62F0E947A0682E00E94CD
:100D300071068D2F0E9471068C2F0E9471060E94F1
:100D40007C06DF91CF910895CF93C62F0E947E0637
:100D500090E021E030E002C0220F331FCA95E2F795
:100D600082239323CF910895CF93C82F0E947A06B0
:100D70008C2F80680E9471060E947C06CF91089596
:100D8000CF930E947A0680EA0E9471060E9475063F
:100D9000C82F80E00E9471060E947C068C2FCF91A4
:100DA00008950E947A0680EC0E9471060E947C06DB
:100DB00008951F93CF93DF93D82F162FC42F0E942F
:100DC0007A0685E00E947106812F0E9471068D2FA0
:100DD0000E9471068C2F0E9471060E947C06DF9192
:100DE000CF911F9108950E946B060E94D10640E4A6
:100DF0006FE080EE0E94D90640E660E680E60E9441
:100E0000D90641E06BE281E00E94D9060895CF92B5
:100E1000DF92EF92FF920F931F93CF93DF93CDB7A3
:100E2000DEB72B970FB6F894DEBF0FBECDBFE982B9
:100E3000FA820B831C832D833E834F8358876987F7
:100E40007A878B87E980FA80B701769567957695E2
:100E500067957695679581E30E9490064E2D4295A1
:100E6000440F407E62E380EE0E94D906402F65E386
:100E70008FE00E94D9060023A9F07E0124E0E20E53
:100E8000F11CCE01800F911DFC0134966F0116E319
:100E9000F70161917F01812F0E9490061F5FEC1482
:100EA000FD04B1F781E00E94B4062B960FB6F894CA
:100EB000DEBF0FBECDBFDF91CF911F910F91FF908D
:100EC000EF90DF90CF90089563E080E30E94A40646
:100ED00008958F929F92AF92BF92CF92DF92EF923E
:100EE000FF920F931F93CF93DF93CDB7DEB72B976E
:100EF0000FB6F894DEBF0FBECDBF4C0160E08CE2B0
:100F00000E94A406892B99F181E60E947E06A82EF4
:100F100082E60E947E06829586958770B12CAA0C87
:100F2000BB1CAA0CBB1CAA0CBB1CA82A85E60E94F1
:100F30007E06082F0F70A9F07E0184E0E80EF11CF8
:100F40009E01200F311DF90134966F0116E6812FA5
:100F50000E947E06F70181937F011F5FEC15FD055E
:100F6000B1F740E06CE283E00E94D90608C081E35B
:100F700092E09F938F930E94FC0F0F900F90BA8284
:100F8000A9820B838BE0FE013196D40101900D9272
:100F90008A95E1F7C4012B960FB6F894DEBF0FBE19
:100FA000CDBFDF91CF911F910F91FF90EF90DF9018
:100FB000CF90BF90AF909F908F900895EDE7F0E0B5
:100FC000808184618083EBE8F0E0808180648083AD
:100FD00080E398E89093870080938600EAE8F0E049
:100FE00080818A6080831092890010928800089521
:100FF0001F920F920FB60F921124EF92FF920F9350
:101000001F932F933F934F935F936F937F938F9390
:101010009F93AF93BF93EF93FF93CF93DF93CDB79E
:10102000DEB72B97DEBFCDBF81E090E09A83898346
:1010300087E08B8384E090E00E94CC028C8385E083
:1010400090E00E94CC028D830E9485048E830E94D2
:1010500048048F830E94620488870E947C048987E9
:101060000E948004E980FA800B811C812D813E81E1
:101070004F8158856985782F8B850E9407072B96AD
:101080000FB6F894DEBF0FBECDBFDF91CF91FF91B9
:10109000EF91BF91AF919F918F917F916F915F91F0
:1010A0004F913F912F911F910F91FF90EF900F90D3
:1010B0000FBE0F901F9018958F929F92AF92BF9284
:1010C000CF92DF92EF92FF920F931F93CF93DF9314
:1010D000CDB7DEB760970FB6F894DEBF0FBECDBFB9
:1010E000A982BA82CB82DC82ED82FE820F831887CE
:1010F00029873A874B875C876D877E878F87988B98
:10110000CF84D8888D859E850E94B9048DE492E0B5
:101110000E94B9040B811C810115110599F15E0132
:1011200085E0A80EB11CE12CF12CE814F90449F477
:10113000EFEFCE16DE0659F081E592E00E94B90489
:1011400006C0DD2024F084E592E00E94B904F80195
:10115000848595850E94B9048FE492E00E94B904C9
:10116000FFEFEF1AFF0AF501019111915F010115DF
:101170001105D9F606E010E00E191F09013011051E
:1011800019F40EC006E010E0CD20C09449F08FE4C1
:1011900092E00E94B9040150110901301105B9F71C
:1011A00060960FB6F894DEBF0FBECDBFDF91CF9132
:1011B0001F910F91FF90EF90DF90CF90BF90AF9075
:1011C0009F908F900895CF93DF93CDB7DEB72A9786
:1011D0000FB6F894DEBF0FBECDBF9A838983E4EDCE
:1011E000F2E0848195819C838B83868197819E83A5
:1011F0008D838085918598878F83FE013196A4ED3C
:10120000B2E09E01255F3F4F819191918D939D9317
:10121000E217F307C9F72A960FB6F894DEBF0FBEA0
:10122000CDBFDF91CF910895CF93DF93CDB7DEB7D8
:10123000C350D1400FB6F894DEBF0FBECDBF0E94A1
:10124000D7023E0181E5680E711CFE0131962F0127
:10125000F30151824082CE0181969383828340972D
:101260009583848382E090E09787868787E592E084
:10127000958784877A8A698A1C8A1B8A81E692E02C
:101280009E8F8D8F7AA269A288E692E09EA78DA795
:10129000A3965FAE4EAEA3975E01F1E4AF0EB11C14
:1012A000A596BFAEAEAEA5970FEF1FEFE1961FAFAD
:1012B0000EAFE1978FE692E0AF969FAF8EAFAF97FC
:1012C0000F2EF4ED2F2EF2E03F2EF02D88EE93E05E
:1012D000F101918380838DE490E09383828387E39F
:1012E00090E0958384834AE0BE016F587F4F88EE7B
:1012F00093E00E948C0F4AE0BE016A587F4FF101D3
:10130000828193810E948C0F4AE0BE0165587F4F15
:10131000F101848195810E948C0F1E01F0E82F0E4F
:10132000311C81E39EE2A0E2B0E0F1018083918371
:10133000A283B383BE016F587F4FC1010E94810F0A
:10134000D1010D900020E9F7119785E0EBE7F2E07D
:1013500001900D928A95E1F7BE016A587F4FC10155
:101360000E94810FD1010D900020E9F7119785E0CF
:10137000E0E8F2E001900D928A95E1F7BE01655830
:101380007F4FC1010E94810F81E690E08C0F9D1F6D
:10139000F501918380831382128217870687358631
:1013A0002486ED55FF4F51824082C09793838283FC
:1013B0001787068785E892E095878487FAABE9ABC3
:1013C0001CAA1BAA21961FAF0EAF21978DE892E0B1
:1013D0009EAF8DAF1A8219827C826B8281E690E08B
:1013E0008C0F9D1F9E838D83F887EF8386EC92E0A0
:1013F0009E878D8783E090E0988B8F870E940505FC
:10140000812C912CA980BA80CB80DC80ED80FE807D
:101410000F81188529853A854B855C856D857E858C
:101420008F8598890E945C0880E1F201DE01AC5052
:10143000BF4F01900D928A95E1F729803A804F8441
:101440005888612C712C04C0272C362C612C712CEF
:101450000E947C04892B09F479C06114710409F499
:1014600075C00E948004892B09F070C09FEF491657
:10147000590609F46BC00E940505E1E06E1A710877
:10148000A22CCC50DF4F39822882C45FD040CE5F7F
:10149000DE4F59824882C250D140C301B2010E943E
:1014A0004A0C4C01CB50DF4FB880C55FD040CA50CA
:1014B000DF4FC880C65FD040C950DF4FD880C75FBC
:1014C000D040C850DF4FE880C85FD040C750DF4FE2
:1014D000F880C95FD040C650DF4F0881CA5FD04056
:1014E000C550DF4F1881CB5FD040C450DF4F2881FB
:1014F000CC5FD040C350DF4F3881CD5FD040C25069
:10150000DF4F4881CE5FD040C150DF4F5881CF5F61
:10151000D040C050DF4F6881C050D140CF5FDE4F18
:101520007881C150D140842DCD5FDE4F9881C3506A
:10153000D1400E945C0806C083ED90E30197F1F76B
:1015400000C000000E947C04892BB1F70E94800437
:10155000892B09F47BC0C20101978615970509F410
:1015600075C00E947C04892B09F070C09FEF49165A
:10157000590609F46BC00E940505EFEF6E1A7E0A4A
:10158000A22CCC50DF4F39822882C45FD040CE5F7E
:10159000DE4F59824882C250D140C301B2010E943D
:1015A0004A0C4C01CB50DF4FB880C55FD040CA50C9
:1015B000DF4FC880C65FD040C950DF4FD880C75FBB
:1015C000D040C850DF4FE880C85FD040C750DF4FE1
:1015D000F880C95FD040C650DF4F0881CA5FD04055
:1015E000C550DF4F1881CB5FD040C450DF4F2881FA
:1015F000CC5FD040C350DF4F3881CD5FD040C25068
:10160000DF4F4881CE5FD040C150DF4F5881CF5F60
:10161000D040C050DF4F6881C050D140CF5FDE4F17
:101620007881C150D140842DCD5FDE4F9881C35069
:10163000D1400E945C0806C083ED90E30197F1F76A
:1016400000C000000E948004892BB1F70E9485042D
:10165000892B09F498C00E940505F3013196EE0F1D
:10166000FF1F84EF90E08C0F9D1FE80FF91F808112
:101670009181FC01DE01AC50BF4F20E101900D9241
:101680002A95E1F7FC012080318046845784882424
:101690008394912CA980BA80CB80DC80ED80FE8081
:1016A0000F81188529853A854B855C856D857E85FA
:1016B0008F8598890E945C080E940505A22CCC5059
:1016C000DF4F39822882C45FD040CE5FDE4F59821F
:1016D0004882C250D140812C912CCB50DF4FB88032
:1016E000C55FD040CA50DF4FC880C65FD040C950E8
:1016F000DF4FD880C75FD040C850DF4FE880C85F59
:10170000D040C750DF4FF880C95FD040C650DF4F90
:101710000881CA5FD040C550DF4F1881CB5FD040F1
:10172000C450DF4F2881CC5FD040C350DF4F388199
:10173000CD5FD040C250DF4F4881CE5FD040C15016
:10174000DF4F5881CF5FD040C050DF4F6881C0501D
:10175000D140CF5FDE4F7881C150D140842DCD5F25
:10176000DE4F9881C350D1400E945C0806C083EDD3
:1017700090E30197F1F700C000000E948504892BD7
:10178000B1F7612C712C0E947C04892B09F460CE86
:101790000E948004892B09F45BCE0E940505F101AB
:1017A000DE01AC50BF4F80E101900D928A95E1F7C8
:1017B000F1017080618046845784A72CCC50DF4FA4
:1017C0007882C45FD040CB50DF4F6882C55FD04085
:1017D000CE5FDE4F59824882C250D140812C912C7D
:1017E000B62CCA50DF4FC880C65FD040C950DF4F0B
:1017F000D880C75FD040C850DF4FE880C85FD04076
:10180000C750DF4FF880C95FD040C650DF4F088116
:10181000CA5FD040C550DF4F1881CB5FD040C45065
:10182000DF4F2881CC5FD040C350DF4F3881CD5F80
:10183000D040C250DF4F4881CE5FD040C150DF4F13
:101840005881CF5FD040C050DF4F6881C050D14039
:10185000CF5FDE4F7881C150D140842DCD5FDE4F08
:101860009881C350D1400E945C0806C083ED90E38C
:101870000197F1F700C000000E947C04892B09F455
:10188000E3CD0E948004892B89F7272C362C612C0C
:10189000712CDECD97FB072E16F4009407D077FD50
:1018A00009D00E947D0C07FC05D03EF490958195EF
:1018B0009F4F0895709561957F4F0895052E97FB72
:1018C0001EF400940E94750C57FD07D00E94910CE5
:1018D00007FC03D04EF40C94750C50954095309550
:1018E00021953F4F4F4F5F4F08959095809570958C
:1018F00061957F4F8F4F9F4F0895AA1BBB1B51E1EE
:1019000007C0AA1FBB1FA617B70710F0A61BB70B6F
:10191000881F991F5A95A9F780959095BC01CD0114
:101920000895A1E21A2EAA1BBB1BFD010DC0AA1F20
:10193000BB1FEE1FFF1FA217B307E407F50720F038
:10194000A21BB30BE40BF50B661F771F881F991FB3
:101950001A9469F760957095809590959B01AC01FC
:10196000BD01CF0108955058BB27AA270E94CB0C78
:101970000C94720E0E94640E38F00E946B0E20F0E0
:1019800039F49F3F19F426F40C943A0E0EF4E095C6
:10199000E7FB0C94340EE92F0E94830E58F3BA171C
:1019A000620773078407950720F079F4A6F50C9475
:1019B000A50E0EF4E0950B2EBA2FA02D0B01B90148
:1019C00090010C01CA01A0011124FF27591B99F0B5
:1019D000593F50F4503E68F11A16F040A22F232FC1
:1019E000342F4427585FF3CF469537952795A79511
:1019F000F0405395C9F77EF41F16BA0B620B730BB8
:101A0000840BBAF09150A1F0FF0FBB1F661F771F28
:101A1000881FC2F70EC0BA0F621F731F841F48F4DD
:101A2000879577956795B795F7959E3F08F0B0CF66
:101A30009395880F08F09927EE0F9795879508954D
:101A4000DF93DD27B92FBF7740E85FE3161617064F
:101A500048075B0718F4D92F0E94AC0E9F938F9311
:101A60007F936F930E94210FE0E7F0E00E943D0E0C
:101A70000E94720E2F913F914F915F910E94C70E6D
:101A8000DD2351F09058A2EA2AED3FE049EC5FE3F4
:101A9000D0785D270E94CB0CDF910C94720E0E94CF
:101AA000630D0C94720E0E946B0E58F00E94640E2F
:101AB00040F029F45F3F29F00C94340E51110C943E
:101AC000A60E0C943A0E0E94830E68F39923B1F38C
:101AD000552391F3951B550BBB27AA276217730754
:101AE000840738F09F5F5F4F220F331F441FAA1FE8
:101AF000A9F335D00E2E3AF0E0E832D091505040A4
:101B0000E695001CCAF72BD0FE2F29D0660F771F51
:101B1000881FBB1F261737074807AB07B0E809F037
:101B2000BB0B802DBF01FF2793585F4F3AF09E3FBC
:101B3000510578F00C94340E0C94A60E5F3FE4F33C
:101B4000983ED4F3869577956795B795F7959F5FFF
:101B5000C9F7880F911D9695879597F90895E1E04B
:101B6000660F771F881FBB1F621773078407BA07AA
:101B700020F0621B730B840BBA0BEE1F88F7E09505
:101B800008950E94C80D6894B1110C94A60E089592
:101B90000E948B0E88F09F5798F0B92F9927B75164
:101BA000B0F0E1F0660F771F881F991F1AF0BA9501
:101BB000C9F714C0B13091F00E94A50EB1E00895AC
:101BC0000C94A50E672F782F8827B85F39F0B93F9E
:101BD000CCF3869577956795B395D9F73EF49095B4
:101BE0008095709561957F4F8F4F9F4F0895E89432
:101BF00009C097FB3EF490958095709561957F4F55
:101C00008F4F9F4F9923A9F0F92F96E9BB27939502
:101C1000F695879577956795B795F111F8CFFAF412
:101C2000BB0F11F460FF1BC06F5F7F4F8F4F9F4F43
:101C300016C0882311F096E911C0772321F09EE8A1
:101C4000872F762F05C0662371F096E8862F70E007
:101C500060E02AF09A95660F771F881FDAF7880FE1
:101C60009695879597F9089597F99F6780E870E0B2
:101C700060E008959FEF80EC0895DF93CF931F936A
:101C80000F93FF92EF92DF927B018C01689406C064
:101C9000DA2EEF010E94C70EFE01E894A59125916E
:101CA000359145915591A6F3EF010E94CB0CFE01B1
:101CB0009701A801DA9469F7DF90EF90FF900F91F8
:101CC0001F91CF91DF91089500240A9416161706EC
:101CD00018060906089500240A941216130614061D
:101CE00005060895092E0394000C11F4882352F080
:101CF000BB0F40F4BF2B11F460FF04C06F5F7F4F38
:101D00008F4F9F4F089557FD9058440F551F59F01E
:101D10005F3F71F04795880F97FB991F61F09F3FD8
:101D200079F087950895121613061406551FF2CF01
:101D30004695F1DF08C0161617061806991FF1CF51
:101D400086957105610508940895E894BB27662778
:101D50007727CB0197F908959B01AC0160E070E013
:101D600080E89FE30C944F0D0E94C70E0C94720EF6
:101D70000E94640E38F00E946B0E20F0952311F043
:101D80000C94340E0C943A0E11240C94A60E0E945E
:101D9000830E70F3959FC1F3950F50E0551F629F1E
:101DA000F001729FBB27F00DB11D639FAA27F00DB4
:101DB000B11DAA1F649F6627B00DA11D661F829FDB
:101DC0002227B00DA11D621F739FB00DA11D621FC0
:101DD000839FA00D611D221F749F3327A00D611DDD
:101DE000231F849F600D211D822F762F6A2F1124BF
:101DF0009F5750409AF0F1F088234AF0EE0FFF1FF2
:101E0000BB1F661F771F881F91505040A9F79E3F48
:101E1000510580F00C94340E0C94A60E5F3FE4F351
:101E2000983ED4F3869577956795B795F795E7959E
:101E30009F5FC1F7FE2B880F911D9695879597F9A7
:101E400008959B01AC010C94B40E8F929F92AF92B7
:101E5000BF92CF92DF92EF92FF92CF93DF93EC018C
:101E6000688179818A819B81611571058105910560
:101E700021F464E279ED8BE597E02DE133EF41E069
:101E800050E00E945E0C49015A019B01AC01A7EA97
:101E9000B1E40E94F0136B017C01ACEEB4EFA5013C
:101EA00094010E94FE13DC01CB018C0D9D1DAE1D23
:101EB000BF1DB7FF03C00197A109B048888399836C
:101EC000AA83BB839F77DF91CF91FF90EF90DF9044
:101ED000CF90BF90AF909F908F9008950E94250F54
:101EE000089584E091E00E94250F0895A0E0B0E0FD
:101EF0008093040190930501A0930601B09307011C
:101F00000895FB01DC010D900020E9F71197019085
:101F10000D920020E1F70895BB274A3031F4992350
:101F200022F4BDE2909581959F4F0C94980FBB27AA
:101F3000FB015527AA27880F991FAA1FA41710F085
:101F4000A41B83955051B9F7A05DAA3308F0A95D91
:101F5000A193009779F7B111B1931192CB010C9431
:101F60004A130F931F93CF93DF93009731F46115BA
:101F7000710519F480E090E03AC08B01EC016EE04D
:101F800070E081E090E00E94E411FC01892B91F364
:101F900080E883830115110571F01387028781E8BA
:101FA00083838091E2029091E302892B21F4F093E4
:101FB000E302E093E2022097C9F0D187C0878381D2
:101FC000826083838091E4029091E502892B71F411
:101FD000F093E502E093E4028091E6029091E7023B
:101FE000892B21F4F093E702E093E602CF01DF9121
:101FF000CF911F910F910895A0E0B0E0E2E0F0E1F1
:102000000C941314AE014B5F5F4FFA016191719113
:10201000AF018091E4029091E5020E941210E2E08B
:102020000C942F14ACE0B0E0E8E1F0E10C94031460
:102030007C016B018A01FC0117821682838181FF7A
:10204000BDC1CE0101964C01F7019381F60193FDCC
:10205000859193FF81916F01882309F4ABC185328B
:1020600039F493FD859193FF81916F01853229F4B5
:10207000B70190E00E945A13E7CF512C312C20E099
:102080002032A0F48B3269F030F4803259F0833280
:1020900069F420612CC08D3239F0803339F421602D
:1020A00026C02260246023C0286021C027FD27C0ED
:1020B00030ED380F3A3078F426FF06C0FAE05F9E24
:1020C000300D1124532E13C08AE0389E300D112498
:1020D000332E20620CC08E3221F426FD6BC12064A9
:1020E00006C08C3611F4206802C0883641F4F6012F
:1020F00093FD859193FF81916F018111C1CF982F3D
:102100009F7D9554933028F40C5F1F4FFFE3F983B4
:102110000DC0833631F0833771F0833509F05BC031
:1021200022C0F801808189830E5F1F4F44244394AD
:10213000512C540115C03801F2E06F0E711CF801EA
:10214000A080B18026FF03C0652D70E002C06FEF54
:102150007FEFC5012C870E943F132C0183012C8542
:102160002F77222E17C03801F2E06F0E711CF80194
:10217000A080B18026FF03C0652D70E002C06FEF24
:102180007FEFC5012C870E942D132C012C85206820
:10219000222E830123FC1BC0832D90E04816590694
:1021A000B0F4B70180E290E00E945A133A94F4CF61
:1021B000F50127FC859127FE81915F01B70190E031
:1021C0000E945A1331103A94F1E04F1A5108411409
:1021D000510471F7E5C0843611F0893639F5F801FC
:1021E00027FF07C060817181828193810C5F1F4F3F
:1021F00008C060817181072E000C880B990B0E5F5F
:102200001F4F2F76722E97FF09C09095809570957D
:1022100061957F4F8F4F9F4F2068722E2AE030E0EC
:10222000A4010E949213A82EA81844C0853729F44F
:102230002F7EB22E2AE030E025C0F22FF97FBF2E8C
:102240008F36C1F018F4883579F0B4C0803719F0B2
:10225000883721F0AFC02F2F2061B22EB4FE0DC001
:102260008B2D8460B82E09C024FF0AC09F2F966072
:10227000B92E06C028E030E005C020E130E002C001
:1022800020E132E0F801B7FE07C0608171818281F0
:1022900093810C5F1F4F06C06081718180E090E0E8
:1022A0000E5F1F4FA4010E949213A82EA818FB2DA9
:1022B000FF777F2E76FE0BC0372D3E7FA51450F49E
:1022C00074FE0AC072FC08C0372D3E7E05C0BA2CD1
:1022D000372D03C0BA2C01C0B52C34FF0DC0FE0150
:1022E000EA0DF11D8081803311F4397E09C032FF7F
:1022F00006C0B394B39404C0832F867809F0B394D6
:1023000033FD13C030FF06C05A2CB31418F4530C1D
:102310005B18B32CB31468F4B70180E290E03C87FB
:102320000E945A13B3943C85F5CFB31410F43B18B4
:1023300001C0312C34FF12C0B70180E390E03C872C
:102340000E945A133C8532FF17C031FD03C088E755
:1023500090E002C088E590E0B7010CC0832F86783A
:1023600059F031FF02C08BE201C080E237FD8DE2FF
:10237000B70190E00E945A13A51438F4B70180E326
:1023800090E00E945A135A94F7CFAA94F401EA0DF0
:10239000F11D8081B70190E00E945A13A110F5CF82
:1023A000332009F451CEB70180E290E00E945A1325
:1023B0003A94F6CFF7018681978102C08FEF9FEFA5
:1023C0002C96E2E10C941F140F931F93CF93DF938D
:1023D000869F8001879F100D969F100D1124C801C4
:1023E0000E940012EC01009729F0A80160E070E063
:1023F0000E943813CE01DF91CF911F910F91089564
:10240000CF93DF938230910510F482E090E0E09169
:10241000EA02F091EB0220E030E0C0E0D0E030973B
:1024200011F14081518148175907C0F048175907E9
:1024300061F482819381209719F09B838A832BC05A
:102440009093EB028093EA0226C02115310519F022
:102450004217530718F49A01BE01DF01EF01028011
:10246000F381E02DDCCF2115310509F1281B390B53
:102470002430310590F412968D919C91139761153B
:10248000710521F0FB019383828304C09093EB02DA
:102490008093EA02FD01329644C0FD01E20FF31F72
:1024A00081939193225031092D933C933AC020910E
:1024B000E8023091E902232B41F420910A01309186
:1024C0000B013093E9022093E8022091080130913A
:1024D00009012115310541F42DB73EB740910C019A
:1024E00050910D01241B350BE091E802F091E902B7
:1024F000E217F307A0F42E1B3F0B2817390778F0DB
:10250000AC014E5F5F4F2417350748F04E0F5F1F39
:102510005093E9024093E8028193919302C0E0E076
:10252000F0E0CF01DF91CF9108950F931F93CF93E8
:10253000DF93009709F48CC0FC013297138212825A
:102540000091EA021091EB020115110581F420813E
:102550003181820F931F2091E8023091E902281700
:10256000390779F5F093E902E093E80271C0D801E8
:1025700040E050E0AE17BF0750F412962D913C9109
:102580001397AD012115310509F1D901F3CF9D0153
:10259000DA013383228360817181860F971F82174E
:1025A000930769F4EC0128813981260F371F2E5FCC
:1025B0003F4F318320838A819B8193838283452B84
:1025C00029F4F093EB02E093EA0242C01396FC93E5
:1025D000EE931297ED01499159919E01240F351FF9
:1025E000E217F30771F480819181840F951F0296A1
:1025F00011969C938E938281938113969C938E93D4
:102600001297E0E0F0E0D80112968D919C9113971B
:10261000009719F0F8018C01F6CF8D919C919801EB
:102620002E5F3F4F820F931F2091E8023091E90205
:102630002817390769F4309729F41092EB021092A9
:10264000EA0202C0138212821093E9020093E802A8
:10265000DF91CF911F910F910895FC01059061507A
:1026600070400110D8F7809590958E0F9F1F0895A8
:10267000DC0101C06D9341505040E0F70895FC012A
:102680006150704001900110D8F7809590958E0FA1
:102690009F1F0895DC01FC01672F71917723E1F7FB
:1026A000329704C07C916D9370836291AE17BF071F
:1026B000C8F308950F931F93CF93DF93FB012381FA
:1026C00021FD03C08FEF9FEF28C022FF16C0468177
:1026D0005781248135814217530744F4A081B18189
:1026E0009D012F5F3F4F318320838C93268137815B
:1026F0002F5F3F4F3783268310C0EB01092F182F20
:102700000084F185E02D0995892BE1F68E819F816A
:1027100001969F838E83812F902FDF91CF911F9100
:102720000F910895FA01AA27283051F1203181F143
:10273000E8946F936E7F6E5F7F4F8F4F9F4FAF4FC9
:10274000B1E03ED0B4E03CD0670F781F891F9A1FDC
:10275000A11D680F791F8A1F911DA11D6A0F711D90
:10276000811D911DA11D20D009F468943F912AE09C
:10277000269F11243019305D3193DEF6CF01089584
:10278000462F4770405D4193B3E00FD0C9F7F6CFB5
:10279000462F4F70405D4A3318F0495D31FD40527D
:1027A000419302D0A9F7EACFB4E0A6959795879513
:1027B00077956795BA95C9F70097610571050895F2
:1027C0009B01AC010A2E069457954795379527959E
:1027D000BA95C9F7620F731F841F951FA01D089536
:1027E0000E943A14A59F900DB49F900DA49F800D58
:1027F000911D11240895B7FF0C94F0130E94F0135B
:10280000821B930B08952F923F924F925F926F928B
:102810007F928F929F92AF92BF92CF92DF92EF9270
:10282000FF920F931F93CF93DF93CDB7DEB7CA1BF1
:10283000DB0B0FB6F894DEBF0FBECDBF09942A881C
:10284000398848885F846E847D848C849B84AA84C4
:10285000B984C884DF80EE80FD800C811B81AA8151
:10286000B981CE0FD11D0FB6F894DEBF0FBECDBF1C
:10287000ED010895A29FB001B39FC001A39F700D09
:10288000811D1124911DB29F700D811D1124911D78
:062890000895F894FFCF4B
:1028960000120010010000000000EC022000484574
:1028A60049200A0D005374617274696E6720535291
:1028B600414D20746573742E2E2E0A0D00577269D1
:1028C6007465207068617365206572726F723A2054
:1028D6006578745F72616D5B2534645D203D2025EB
:1028E600303258202873686F756C64206265202525
:1028F600303258290A0D0052657472696576616C2A
:10290600207068617365206572726F723A2065780F
:10291600745F72616D5B2534645D203D2025303225
:1029260058202873686F756C6420626520253032E4
:1029360058290A0D005352414D2074657374206363
:102946006F6D706C657465642077697468200A0D14
:10295600253464206572726F727320696E207772F7
:1029660069746520706861736520616E64200A0D64
:10297600253464206572726F727320696E207265E9
:102986007472696576616C2070686173650A0A0DF8
:10299600004E0052004C00550044006572726F7282
:1029A60000783A2025642C20793A2025642C206C66
:1029B600696E653A2025642C20613A2025640A0D4B
:1029C6000043616E6E6F7420726561642066726F7B
:1029D6006D2043414E20627573200A0D000A200ABD
:1029E600002D3E00202000506C61792067616D65E6
:1029F60000526F6F6B696500457870657274004CA4
:102A06006561646572626F617264000A322E20002D
:102A16000A332E2000437265646974730045696C3D
:102A26006566200A4D617274696E200A4173676596
:102A36006972200A20496E2072656D656D62726149
:102A46006E6365206F660A206865726F696320652C
:102A560066666F727400204D61696E206D656E75D5
:022A660000006E
:00000001FF
