:100000000C9477030C9494030C9494030C94940331
:100010000C9494030C9494030C9494030C945A0A37
:100020000C9494030C9494030C9494030C949403F4
:100030000C9494030C9494030C9494030C949403E4
:100040000C9494030C9494030C9494030C949403D4
:100050000C9494030C9494030C9494030C949403C4
:100060000C9494030C9494030C9494030C949403B4
:10007000084AD73B3BCE016E84BCBFFDC12F3D6C0F
:1000800074319ABD56833DDA3D00C77F11BED9E475
:10009000BB4C3E916BAAAABE000000803F0000004E
:1000A0000000005C00000C000C007C287C2858DC60
:1000B00068002410480028542840000C00000078F4
:1000C00084008478000054385400107C1000804074
:1000D0000000101010000040000060100C003854A8
:1000E0003800487C40004864580044542C001C10E0
:1000F0007C005C5424003854240064140C006854C0
:100100002C004854380000480000804800001028A7
:1001100044002828280044281000045408003844CB
:100120005C00781478007C542800384428007C4413
:1001300038007C5444007C140400384474007C1063
:100140007C00447C440020403C007C106C007C40DF
:1001500040007C187C0078103C00384438007C1447
:1001600008003844B8007C14680048542400047C1B
:1001700004007C407C003C603C007C307C006C10C7
:100180006C000C700C0064544C00007C44000C109B
:100190006000447C000008040800808080000004A7
:1001A0000800304878007C4830003048480030482B
:1001B0007C00306850001078140090A878007C080B
:1001C000700050744000808074007C106800447C93
:1001D0004000781078007808700030483000F82827
:1001E00010003048F8007810080050582800083CEB
:1001F000480038407800384038007820780048308F
:10020000480098A078004868580010788400007C66
:1002100000008478100008040804000000000000BA
:10022000005F00000007000700147F147F14242AD9
:100230007F2A1223130864623649552250000503B1
:100240000000001C2241000041221C00082A1C2A38
:100250000808083E08080050300000080808080890
:10026000006060000020100804023E5149453E0035
:10027000427F400042615149462141454B311814AB
:10028000127F1027454545393C4A494930017109DB
:1002900005033649494936064949291E00363600C4
:1002A00000005636000000081422411414141414DF
:1002B00041221408000201510906324979413E7E6B
:1002C0001111117E7F494949363E414141227F410A
:1002D00041221C7F494949417F090901013E4141B1
:1002E00051327F0808087F00417F41002040413F94
:1002F000017F081422417F404040407F0204027F7A
:100300007F0408107F3E4141413E7F090909063EB6
:100310004151215E7F091929464649494931010168
:100320007F01013F4040403F1F2040201F7F201899
:10033000207F631408146303047804036151494562
:100340004300007F4141020408102041417F00002A
:100350000402010204404040404000010204002029
:10036000545454787F4844443838444444203844F2
:1003700044487F3854545418087E09010208145424
:10038000543C7F0804047800447D40002040443DF4
:1003900000007F10284400417F40007C041804784E
:1003A0007C0804047838444444387C141414080845
:1003B0001414187C7C080404084854545420043F46
:1003C0004440203C4040207C1C2040201C3C4030CD
:1003D000403C44281028440C5050503C4464544C39
:1003E00044000836410000007F000000413608004C
:1003F0000201030201000000000000000000065F8F
:100400005F060000000007070007070000147F7F59
:10041000147F7F1400242E6B6B3A12000046663066
:10042000180C666200307A4F5D377A480004070383
:100430000000000000001C3E63410000000041631A
:100440003E1C000000082A3E1C1C3E2A0808083EEC
:100450003E0808000000A0E0600000000008080856
:10046000080808000000006060000000006030180C
:100470000C060301003E7F594D7F3E000042427F43
:100480007F40400000627359496F66000022634953
:10049000497F360000181C16137F7F100027674520
:1004A000457D3900003C7E4B497930000003637183
:1004B000190F070000367F49497F360000064F4973
:1004C000693F1E000000006C6C0000000000A0EC02
:1004D0006C00000000081C36634100000014141476
:1004E0001414140000004163361C0800000203517C
:1004F000590F0600003E7F415D5D1F1E007C7E138C
:10050000137E7C0000417F7F49497F36001C3E639B
:100510004141632200417F7F41637F1C00417F7F17
:10052000495D416300417F7F491D0103001C3E631B
:1005300041517372007F7F08087F7F000000417F78
:100540007F41000000307040417F3F0100417F7FCC
:10055000081C776300417F7F41406070007F7F0609
:100560000C067F7F007F7F060C187F7F001C3E6398
:1005700041633E1C00417F7F49090F06001E3F2159
:10058000717F5E0000417F7F19396F460026674DFD
:10059000597B32000003417F7F410300007F7F4091
:1005A000407F7F00001F3F60603F1F00007F7F3063
:1005B00018307F7F0063771C081C776300074F7833
:1005C000784F0700006773594D47637100007F7FC4
:1005D00041410000000103060C1830600000414159
:1005E0007F7F000000080C0603060C080080808056
:1005F0008080808080000003070400000020745485
:10060000543C784000413F7F44447C3800387C446F
:10061000446C280000307848493F7F4000387C54C3
:10062000545C180000487E7F490302000098BCA477
:10063000A4F87C0400417F7F08047C780000447D9E
:100640007D4000000040C484FD7D000000417F7FAC
:1006500010386C440000417F7F400000007C7C0C1F
:10066000180C7C78007C7C04047C780000387C4486
:10067000447C38000084FCF8A4243C1800183C2476
:10068000A4F8FC8400447C78441C180000485C54A6
:10069000547424000000043E7F442400003C7C404D
:1006A000403C7C40001C3C60603C1C00003C7C608A
:1006B00030607C3C00446C3810386C44009CBCA01A
:1006C000A0FC7C00004C64745C4C64000008083E94
:1006D000774141000000000077770000004141773A
:1006E0003E08080000020301030203010000112478
:1006F0001FBECFEFD4E0DEBFCDBF12E0A0E0B1E07F
:10070000E6E7FFE202C005900D92A837B107D9F7DE
:1007100022E0A8E7B2E001C01D92AD38B207E1F7D0
:100720000E9496030C94B9170C94000080E895E29F
:100730000E94E9030E9415040E9425040E940A09F0
:100740000E9449078AE091E09F938F930E948E1345
:100750000E941C070E94860B0F900F90C9E1D1E008
:100760000E945005D82EC92E85E090E00E941A0400
:10077000E82E0E949404082FF92E84E090E00E9455
:100780001A04182F0E943804CF92DF921F92EF9222
:10079000FF920F931F921F939F938F93DF93CF939B
:1007A0000E948E138DB79EB70C960FB6F8949EBF1D
:1007B0000FBE8DBFD5CF5D9BFECF8CB980E090E0A2
:1007C00008955F9B03C08CB190E0089580E090E0B5
:1007D000089582959295907F9827807F98279C0115
:1007E00040E050E060E070E08BE490E00E944C104C
:1007F000CA01B90161507109810991090E94E7118B
:100800002AE939E949E15EE30E94A2120E94AF1190
:1008100070BD69B988E18AB98EE880BD61EE73E088
:100820008BED93E00E944313089580E885BF80E23A
:1008300080BF0895E0E0F4E1808387E893E10197C9
:10084000F1F700C000008081089584E090E00E94EC
:100850001A0490E0909382028093810285E090E0F8
:100860000E941A0490E09093800280937F02089582
:10087000CF92DF92EF92FF92CF93DF9384E090E0EC
:100880000E941A04C0918102D0918202682F70E008
:1008900080E090E00E94E5116B017C01BE01DD0F5C
:1008A000880B990B0E94E7119B01AC01C701B601AF
:1008B0000E94A1100E94AF1177237CF0072E000C3C
:1008C000880B990B0E94E71124EA30E74DE35FE3C0
:1008D0000E943D110E94AF110EC0072E000C880B24
:1008E000990B0E94E71123E333E343EB5FE30E949C
:1008F0003D110E94AF11CB010496099710F460E0FE
:1009000070E06C398FEF780714F46CE97FEFCB015E
:100910006536710514F084E690E0DF91CF91FF9089
:10092000EF90DF90CF900895CF92DF92EF92FF92F9
:10093000CF93DF9385E090E00E941A04C0917F027C
:10094000D0918002682F70E080E090E00E94E51175
:100950006B017C01BE01DD0F880B990B0E94E71132
:100960009B01AC01C701B6010E94A1100E94AF110A
:1009700077237CF0072E000C880B990B0E94E7115F
:1009800028EB3EE145E45FE30E943D110E94AF1178
:100990000EC0072E000C880B990B0E94E71123E371
:1009A00033E343EB5FE30E943D110E94AF11CB01A3
:1009B0000496099710F460E070E06C398FEF7807C7
:1009C00014F46CE97FEFCB016536710514F084E611
:1009D00090E0DF91CF91FF90EF90DF90CF9008955E
:1009E000009771F08130910571F08230910571F0BE
:1009F0008330910571F0049779F082E691E00895D3
:100A000088E591E008958AE591E008958CE591E00C
:100A100008958EE591E0089580E691E00895CF92E3
:100A2000DF92EF92FF92CF93DF930E943804EC01A4
:100A30000E949404BC01990F880B990B0E94E71146
:100A40006B017C01BE010D2E000C880B990B0E94DE
:100A5000E7119B01AC01C701B6010E943D110E9444
:100A60000E1120E030E044E353E40E94A2122BED8B
:100A70003FE049E450E40E943D110E94AF119B0108
:100A8000DD2314F42C543F4F332314F428593E4FE4
:100A9000C901DF91CF91FF90EF90DF90CF90089543
:100AA000CF93DF930E943804EC010E9494049E01CE
:100AB000215B3F4F2F39310530F49C01215B3F4FC3
:100AC0002F393105F8F0BC01CE010E940F059C01C1
:100AD0002B5331402E323105C0F08E329105C0F0DB
:100AE000235F3E4F29353105B0F0295531092B35AB
:100AF0003105A0F0825E91098935910590F080E082
:100B000090E011C080E090E00EC081E090E00BC06A
:100B100081E090E008C083E090E005C082E090E0D2
:100B200002C084E090E0DF91CF91089586E090E0EC
:100B30000E941A04682F70E080E090E00E94E511A6
:100B400020E030E048EC52E40E94A21220E030E0C5
:100B50004FE753E40E943D110E94AF11CB0108956D
:100B600087E090E00E941A04682F70E080E090E037
:100B70000E94E51120E030E048EC52E40E94A2120D
:100B800020E030E04FE753E40E943D110E94AF1196
:100B9000CB01089586B3817090E0089586B3869561
:100BA000817090E0089586B38695869591E08927B7
:100BB000817090E00895E0910201F091030180833B
:100BC00008952091000130910101820F931FFC01D3
:100BD0006083089590E0FC01EE0FFF1FEE0FFF1FF2
:100BE000EE0FFF1FEB50FD4F880F991F880F991FC5
:100BF000880F991F83509D4FA0910001B091010172
:100C000024912C933196E817F907B1F708956530D0
:100C100019F1683021F0643009F070C048C090E0EC
:100C2000FC01EE0FFF1FEE0FFF1FEE0FFF1FEB503B
:100C3000FD4F880F991F880F991F880F991F8350A8
:100C40009D4FA0910001B091010124912C93319608
:100C5000E817F907B1F7089590E09C01220F331FC0
:100C6000220F331F820F931F20E030E0805A91093A
:100C7000A0910001B0910101FC01E20FF31FE65EBB
:100C8000FD4FE491EC932F5F3F4F2530310581F705
:100C9000EAE1F2E02DE132E0A0910001B091010122
:100CA00084918C933196E217F307B1F7089590E0A1
:100CB000880F991F880F991F20E030E08058910914
:100CC000A0910001B0910101FC01E20FF31FE25677
:100CD000FF4FE491EC932F5F3F4F2430310581F7B4
:100CE000EAE1F2E02EE132E0A0910001B0910101D1
:100CF00084918C933196E217F307B1F70895EF9240
:100D0000FF920F931F93CF93DF93EC018881882389
:100D1000E1F1219608E712E00F2EF1E2EF2EF02D1F
:100D20000F2EFFE7FF2EF02D8A3049F580917802D3
:100D3000909179028630910529F4109279021092EF
:100D4000780205C001969093790280937802E09131
:100D50000201F0910301D8018C9180558083E091CC
:100D60000201F0910301E082E0910201F0910301A0
:100D70001082E0910201F0910301F08203C065E06E
:100D80000E94070689918111CFCFDF91CF911F91EA
:100D90000F91FF90EF900895DF92EF92FF920F93E3
:100DA0001F93CF93DF93EC0188818823E9F1F62E1E
:100DB000219608E712E00F2EF1E2DF2EF02D0F2E24
:100DC000FFE7EF2EF02D8A3049F58091780290915F
:100DD00079028630910529F41092790210927802F6
:100DE00005C001969093790280937802E091020108
:100DF000F0910301D8018C9180558083E09102012C
:100E0000F0910301D082E0910201F0910301108280
:100E1000E0910201F0910301E08203C06F2D0E9476
:100E2000070689918111CFCFDF91CF911F910F914B
:100E3000FF90EF90DF90089528E030E050E840E028
:100E40000AC0E0910001F091010110820197C9F7F9
:100E50002150310919F0852F942FF3CF089530EBED
:100E600050E040E02FEFE0910201F0910301308368
:100E7000852F942FE0910001F0910101E80FF91FF7
:100E80002083019680389105A9F73F5F383B59F7D9
:100E90000895E0910201F09103018EEA8083E091D0
:100EA0000201F091030181EA8083E0910201F09157
:100EB00003018AED8083E0910201F091030182E158
:100EC0008083E0910201F091030188EC8083E0913E
:100ED0000201F091030188EA8083E0910201F09120
:100EE00003018FE38083E0910201F091030185ED1E
:100EF0008083E0910201F091030180E88083E0911A
:100F00000201F091030181E88083E0910201F091F8
:100F1000030180E58083E0910201F091030189EDF6
:100F20008083E0910201F091030181E28083E091EE
:100F30000201F091030190E29083E0910201F091AF
:100F400003011082E0910201F09103018083E0919E
:100F50000201F09103011082E0910201F09103017E
:100F60008FE78083E0910201F091030182E28083A8
:100F7000E0910201F09103011082E0910201F091F1
:100F8000030187E08083E0910201F09103018BED82
:100F90008083E0910201F091030180E38083E0917E
:100FA0000201F09103018DEA8083E0910201F0914A
:100FB00003011082E0910201F091030184EA808331
:100FC000E0910201F091030186EA8083E091020141
:100FD000F09103018FEA80830895009721F19C012D
:100FE00027703327232B69F4BC01992314F4695F1C
:100FF0007F4FCB0195958795959587959595879585
:101000000895BC01072E000C880B990B0E94E71174
:1010100020E030E040E05EE30E94A2120E94AF11A7
:10102000CB010196089581E090E00895CF92DF9280
:10103000EF92FF920F931F93CF93DF938C017B016D
:10104000813891050CF055C0613471050CF051C028
:10105000CB010E94ED07D82EC92EC701877090786A
:10106000992324F40197886F9F6F01960E94ED07E2
:10107000C2E0D0E0082E02C0CC0FDD1F0A94E2F7D8
:10108000E0910201F09103012FEA2D0D20839F933F
:101090008F93CF92DF92FF92EF921F930F9388E688
:1010A00091E09F938F930E948E13C80101972DB7F3
:1010B0003EB7265F3F4F0FB6F8943EBF0FBE2DBF21
:1010C0001816190674F420E030E0E0910001F09168
:1010D0000101E20FF31F10822F5F3F4F28173907DE
:1010E000A4F32091000130910101F901E80FF91FEB
:1010F000C083DF91CF911F910F91FF90EF90DF9010
:10110000CF90089580EB87BB81E18DB96E9A0895E9
:101110008FB9779BFECF08958FEF0E9488088FB11B
:101120000895C4980895C49A0895CF93C82F0E9433
:10113000910883E00E9488088C2F0E9488080E94F2
:101140008C08C82F0E9493088C2FCF910895CF93BD
:10115000DF93D82FC62F0E94910882E00E94880852
:101160008D2F0E9488088C2F0E9488080E94930867
:10117000DF91CF910895CF93C62F0E94950890E0FC
:1011800021E030E002C0220F331FCA95E2F782232C
:101190009323CF910895CF93C82F0E9491088C2F4D
:1011A00080680E9488080E949308CF910895CF9389
:1011B0000E94910880EA0E9488080E948C08C82F2B
:1011C00080E00E9488080E9493088C2FCF91089598
:1011D0000E94910880EC0E9488080E94930808955C
:1011E0001F93CF93DF93D82F162FC42F0E949108FF
:1011F00085E00E948808812F0E9488088D2F0E9418
:1012000088088C2F0E9488080E949308DF91CF9154
:101210001F9108950E9482080E94E80840E06FE054
:1012200080EE0E94F00840E660E680E60E94F0084A
:1012300041E06BE281E00E94F0080895CF92DF92D6
:10124000EF92FF920F931F93CF93DF93CDB7DEB74B
:101250002B970FB6F894DEBF0FBECDBFE982FA829E
:101260000B831C832D833E834F83588769877A873E
:101270008B87E980FA80B7017695679576956795B3
:101280007695679581E30E94A7084E2D4295440FFD
:10129000407E62E380EE0E94F008402F65E38FE01D
:1012A0000E94F0080023A9F07E0124E0E20EF11C68
:1012B000CE01800F911DFC0134966F0116E3F701FA
:1012C00061917F01812F0E94A7081F5FEC14FD042C
:1012D000B1F781E00E94CB082B960FB6F894DEBFE1
:1012E0000FBECDBFDF91CF911F910F91FF90EF9077
:1012F000DF90CF90089563E080E30E94BB080895DB
:1013000060E08CE20E94BB0808958F929F92AF929A
:10131000BF92CF92DF92EF92FF920F931F93CF93E2
:10132000DF93CDB7DEB72B970FB6F894DEBF0FBEB5
:10133000CDBF4C0160E08CE20E94BB08892B99F183
:1013400081E60E949508A82E82E60E949508829563
:1013500086958770B12CAA0CBB1CAA0CBB1CAA0CCE
:10136000BB1CA82A85E60E949508082F0F70A9F0DB
:101370007E0184E0E80EF11C9E01200F311DF90171
:1013800034966F0116E6812F0E949508F70181932C
:101390007F011F5FEC15FD05B1F740E06CE283E0D3
:1013A0000E94F00808C088E891E09F938F930E9404
:1013B0008E130F900F90BA82A9820B838BE0FE01EF
:1013C0003196D40101900D928A95E1F7C4012B96D4
:1013D0000FB6F894DEBF0FBECDBFDF91CF911F9146
:1013E0000F91FF90EF90DF90CF90BF90AF909F90C4
:1013F0008F900895EF92FF920F931F93CF93DF93F7
:10140000CDB7DEB72B970FB6F894DEBF0FBECDBFBA
:1014100081E090E09A83898387E08B8384E090E089
:101420000E941A048C8385E090E00E941A048D8348
:101430000E94D3058E830E9496058F830E94B0057B
:1014400088870E94CA0589870E94CE05E980FA80B4
:101450000B811C812D813E814F8158856985782FB4
:101460008B850E941E092B960FB6F894DEBF0FBE27
:10147000CDBFDF91CF911F910F91FF90EF90089515
:10148000EDE7F0E0808184618083EBE8F0E080812B
:101490008064808380E398E890938700809386003F
:1014A000EAE8F0E080818A608083109289001092DF
:1014B000880008951F920F920FB60F921124EF9299
:1014C000FF920F931F932F933F934F935F936F93CD
:1014D0007F938F939F93AF93BF93EF93FF93CF939C
:1014E000DF93CDB7DEB72B97DEBFCDBF81E0E82E0F
:1014F000F12C07E01C812D813E814F815885698543
:101500007A858B850E941E092B960FB6F894DEBF54
:101510000FBECDBFDF91CF91FF91EF91BF91AF9102
:101520009F918F917F916F915F914F913F912F91FB
:101530001F910F91FF90EF900F900FBE0F901F9093
:1015400018958F929F92AF92BF92CF92DF92EF92B7
:10155000FF920F931F93CF93DF93CDB7DEB76097C2
:101560000FB6F894DEBF0FBECDBFA982BA82CB8280
:10157000DC82ED82FE820F83188729873A874B87AA
:101580005C876D877E878F87988BCF84D88868E04B
:1015900070E08D859E850E94CC0684EA91E00E94D1
:1015A0007F060B811C810115110599F15E0185E013
:1015B000A80EB11CE12CF12CE814F90449F4EFEF6A
:1015C000CE16DE0659F088EA91E00E947F0606C03A
:1015D000DD2024F08BEA91E00E947F06F8018485EB
:1015E00095850E947F0685E792E00E947F06FFEFC7
:1015F000EF1AFF0AF501019111915F010115110523
:10160000D9F606E010E00E191F090130110519F492
:101610000EC006E010E0CD20C09449F085E792E0CE
:101620000E947F060150110901301105B9F760963B
:101630000FB6F894DEBF0FBECDBFDF91CF911F91E3
:101640000F91FF90EF90DF90CF90BF90AF909F9061
:101650008F9008950F931F93CF93DF9300D000D006
:1016600000D0CDB7DEB78C011F938F938EEA91E047
:101670009F938F930E948E1380917A0290E00F9037
:101680000F900F900F908017910754F41A830983DD
:101690009C838B8380917B0290E09E838D8323C00B
:1016A00020917B0230E0201731073CF49A83898334
:1016B0001C830B833E832D8316C040917C0250E037
:1016C000401751073CF49A8389833C832B831E8304
:1016D0000D8309C08BEB91E09F938F930E948E1333
:1016E0000F900F9008C0EAE7F2E0898180838B8138
:1016F00081838D81828326960FB6F894DEBF0FBE5C
:10170000CDBFDF91CF911F910F910895CF93DF93BC
:10171000CDB7DEB7CE51D1400FB6F894DEBF0FBEC5
:10172000CDBF0E9425043E0121E5620E711CCE0151
:1017300001962C01F30191838083809693838283A9
:1017400040979583848382E090E0978786878FEB2C
:1017500091E0958784877A8A698A1C8A1B8A89EC3A
:1017600091E09E8F8D8F7AA269A280ED91E09EA775
:101770008DA7A3965FAE4EAEA3975E01F1E4AF0EC8
:10178000B11CA596BFAEAEAEA5970FEF1FEFE196C9
:101790001FAF0EAFE19787ED91E0AF969FAF8EAF91
:1017A000AF970F2EFAE72F2EF2E03F2EF02DF1012A
:1017B00080814AE0BE016F587F4F90E00E941E1367
:1017C000F10181814AE0BE016A587F4F90E00E949A
:1017D0001E13F10182814AE0BE0165587F4F90E0FF
:1017E0000E941E131E01F0E82F0E311C81E39EE2C1
:1017F000A0E2B0E0F10180839183A283B383BE01B4
:101800006F587F4FC1010E941313D1010D9000202A
:10181000E9F7119785E0E3EEF1E001900D928A95EA
:10182000E1F7BE016A587F4FC1010E941313D10135
:101830000D900020E9F7119785E0E8EEF1E00190C6
:101840000D928A95E1F7BE0165587F4FC1010E9454
:101850001313F10101900020E9F731978AE09AE033
:10186000A0E080839183A28321E630E02C0F3D1F0E
:10187000F50131832083138212821787068735860C
:101880002486ED55FF4F51824082CE01C19693834D
:101890008283178706878DEE91E095878487FAAB60
:1018A000E9AB1CAA1BAA21961FAF0EAF219785EFAB
:1018B00091E09EAF8DAF1A8219827C826B823E834B
:1018C0002D83F887EF8384E392E09E878D8783E002
:1018D00090E0988B8F870E941C07812C912CA98007
:1018E000BA80CB80DC80ED80FE800F811885298551
:1018F0003A854B855C856D857E858F8598890E94AC
:10190000A10A80E1F201DE01AC50BF4F01900D92BF
:101910008A95E1F769807A808D859E85C65EDE4F67
:1019200099838883CA51D1404F845888312CC35E33
:10193000DE4F19821882CD51D1406894222424F8B8
:10194000E2E0F0E0CC5FDE4FF983E883C450D140A1
:10195000F6E0CA5FDE4FF883C650D14021E0C95F90
:10196000DE4F2883C750D1400E945005039709F0ED
:101970007FC0332009F47CC03FEF4316530609F4BF
:1019800077C00E941C073A94A62CCC50DF4F798276
:101990006882C45FD040C65EDE4FE881CA51D14044
:1019A000C65EDE4F88819981CA51D140C050DF4F59
:1019B00099838883C050D140CE5FDE4F59824882E0
:1019C000C250D140832D90E0B2010E9438104C01EA
:1019D000CB50DF4FB880C55FD040CA50DF4FC880C2
:1019E000C65FD040C950DF4FD880C75FD040C850D5
:1019F000DF4FE880C85FD040C750DF4FF880C95F35
:101A0000D040C650DF4F0881CA5FD040C550DF4F7D
:101A10001881CB5FD040C450DF4F2881CC5FD040CD
:101A2000C350DF4F3881CD5FD040C250DF4F488177
:101A3000CE5FD040C150DF4F5881CF5FD0406E2F76
:101A4000CF5FDE4F7881C150D140842DCD5FDE4F16
:101A50009881C350D1400E94A10A06C0E3EDF0E393
:101A60003197F1F700C000000E945005892BB1F7B3
:101A70000E945005049709F085C0832D90E09201E3
:101A8000215031098217930709F47CC0F1E04F1609
:101A9000510409F4E7C20E941C073394A62CCC50D1
:101AA000DF4F79826882C45FD040C65EDE4FE88136
:101AB000CA51D140C65EDE4F28813981CA51D1401A
:101AC000C050DF4F39832883C050D140CE5FDE4FF6
:101AD00059824882C250D140832D90E0B2010E94C9
:101AE00038104C01CB50DF4FB880C55FD040CA5092
:101AF000DF4FC880C65FD040C950DF4FD880C75F76
:101B0000D040C850DF4FE880C85FD040C750DF4F9B
:101B1000F880C95FD040C650DF4F0881CA5FD0400F
:101B2000C550DF4F1881CB5FD040C450DF4F2881B4
:101B3000CC5FD040C350DF4F3881CD5FD040C25022
:101B4000DF4F4881CE5FD040C150DF4F5881CF5F1B
:101B5000D0406E2FCF5FDE4F7881C150D140842DB1
:101B6000CD5FDE4F9881C350D1400E94A10A06C0CC
:101B700083ED90E30197F1F700C000000E9450054B
:101B8000892BB1F70E945005019709F0C6C19FEF5C
:101B90004916590609F4C1C10E941C07E32DF0E063
:101BA0003196EE0FFF1F24EF30E02C0F3D1FE20FA8
:101BB000F31F80819181FC01D901222D01900D92AA
:101BC0002A95E1F7FC016080718024853585C65E29
:101BD000DE4F39832883CA51D140468457848824F4
:101BE0008394912CA980BA80CB80DC80ED80FE802C
:101BF0000F81188529853A854B855C856D857E85A5
:101C00008F8598890E94A10AC65EDE4F88819981DE
:101C1000CA51D140895C914009F084C0F2E5C95FA6
:101C2000DE4FF883C750D1400E941C07CC5FDE4FC7
:101C3000E880C450D140CB5FDE4FF880C550D14022
:101C4000CA5FDE4F0881C650D140C95FDE4F1881A0
:101C5000C750D140C85FDE4F2881C850D140C75F10
:101C6000DE4F3881C950D140C65FDE4F4881CA502F
:101C7000D140C55FDE4F5881CB50D140C45FDE4FAD
:101C80006881CC50D140C35FDE4F7881CD50D140C8
:101C9000C25FDE4F8881CE50D1400E941E098EE384
:101CA00092E00E947F06C35EDE4F08811981CD510C
:101CB000D1400E94FA090F5F1F4F0E948009892BB3
:101CC000C1F3C35EDE4F19830883CD51D140CE01ED
:101CD000815F9E4F0E948509C35EDE4F8881998196
:101CE000CD51D1400E942A0BFE01EF59FF4FDE017A
:101CF000AC50BF4F822D01900D928A95E1F7A396CB
:101D00006EAC7FACA397AF962EAD3FADAF97C65EDE
:101D1000DE4F39832883CA51D140E1964EAC5FAC87
:101D2000E19789C0C65EDE4F88819981CA51D14052
:101D3000805D914009F07FC0F5E4C95FDE4FF88314
:101D4000C750D140CC5FDE4FE880C450D140CB5F5C
:101D5000DE4FF880C550D140CA5FDE4F0881C650C3
:101D6000D14015E4C85FDE4F2881C850D140C75F1D
:101D7000DE4F3881C950D140C65FDE4F4881CA501E
:101D8000D140C55FDE4F5881CB50D140C45FDE4F9C
:101D90006881CC50D140C35FDE4F7881CD50D140B7
:101DA000C25FDE4F8881CE50D1400E941E090E9442
:101DB0001C078BE592E00E947F06C35EDE4F088120
:101DC0001981CD51D1400E94FA090F5F1F4F0E9427
:101DD0008009892BC1F3C35EDE4F19830883CD517F
:101DE000D140CE01815F9E4F0E948509C35EDE4FC8
:101DF00088819981CD51D1400E942A0BFE01EF5973
:101E0000FF4FDE01AC50BF4F822D01900D928A959D
:101E1000E1F7A3966EAC7FACA397AF962EAD3FAD26
:101E2000AF97C65EDE4F39832883CA51D140E19611
:101E30004EAC5FACE1970E941C07A62CCC50DF4F44
:101E400079826882C45FD040C65EDE4F6881CA5125
:101E5000D140C65EDE4F88819981CA51D140C050C1
:101E6000DF4F99838883C050D140CE5FDE4F5982C7
:101E70004882C250D140812C912CCB50DF4FB8808A
:101E8000C55FD040CA50DF4FC880C65FD040C95040
:101E9000DF4FD880C75FD040C850DF4FE880C85FB1
:101EA000D040C750DF4FF880C95FD040C650DF4FE9
:101EB0000881CA5FD040C550DF4F1881CB5FD0404A
:101EC000C450DF4F2881CC5FD040C350DF4F3881F2
:101ED000CD5FD040C250DF4F4881CE5FD040C1506F
:101EE000DF4F5881CF5FD040CF5FDE4F7881C15048
:101EF000D140842DCD5FDE4F9881C350D1400E94E8
:101F0000A10A06C0E3EDF0E33197F1F700C000004D
:101F10000E945005892BB1F7312C0E94CA05892BEC
:101F200009F40ECD6114710409F40ACD0E941C0756
:101F3000F301DE01AC50BF4F822D01900D928A95C6
:101F4000E1F7F3013080F181C45EDE4FF883CC51BC
:101F5000D140F3010484F585E02DC65EDE4FF983A0
:101F6000E883CA51D140F30146845784A32CCC5056
:101F7000DF4F3882C45FD040C45EDE4FF881CC5161
:101F8000D140CB50DF4FF883C55FD040C65EDE4FF7
:101F90006881CA51D140C65EDE4F28813981CA515D
:101FA000D140C050DF4F39832883C050D140CE5F2D
:101FB000DE4F59824882C250D140812C912CBF2ED5
:101FC000CA50DF4FC880C65FD040C950DF4FD880AD
:101FD000C75FD040C850DF4FE880C85FD040C750CF
:101FE000DF4FF880C95FD040C650DF4F0881CA5F1D
:101FF000D040C550DF4F1881CB5FD040C450DF4F79
:102000002881CC5FD040C350DF4F3881CD5FD040B6
:10201000C250DF4F4881CE5FD040C150DF4F588162
:10202000CF5FD040CF5FDE4F7881C150D140842D4B
:10203000CD5FDE4F9881C350D1400E94A10A06C0F7
:1020400083ED90E30197F1F700C000000E94CA05FC
:10205000892BB1F7632CC45EDE4F7880CC51D14020
:10206000312C6ECC0E945005019709F056CF94CDCB
:1020700097FB072E16F4009407D077FD09D00E9435
:102080006B1007FC05D03EF4909581959F4F089505
:10209000709561957F4F0895052E97FB1EF400946F
:1020A0000E94631057FD07D00E947F1007FC03D0E9
:1020B0004EF40C94631050954095309521953F4F08
:1020C0004F4F5F4F089590958095709561957F4F24
:1020D0008F4F9F4F0895AA1BBB1B51E107C0AA1F3A
:1020E000BB1FA617B70710F0A61BB70B881F991FB9
:1020F0005A95A9F780959095BC01CD010895A1E26C
:102100001A2EAA1BBB1BFD010DC0AA1FBB1FEE1F71
:10211000FF1FA217B307E407F50720F0A21BB30BBC
:10212000E40BF50B661F771F881F991F1A9469F738
:1021300060957095809590959B01AC01BD01CF0194
:1021400008955058BB27AA270E94B9100C9460121A
:102150000E94521238F00E94591220F039F49F3F29
:1021600019F426F40C9428120EF4E095E7FB0C9475
:102170002212E92F0E94711258F3BA1762077307EF
:102180008407950720F079F4A6F50C9493120EF4C9
:10219000E0950B2EBA2FA02D0B01B90190010C0177
:1021A000CA01A0011124FF27591B99F0593F50F48F
:1021B000503E68F11A16F040A22F232F342F4427E7
:1021C000585FF3CF469537952795A795F0405395DF
:1021D000C9F77EF41F16BA0B620B730B840BBAF0AF
:1021E0009150A1F0FF0FBB1F661F771F881FC2F71A
:1021F0000EC0BA0F621F731F841F48F4879577952E
:102200006795B795F7959E3F08F0B0CF9395880FE7
:1022100008F09927EE0F979587950895DF93DD27AE
:10222000B92FBF7740E85FE31616170648075B072C
:1022300018F4D92F0E949A129F938F937F936F93D4
:102240000E940F13E0E7F0E00E942B120E94601240
:102250002F913F914F915F910E94B512DD2351F074
:102260009058A2EA2AED3FE049EC5FE3D0785D2781
:102270000E94B910DF910C9460120E9451110C94CD
:1022800060120E94591258F00E94521240F029F434
:102290005F3F29F00C94221251110C9494120C946B
:1022A00028120E94711268F39923B1F3552391F318
:1022B000951B550BBB27AA2762177307840738F0B5
:1022C0009F5F5F4F220F331F441FAA1FA9F335D012
:1022D0000E2E3AF0E0E832D091505040E695001CC6
:1022E000CAF72BD0FE2F29D0660F771F881FBB1F80
:1022F000261737074807AB07B0E809F0BB0B802D5E
:10230000BF01FF2793585F4F3AF09E3F510578F089
:102310000C9422120C9494125F3FE4F3983ED4F391
:10232000869577956795B795F7959F5FC9F7880F5D
:10233000911D9695879597F90895E1E0660F771FAF
:10234000881FBB1F621773078407BA0720F0621B40
:10235000730B840BBA0BEE1F88F7E09508950E946B
:10236000B6116894B1110C94941208950E947912D8
:1023700088F09F5798F0B92F9927B751B0F0E1F046
:10238000660F771F881F991F1AF0BA95C9F714C0F6
:10239000B13091F00E949312B1E008950C94931221
:1023A000672F782F8827B85F39F0B93FCCF386952F
:1023B00077956795B395D9F73EF49095809570958C
:1023C00061957F4F8F4F9F4F0895E89409C097FB09
:1023D0003EF490958095709561957F4F8F4F9F4FFC
:1023E0009923A9F0F92F96E9BB279395F695879540
:1023F00077956795B795F111F8CFFAF4BB0F11F403
:1024000060FF1BC06F5F7F4F8F4F9F4F16C08823A9
:1024100011F096E911C0772321F09EE8872F762FDF
:1024200005C0662371F096E8862F70E060E02AF020
:102430009A95660F771F881FDAF7880F969587950C
:1024400097F9089597F99F6780E870E060E0089534
:102450009FEF80EC0895DF93CF931F930F93FF922C
:10246000EF92DF927B018C01689406C0DA2EEF01B7
:102470000E94B512FE01E894A591259135914591F0
:102480005591A6F3EF010E94B910FE019701A80132
:10249000DA9469F7DF90EF90FF900F911F91CF9141
:1024A000DF91089500240A941616170618060906E7
:1024B000089500240A9412161306140605060895BA
:1024C000092E0394000C11F4882352F0BB0F40F442
:1024D000BF2B11F460FF04C06F5F7F4F8F4F9F4F82
:1024E000089557FD9058440F551F59F05F3F71F004
:1024F0004795880F97FB991F61F09F3F79F087956B
:102500000895121613061406551FF2CF4695F1DFF3
:1025100008C0161617061806991FF1CF8695710583
:10252000610508940895E894BB2766277727CB01B7
:1025300097F908959B01AC0160E070E080E89FE3AB
:102540000C943D110E94B5120C9460120E9452121C
:1025500038F00E94591220F0952311F00C942212A9
:102560000C94281211240C9494120E94711270F38E
:10257000959FC1F3950F50E0551F629FF001729F28
:10258000BB27F00DB11D639FAA27F00DB11DAA1F37
:10259000649F6627B00DA11D661F829F2227B00D84
:1025A000A11D621F739FB00DA11D621F839FA00D0F
:1025B000611D221F749F3327A00D611D231F849F5F
:1025C000600D211D822F762F6A2F11249F575040B6
:1025D0009AF0F1F088234AF0EE0FFF1FBB1F661F31
:1025E000771F881F91505040A9F79E3F510580F0FA
:1025F0000C9422120C9494125F3FE4F3983ED4F3AF
:10260000869577956795B795F795E7959F5FC1F79D
:10261000FE2B880F911D9695879597F908959B013C
:10262000AC010C94A212FB01DC010D900020E9F733
:10263000119701900D920020E1F70895BB274A30D1
:1026400031F4992322F4BDE2909581959F4F0C942B
:102650002A13BB27FB015527AA27880F991FAA1FFA
:10266000A41710F0A41B83955051B9F7A05DAA33AD
:1026700008F0A95DA193009779F7B111B193119278
:10268000CB010C94DC160F931F93CF93DF9300972D
:1026900031F46115710519F480E090E03AC08B01C6
:1026A000EC016EE070E081E090E00E947615FC01A4
:1026B000892B91F380E883830115110571F013874D
:1026C000028781E883838091830290918402892B21
:1026D00021F4F0938402E09383022097C9F0D1871C
:1026E000C087838182608383809185029091860276
:1026F000892B71F4F0938602E09385028091870222
:1027000090918802892B21F4F0938802E09387024C
:10271000CF01DF91CF911F910F910895A0E0B0E01C
:10272000E4E9F3E10C949217AE014B5F5F4FFA01BD
:1027300061917191AF0180918502909186020E9412
:10274000A413E2E00C94AE17ACE0B0E0EAEAF3E1E7
:102750000C9482177C016B018A01FC01178216829E
:10276000838181FFBDC1CE0101964C01F7019381A8
:10277000F60193FD859193FF81916F01882309F400
:10278000ABC1853239F493FD859193FF81916F013F
:10279000853229F4B70190E00E94EC16E7CF512C66
:1027A000312C20E02032A0F48B3269F030F48032FA
:1027B00059F0833269F420612CC08D3239F08033B6
:1027C00039F4216026C02260246023C0286021C023
:1027D00027FD27C030ED380F3A3078F426FF06C0C9
:1027E000FAE05F9E300D1124532E13C08AE0389E0C
:1027F000300D1124332E20620CC08E3221F426FDC0
:102800006BC1206406C08C3611F4206802C0883683
:1028100041F4F60193FD859193FF81916F01811140
:10282000C1CF982F9F7D9554933028F40C5F1F4F94
:10283000FFE3F9830DC0833631F0833771F08335C0
:1028400009F05BC022C0F801808189830E5F1F4FB1
:1028500044244394512C540115C03801F2E06F0E0A
:10286000711CF801A080B18026FF03C0652D70E0C7
:1028700002C06FEF7FEFC5012C870E94D1162C019B
:1028800083012C852F77222E17C03801F2E06F0EBE
:10289000711CF801A080B18026FF03C0652D70E097
:1028A00002C06FEF7FEFC5012C870E94BF162C017D
:1028B0002C852068222E830123FC1BC0832D90E0F1
:1028C00048165906B0F4B70180E290E00E94EC1679
:1028D0003A94F4CFF50127FC859127FE81915F01A1
:1028E000B70190E00E94EC1631103A94F1E04F1AD3
:1028F00051084114510471F7E5C0843611F089364E
:1029000039F5F80127FF07C06081718182819381C9
:102910000C5F1F4F08C060817181072E000C880B6F
:10292000990B0E5F1F4F2F76722E97FF09C090955F
:102930008095709561957F4F8F4F9F4F2068722EC5
:102940002AE030E0A4010E942417A82EA81844C051
:10295000853729F42F7EB22E2AE030E025C0F22FF1
:10296000F97FBF2E8F36C1F018F4883579F0B4C0E6
:10297000803719F0883721F0AFC02F2F2061B22E99
:10298000B4FE0DC08B2D8460B82E09C024FF0AC090
:102990009F2F9660B92E06C028E030E005C020E1E8
:1029A00030E002C020E132E0F801B7FE07C06081EC
:1029B0007181828193810C5F1F4F06C0608171819C
:1029C00080E090E00E5F1F4FA4010E942417A82E04
:1029D000A818FB2DFF777F2E76FE0BC0372D3E7F8C
:1029E000A51450F474FE0AC072FC08C0372D3E7E58
:1029F00005C0BA2C372D03C0BA2C01C0B52C34FF4A
:102A00000DC0FE01EA0DF11D8081803311F4397E85
:102A100009C032FF06C0B394B39404C0832F8678F4
:102A200009F0B39433FD13C030FF06C05A2CB31421
:102A300018F4530C5B18B32CB31468F4B70180E29C
:102A400090E03C870E94EC16B3943C85F5CFB3141C
:102A500010F43B1801C0312C34FF12C0B70180E3E1
:102A600090E03C870E94EC163C8532FF17C031FD98
:102A700003C088E790E002C088E590E0B7010CC091
:102A8000832F867859F031FF02C08BE201C080E2CB
:102A900037FD8DE2B70190E00E94EC16A51438F4E2
:102AA000B70180E390E00E94EC165A94F7CFAA9405
:102AB000F401EA0DF11D8081B70190E00E94EC164F
:102AC000A110F5CF332009F451CEB70180E290E098
:102AD0000E94EC163A94F6CFF7018681978102C0E6
:102AE0008FEF9FEF2C96E2E10C949E170F931F93AC
:102AF000CF93DF93869F8001879F100D969F100DC7
:102B00001124C8010E949215EC01009729F0A80138
:102B100060E070E00E94CA16CE01DF91CF911F9154
:102B20000F910895CF93DF938230910510F482E0E6
:102B300090E0E0918B02F0918C0220E030E0C0E068
:102B4000D0E0309711F14081518148175907C0F00A
:102B50004817590761F482819381209719F09B836C
:102B60008A832BC090938C0280938B0226C0211500
:102B7000310519F04217530718F49A01BE01DF011D
:102B8000EF010280F381E02DDCCF2115310509F141
:102B9000281B390B2430310590F412968D919C91AD
:102BA00013976115710521F0FB019383828304C0A3
:102BB00090938C0280938B02FD01329644C0FD01FC
:102BC000E20FF31F81939193225031092D933C938F
:102BD0003AC02091890230918A02232B41F420913E
:102BE00006013091070130938A02209389022091D7
:102BF0000401309105012115310541F42DB73EB78F
:102C00004091080150910901241B350BE091890284
:102C1000F0918A02E217F307A0F42E1B3F0B28174E
:102C2000390778F0AC014E5F5F4F2417350748F045
:102C30004E0F5F1F50938A024093890281939193B4
:102C400002C0E0E0F0E0CF01DF91CF9108950F9353
:102C50001F93CF93DF93009709F48CC0FC01329748
:102C60001382128200918B0210918C0201151105C2
:102C700081F420813181820F931F2091890230914C
:102C80008A022817390779F5F0938A02E0938902BE
:102C900071C0D80140E050E0AE17BF0750F4129663
:102CA0002D913C911397AD012115310509F1D90101
:102CB000F3CF9D01DA013383228360817181860F16
:102CC000971F8217930769F4EC0128813981260F39
:102CD000371F2E5F3F4F318320838A819B819383EF
:102CE0008283452B29F4F0938C02E0938B0242C03F
:102CF0001396FC93EE931297ED01499159919E0121
:102D0000240F351FE217F30771F480819181840F3E
:102D1000951F029611969C938E93828193811396B0
:102D20009C938E931297E0E0F0E0D80112968D917B
:102D30009C911397009719F0F8018C01F6CF8D91B3
:102D40009C9198012E5F3F4F820F931F2091890223
:102D500030918A022817390769F4309729F41092C4
:102D60008C0210928B0202C01382128210938A028C
:102D700000938902DF91CF911F910F910895FC017B
:102D80000590615070400110D8F7809590958E0F96
:102D90009F1F0895DC0101C06D9341505040E0F742
:102DA0000895FC016150704001900110D8F78095A2
:102DB00090958E0F9F1F0895DC01FC01672F719184
:102DC0007723E1F7329704C07C916D937083629111
:102DD000AE17BF07C8F308950F931F93CF93DF93E8
:102DE000FB01238121FD03C08FEF9FEF28C022FF4D
:102DF00016C046815781248135814217530744F418
:102E0000A081B1819D012F5F3F4F318320838C933F
:102E1000268137812F5F3F4F3783268310C0EB0118
:102E2000092F182F0084F185E02D0995892BE1F6F3
:102E30008E819F8101969F838E83812F902FDF91BA
:102E4000CF911F910F910895FA01AA27283051F1CF
:102E5000203181F1E8946F936E7F6E5F7F4F8F4FCB
:102E60009F4FAF4FB1E03ED0B4E03CD0670F781F2A
:102E7000891F9A1FA11D680F791F8A1F911DA11D0F
:102E80006A0F711D811D911DA11D20D009F4689448
:102E90003F912AE0269F11243019305D3193DEF6F0
:102EA000CF010895462F4770405D4193B3E00FD0A6
:102EB000C9F7F6CF462F4F70405D4A3318F0495D91
:102EC00031FD4052419302D0A9F7EACFB4E0A69574
:102ED0009795879577956795BA95C9F70097610596
:102EE000710508959B01AC010A2E069457954795EC
:102EF00037952795BA95C9F7620F731F841F951FE1
:102F0000A01D08952F923F924F925F926F927F92F1
:102F10008F929F92AF92BF92CF92DF92EF92FF92E9
:102F20000F931F93CF93DF93CDB7DEB7CA1BDB0B95
:102F30000FB6F894DEBF0FBECDBF09942A8839883A
:102F400048885F846E847D848C849B84AA84B98441
:102F5000C884DF80EE80FD800C811B81AA81B9814D
:102F6000CE0FD11D0FB6F894DEBF0FBECDBFED0161
:062F70000895F894FFCF64
:102F76000012001000008D022000737461727465E7
:102F860072206E6F64652031004E6F6465203120BB
:102F9600783A202564202C2072656E2078202564DE
:102FA600202C20793A202564202C2072656E207909
:102FB600202564202C20646972656374696F6E3AFB
:102FC60020256420200A0D004E0052004C005500BA
:102FD60044006572726F7200783A2025642C20795D
:102FE6003A2025642C206C696E653A2025642C20D5
:102FF600613A2025640A0D0043616E6E6F7420727B
:103006006561642066726F6D2043414E2062757360
:10301600200A0D000A200A002D3E002020007363BE
:103026006F72653A202564200A0D0072657400509F
:103036006C61792067616D6500526F6F6B69650021
:10304600457870657274004C6561646572626F6183
:103056007264000A322E20000A332E200043726565
:10306600646974730045696C656620204F2E0A4DAD
:10307600617274696E20532E0A4173676569722006
:10308600482E0A496E2072656D656D6272616E63C7
:1030960065200A6F66206865726F696320656666DB
:1030A6006F7274004D61696E206D656E7500506CAF
:1030B6006179696E6720726F6F6B6965200A206D92
:1030C6006F6465200A0A0A0A0A0A00506C61796967
:1030D6006E6720657870657274200A6D6F6465206E
:0830E6000A0A0A0A0A0A0000A6
:00000001FF
