:100000000C94CB010C94E8010C94E8010C94E801E9
:100010000C94E8010C94E8010C94E8010C94E801BC
:100020000C94E8010C94E8010C94E8010C94E801AC
:100030000C94E8010C94E8010C94E8010C94E8019C
:100040000C94E8010C94E8010C94E8010C94E8018C
:100050000C94E8010C94E8010C94E8010C94E8017C
:100060000C94E8010C94E8010C94E8010C94E8016C
:10007000084AD73B3BCE016E84BCBFFDC12F3D6C0F
:1000800074319ABD56833DDA3D00C77F11BED9E475
:10009000BB4C3E916BAAAABE000000803F0000004E
:1000A00000000000000000065F5F0600000000077F
:1000B000070007070000147F7F147F7F1400242EA1
:1000C0006B6B3A120000466630180C666200307A9C
:1000D0004F5D377A48000407030000000000001C51
:1000E0003E63410000000041633E1C000000082AFE
:1000F0003E1C1C3E2A0808083E3E0808000000A0DE
:10010000E06000000000080808080808000000007F
:100110006060000000006030180C060301003E7FA4
:10012000594D7F3E000042427F7F40400000627395
:1001300059496F660000226349497F360000181C48
:1001400016137F7F1000276745457D3900003C7EF0
:100150004B4979300000036371190F070000367FA7
:1001600049497F360000064F49693F1E00000000E4
:100170006C6C0000000000A0EC6C00000000081C8B
:1001800036634100000014141414141400000041DC
:1001900063361C080000020351590F0600003E7F21
:1001A000415D5D1F1E007C7E13137E7C0000417F3D
:1001B0007F49497F36001C3E634141632200417FF5
:1001C0007F41637F1C00417F7F495D416300417F28
:1001D0007F491D0103001C3E6341517372007F7F04
:1001E00008087F7F000000417F7F410000003070E1
:1001F00040417F3F0100417F7F081C776300417FC2
:100200007F41406070007F7F060C067F7F007F7F0C
:10021000060C187F7F001C3E6341633E1C00417F3B
:100220007F49090F06001E3F21717F5E0000417F5C
:100230007F19396F460026674D597B320000034114
:100240007F7F410300007F7F40407F7F00001F3F92
:1002500060603F1F00007F7F3018307F7F00637732
:100260001C081C776300074F78784F0700006773FE
:10027000594D47637100007F7F4141000000010339
:10028000060C183060000041417F7F000000080C20
:100290000603060C0800808080808080808000003B
:1002A000030704000000207454543C784000413F90
:1002B0007F44447C3800387C44446C28000030780B
:1002C00048493F7F4000387C54545C180000487E09
:1002D0007F490302000098BCA4A4F87C0400417F7D
:1002E0007F08047C780000447D7D4000000040C40D
:1002F00084FD7D000000417F7F10386C4400004188
:100300007F7F400000007C7C0C180C7C78007C7C9B
:1003100004047C780000387C44447C38000084FC71
:10032000F8A4243C1800183C24A4F8FC8400447C65
:1003300078441C180000485C5454742400000004E5
:100340003E7F442400003C7C40403C7C40001C3C00
:1003500060603C1C00003C7C6030607C3C00446C75
:100360003810386C44009CBCA0A0FC7C00004C649D
:10037000745C4C64000008083E77414100000000B6
:100380000077770000004141773E08080000020333
:1003900001030203010011241FBECFEFD4E0DEBF32
:1003A000CDBF13E0A0E0B1E0E4E1F2E202C00590CD
:1003B0000D92A23AB107D9F723E0A2EAB3E001C057
:1003C0001D92AE3AB207E1F70E94EA010C940811BF
:1003D0000C940000CF93DF93CDB7DEB76D970FB6C7
:1003E000F894DEBF0FBECDBF80E895E20E944302C5
:1003F00080E885BF80E280BF86E191E09F938F9384
:100400000E94CB0C0E94FE0781E090E09A838983D2
:1004100087E0EEE0F1E0DE011C9601900D928A95F6
:10042000E1F7DE011C96FE013496CE010B960F908B
:100430000F902D912193E817F907D9F70F2EF7E0C8
:10044000DF2EF02DDB82E980FA800D2D1C812D81BD
:100450003E814F81588569857A858B850E94120877
:10046000CE0143960E949108EDCF5D9BFECF8CB9E3
:1004700080E090E008955F9B03C08CB190E0089508
:1004800080E090E0089582959295907F9827807FF4
:1004900098279C0140E050E060E070E08BE490E041
:1004A0000E946409CA01B901615071098109910969
:1004B0000E94920A2AE939E949E15EE30E944D0B64
:1004C0000E945A0A70BD69B988E18AB98EE880BD78
:1004D0006BE372E085E392E00E94800C0895CF9276
:1004E000DF92EF92FF920F931F93CF93DF938DE1F3
:1004F00091E09F938F930E94CB0C0E94700C7C0123
:100500000E94750C0F900F90C12CD12CC0E0D0E050
:1005100005E311E00E94700CF601F85E80832081F3
:100520002817A1F099279F938F931F922F93DF9203
:10053000CF921F930F930E94CB0C21968DB79EB73D
:1005400008960FB6F8949EBF0FBE8DBF9FEFC91AD5
:10055000D90AC11488E0D806E9F6C7010E94750CD3
:1005600000E010E0E12CF12C0F2EFFE6CF2EF1E0A1
:10057000DF2EF02D0E94700CF801F85E2081281704
:10058000B1F099279F938F931F922F931F930F93EF
:10059000DF92CF920E94CB0C9FEFE91AF90A8DB738
:1005A0009EB708960FB6F8949EBF0FBE8DBF0F5F23
:1005B0001F4F011598E01907E9F6FF92EF92DF93BC
:1005C000CF938DEA91E09F938F930E94CB0C0F9075
:1005D0000F900F900F900F900F90DF91CF911F9180
:1005E0000F91FF90EF90DF90CF900895E0E0F4E15D
:1005F000808387E893E10197F1F700C000008081D4
:100600000895CF9384E090E00E94F602C82F85E021
:1006100090E00E94F602282F6C2F70E0822F90E06D
:10062000CF910895CF92DF92EF92FF926B017C0100
:1006300084E090E00E94F60290E0BC016C197D0914
:10064000072E000C880B990B0E94920A20E030E0E4
:1006500048EC52E40E944D0B20E030E04EEF52E4B3
:100660000E94E80928EB3EE145E85FE30E944D0B5C
:100670000E945A0A6C398FEF780714F46CE97FEF07
:10068000CB016536710514F084E690E0FF90EF90A1
:10069000DF90CF900895CF92DF92EF92FF926B019F
:1006A0007C0185E090E00E94F60290E0BC016E19AA
:1006B0007F09072E000C880B990B0E94920A20E0FC
:1006C00030E048EC52E40E944D0B20E030E04EEF69
:1006D00052E40E94E8092CE53FE842E85FE30E940B
:1006E0004D0B0E945A0A6C398FEF780714F46CE9AD
:1006F0007FEFCB016536710514F084E690E0FF9042
:10070000EF90DF90CF900895009771F081309105C0
:1007100071F08230910571F08330910571F004978A
:1007200079F083E192E0089589E092E008958BE00A
:1007300092E008958DE092E008958FE092E00895B0
:1007400081E192E00895CF92DF92EF92FF92CF93F2
:10075000DF93EC01072E000C880B990B0E94920A84
:100760006B017C01BE010D2E000C880B990B0E94C1
:10077000920A9B01AC01C701B6010E94E8090E94E0
:10078000B90920E030E044E353E40E944D0B2BED27
:100790003FE049E450E40E94E8090E945A0A9B01A4
:1007A000DD2314F42C543F4F332314F428593E4FC7
:1007B000C901DF91CF91FF90EF90DF90CF90089526
:1007C0009C01215B3F4F2F39310530F49B01215BA8
:1007D0003F4F2F393105E8F00E94A3039C012B53B2
:1007E00031402E323105C0F08E329105C0F0235FCA
:1007F0003E4F29353105B0F0295531092B353105EA
:10080000A0F0825E91098935910590F080E090E03A
:10081000089580E090E0089581E090E0089581E0FF
:1008200090E0089583E090E0089582E090E00895DC
:1008300084E090E0089586E090E00E94F602682F40
:1008400070E080E090E00E94900A20E030E048EC08
:1008500052E40E944D0B20E030E04FE753E40E9449
:10086000E8090E945A0ACB01089587E090E00E94AF
:10087000F602682F70E080E090E00E94900A20E08D
:1008800030E048EC52E40E944D0B20E030E04FE7AE
:1008900053E40E94E8090E945A0ACB01089586B3E6
:1008A000817090E0089586B38695817090E00895F8
:1008B00086B38695869591E08927817090E00895AA
:1008C000E0910201F09103018083089520910001DD
:1008D00030910101820F931FFC016083089590E025
:1008E000FC01EE0FFF1FEE0FFF1FEE0FFF1FE25682
:1008F000F040880F991F880F991F880F991F8A55FC
:100900009040A0910001B091010124912C93319667
:10091000E817F907B1F70895EF92FF920F931F932D
:10092000CF93DF93EC0188818823D9F1219602EAE5
:1009300013E00F2EF1E2EF2EF02D0F2EFFE7FF2E2A
:10094000F02D8A3049F58091A2039091A30386305F
:10095000910529F41092A3031092A20305C00196F9
:100960009093A3038093A203E0910201F09103010D
:10097000D8018C9180558083E0910201F0910301B0
:10098000E082E0910201F09103011082E091020106
:10099000F0910301F08202C00E946F0489918111DD
:1009A000D0CFDF91CF911F910F91FF90EF900895DD
:1009B00028E030E050E840E00AC0E0910001F0910A
:1009C000010110820197C9F72150310919F0852FD3
:1009D000942FF3CF089530EB50E040E02FEFE091FB
:1009E0000201F09103013083852F942FE0910001E3
:1009F000F0910101E80FF91F2083019680389105DD
:100A0000A9F73F5F383B59F70895E0910201F09153
:100A100003018EEA8083E0910201F091030181EAF3
:100A20008083E0910201F09103018AED8083E091DF
:100A30000201F091030182E18083E0910201F091D3
:100A4000030188EC8083E0910201F091030188EAC0
:100A50008083E0910201F09103018FE38083E091B4
:100A60000201F091030185ED8083E0910201F09194
:100A7000030180E88083E0910201F091030181E8A5
:100A80008083E0910201F091030180E58083E09191
:100A90000201F091030189ED8083E0910201F09160
:100AA000030181E28083E0910201F091030190E271
:100AB0009083E0910201F09103011082E091020124
:100AC000F09103018083E0910201F0910301108213
:100AD000E0910201F09103018FE78083E091020130
:100AE000F091030182E28083E0910201F091030121
:100AF0001082E0910201F091030187E08083E09190
:100B00000201F09103018BED8083E0910201F091ED
:100B1000030180E38083E0910201F09103018DEAFB
:100B20008083E0910201F09103011082E0910201C3
:100B3000F091030184EA8083E0910201F0910301C6
:100B400086EA8083E0910201F09103018FEA8083BD
:100B50000895009721F19C0127703327232B69F416
:100B6000BC01992314F4695F7F4FCB01959587955C
:100B700095958795959587950895BC01072E000C4E
:100B8000880B990B0E94920A20E030E040E05EE37F
:100B90000E944D0B0E945A0ACB010196089581E0F4
:100BA00090E00895CF92DF92EF92FF920F931F9300
:100BB000CF93DF938C017B01813891050CF055C0F8
:100BC000613471050CF051C0CB010E94A905D82EEB
:100BD000C92EC70187709078992324F40197886FF4
:100BE0009F6F01960E94A905C2E0D0E0082E02C0C6
:100BF000CC0FDD1F0A94E2F7E0910201F0910301AE
:100C00002FEA2D0D20839F938F93CF92DF92FF9237
:100C1000EF921F930F9389E192E09F938F930E942D
:100C2000CB0CC80101972DB73EB7265F3F4F0FB6DB
:100C3000F8943EBF0FBE2DBF1816190674F420E0BD
:100C400030E0E0910001F0910101E20FF31F10820A
:100C50002F5F3F4F28173907A4F3209100013091EF
:100C60000101F901E80FF91FC083DF91CF911F91B6
:100C70000F91FF90EF90DF90CF9008954F925F9289
:100C80006F927F928F929F92AF92BF92CF92DF929C
:100C9000EF92FF920F931F93CF93DF93CDB7DEB701
:100CA0002C970FB6F894DEBF0FBECDBF89E392E05C
:100CB0009A8389838BE592E09C838B838DE792E016
:100CC0009E838D8380EA92E098878F8384ED92E003
:100CD0009A87898787EF92E09C878B870E94D80448
:100CE00089E392E00E948C040E9401036B017C0165
:100CF000A12CB12C0F2EF3E06F2E712CF02D0F2EA6
:100D0000F4E38F2EF2E09F2EF02D6894552451F8D5
:100D1000412CCAC0C701B6010E944B038C01C70118
:100D2000B6010E941203B8010E94E0030497D1F5B6
:100D3000C501B3010E9450099F938F939F928F9298
:100D40000E94CB0C8FEFA81AB80A0E94D804C501E4
:100D5000B3010E945009FC01EE0FFF1F81E090E0FB
:100D60008C0F9D1FE80FF91F808191810E948C04D8
:100D70000F900F900F900F9006C083ED90E30197B6
:100D8000F1F700C00000C701B6010E944B038C01BF
:100D9000C701B6010E941203B8010E94E003892B2B
:100DA00061F74EC0C701B6010E944B038C01C70119
:100DB000B6010E941203B8010E94E003039709F0F4
:100DC0003FC0C501B3010E9450099F938F939F922A
:100DD0008F920E94CB0C91E0A91AB1080F900F904E
:100DE0000F900F908FEFA816B80611F4A52CB42C15
:100DF0000E94D804C501B3010E945009FC01EE0F06
:100E0000FF1F81E090E08C0F9D1FE80FF91F80818C
:100E100091810E948C0406C083ED90E30197F1F765
:100E200000C00000C701B6010E944B038C01C7013E
:100E3000B6010E941203B8010E94E003892B61F7FA
:100E4000C701B6010E944B038C01C701B6010E9485
:100E50001203B8010E94E003019731F50E94D80403
:100E6000C501B3010E9450098C01FC01EE0FFF1F68
:100E700081E090E08C0F9D1FE80FF91F868197811C
:100E80000E948C040E945804892BE1F30E94D8042C
:100E9000000F111FE1E0F0E0EC0FFD1FE00FF11F6C
:100EA000808191810E948C040E945304892B09F453
:100EB00031CF0E94D8048DE193E00E948C042C96DF
:100EC0000FB6F894DEBF0FBECDBFDF91CF911F915B
:100ED0000F91FF90EF90DF90CF90BF90AF909F90D9
:100EE0008F907F906F905F904F90089580EB87BBBD
:100EF00081E18DB96E9A08958FB9779BFECF0895E1
:100F00008FEF0E947C078FB10895C4980895C49A0A
:100F10000895CF93C82F0E94850783E00E947C0725
:100F20008C2F0E947C070E948007C82F0E94870791
:100F30008C2FCF910895CF93DF93D82FC62F0E9487
:100F4000850782E00E947C078D2F0E947C078C2FF2
:100F50000E947C070E948707DF91CF910895CF936D
:100F6000C62F0E94890790E021E030E002C0220FE6
:100F7000331FCA95E2F782239323CF910895CF932D
:100F8000C82F0E9485078C2F80680E947C070E94D2
:100F90008707CF910895CF930E94850780EA0E942A
:100FA0007C070E948007C82F80E00E947C070E9477
:100FB00087078C2FCF9108950E94850780EC0E94AF
:100FC0007C070E94870708951F93CF93DF93D82F44
:100FD000162FC42F0E94850785E00E947C07812F71
:100FE0000E947C078D2F0E947C078C2F0E947C071B
:100FF0000E948707DF91CF911F9108950E94760785
:101000000E94DC0740E46FE080EE0E94E40740E6C7
:1010100060E680E60E94E40741E06BE281E00E9426
:10102000E4070895AF92BF92CF92DF92EF92FF92C2
:101030000F931F93CF93DF93CDB7DEB72B970FB6E8
:10104000F894DEBF0FBECDBFE982FA820B831C830A
:101050002D833E834F83588769877A878B87E98002
:10106000FA80B70176956795769567957695679539
:1010700081E30E949B074E2D4295440F407E62E320
:1010800080EE0E94E407402F65E38FE00E94E407B2
:101090008EE293E09F938F930E94CB0C0F900F9062
:1010A000002331F17E0124E0E20EF11CCE01800F1D
:1010B000911DFC0134965F0116E30F2EFBE3CF2E4A
:1010C000F3E0DF2EF02DF70101917F01602F812FDA
:1010D0000E949B071F920F93DF92CF920E94CB0C2E
:1010E0001F5F0F900F900F900F90EA14FB0459F7B9
:1010F00081E00E94BF072B960FB6F894DEBF0FBEAB
:10110000CDBFDF91CF911F910F91FF90EF90DF90B6
:10111000CF90BF90AF90089563E080E30E94AF0747
:1011200008956F927F928F929F92AF92BF92CF92CB
:10113000DF92EF92FF920F931F93CF93DF93CDB780
:10114000DEB72B970FB6F894DEBF0FBECDBF5C01A4
:1011500060E08CE20E94AF07892B09F46BC081E646
:101160000E948907E82E82E60E948907829586956B
:101170008770F12CEE0CFF1CEE0CFF1CEE0CFF1C1C
:10118000E82A6E2C7F2C85E60E948907082F0F70B5
:101190008E2D8295880F807E1F928F93F694E79410
:1011A000F694E794F694E794FF92EF9280E493E04C
:1011B0009F938F930E94CB0CE02EF12C1F920F93E4
:1011C00085E593E09F938F930E94CB0C80E793E09B
:1011D0009F938F930E94CB0C0FB6F894DEBF0FBE87
:1011E000CDBF1E141F0474F57E0134E0E30EF11C24
:1011F000CE01800F911DFC0134964F0116E60F2E93
:10120000FBE3CF2EF3E0DF2EF02D812F0E94890724
:10121000F70181937F011F928F93DF92CF920E94FB
:10122000CB0C1F5F0F900F900F900F90E814F904F4
:1012300061F708C08FE793E09F938F930E94CB0CD8
:101240000F900F908FE893E09F938F930E94CB0CA9
:1012500040E06BE281E00E94E40769827A820B83BE
:101260008BE0FE013196D50101900D928A95E1F750
:101270000F900F90C5012B960FB6F894DEBF0FBEEE
:10128000CDBFDF91CF911F910F91FF90EF90DF9035
:10129000CF90BF90AF909F908F907F906F90089568
:1012A00097FB072E16F4009407D077FD09D00E9413
:1012B000830907FC05D03EF4909581959F4F0895D2
:1012C000709561957F4F0895052E97FB1EF400944D
:1012D0000E947B0957FD07D00E94970907FC03D0A5
:1012E0004EF40C947B0950954095309521953F4FD5
:1012F0004F4F5F4F089590958095709561957F4F02
:101300008F4F9F4F0895AA1BBB1B51E107C0AA1F17
:10131000BB1FA617B70710F0A61BB70B881F991F96
:101320005A95A9F780959095BC01CD010895A1E249
:101330001A2EAA1BBB1BFD010DC0AA1FBB1FEE1F4F
:10134000FF1FA217B307E407F50720F0A21BB30B9A
:10135000E40BF50B661F771F881F991F1A9469F716
:1013600060957095809590959B01AC01BD01CF0172
:101370000895DF93DD27B92FBF7740E85FE31616A6
:10138000170648075B0718F4D92F0E94450B9F9357
:101390008F937F936F930E94BA0BE0E7F0E00E9477
:1013A000D60A0E940B0B2F913F914F915F910E94A3
:1013B000600BDD2351F09058A2EA2AED3FE049ECA2
:1013C0005FE3D0785D270E94CF0BDF910C940B0B6D
:1013D0000E94FC090C940B0B0E94040B58F00E9415
:1013E000FD0A40F029F45F3F29F00C94CD0A511119
:1013F0000C943F0B0C94D30A0E941C0B68F39923A6
:10140000B1F3552391F3951B550BBB27AA27621700
:101410007307840738F09F5F5F4F220F331F441F0D
:10142000AA1FA9F335D00E2E3AF0E0E832D0915041
:101430005040E695001CCAF72BD0FE2F29D0660F2E
:10144000771F881FBB1F261737074807AB07B0E871
:1014500009F0BB0B802DBF01FF2793585F4F3AF077
:101460009E3F510578F00C94CD0A0C943F0B5F3FE2
:10147000E4F3983ED4F3869577956795B795F795FD
:101480009F5FC9F7880F911D9695879597F90895E5
:10149000E1E0660F771F881FBB1F62177307840781
:1014A000BA0720F0621B730B840BBA0BEE1F88F790
:1014B000E09508950E94610A6894B1110C943F0B65
:1014C00008950E94240B88F09F5798F0B92F992710
:1014D000B751B0F0E1F0660F771F881F991F1AF01F
:1014E000BA95C9F714C0B13091F00E943E0BB1E03B
:1014F00008950C943E0B672F782F8827B85F39F03A
:10150000B93FCCF3869577956795B395D9F73EF4B7
:1015100090958095709561957F4F8F4F9F4F08955F
:10152000E89409C097FB3EF490958095709561957D
:101530007F4F8F4F9F4F9923A9F0F92F96E9BB2733
:101540009395F695879577956795B795F111F8CFAF
:10155000FAF4BB0F11F460FF1BC06F5F7F4F8F4F1A
:101560009F4F16C0882311F096E911C0772321F010
:101570009EE8872F762F05C0662371F096E8862FA8
:1015800070E060E02AF09A95660F771F881FDAF7FF
:10159000880F9695879597F9089597F99F6780E842
:1015A00070E060E008959FEF80EC0895DF93CF93A3
:1015B0001F930F93FF92EF92DF927B018C0168944F
:1015C00006C0DA2EEF010E94600BFE01E894A5919F
:1015D0002591359145915591A6F3EF010E94CF0BCE
:1015E000FE019701A801DA9469F7DF90EF90FF9070
:1015F0000F911F91CF91DF91089500240A94161640
:10160000170618060906089500240A9412161306F0
:10161000140605060895092E0394000C11F488237E
:1016200052F0BB0F40F4BF2B11F460FF04C06F5F9A
:101630007F4F8F4F9F4F089557FD9058440F551F70
:1016400059F05F3F71F04795880F97FB991F61F044
:101650009F3F79F087950895121613061406551FBB
:10166000F2CF4695F1DF08C0161617061806991F27
:10167000F1CF86957105610508940895E894BB271C
:1016800066277727CB0197F908959B01AC0160E0AD
:1016900070E080E89FE30C94E8090E94600B0C94D2
:1016A0000B0B0E94FD0A38F00E94040B20F09523DA
:1016B00011F00C94CD0A0C94D30A11240C943F0B16
:1016C0000E941C0B70F3959FC1F3950F50E0551FBE
:1016D000629FF001729FBB27F00DB11D639FAA2787
:1016E000F00DB11DAA1F649F6627B00DA11D661FD6
:1016F000829F2227B00DA11D621F739FB00DA11DF7
:10170000621F839FA00D611D221F749F3327A00DB0
:10171000611D231F849F600D211D822F762F6A2F4C
:1017200011249F5750409AF0F1F088234AF0EE0FB1
:10173000FF1FBB1F661F771F881F91505040A9F7DE
:101740009E3F510580F00C94CD0A0C943F0B5F3FF7
:10175000E4F3983ED4F3869577956795B795F7951A
:10176000E7959F5FC1F7FE2B880F911D9695879592
:1017700097F908959B01AC010C944D0B0E94FD0A52
:1017800038F00E94040B20F039F49F3F19F426F43E
:101790000C94D30A0EF4E095E7FB0C94CD0AE92FE4
:1017A0000E941C0B58F3BA1762077307840795074A
:1017B00020F079F4A6F50C943E0B0EF4E0950B2E78
:1017C000BA2FA02D0B01B90190010C01CA01A00193
:1017D0001124FF27591B99F0593F50F4503E68F1EE
:1017E0001A16F040A22F232F342F4427585FF3CF2F
:1017F000469537952795A795F0405395C9F77EF400
:101800001F16BA0B620B730B840BBAF09150A1F048
:10181000FF0FBB1F661F771F881FC2F70EC0BA0FCE
:10182000621F731F841F48F4879577956795B79556
:10183000F7959E3F08F0B0CF9395880F08F0992751
:10184000EE0F9795879508958F929F92AF92BF92D2
:10185000CF92DF92EF92FF92CF93DF93EC016881FA
:1018600079818A819B81611571058105910521F43A
:1018700064E279ED8BE597E02DE133EF41E050E054
:101880000E94640949015A019B01AC01A7EAB1E435
:101890000E94AF106B017C01ACEEB4EFA501940186
:1018A0000E94BD10DC01CB018C0D9D1DAE1DBF1D26
:1018B000B7FF03C00197A109B04888839983AA8321
:1018C000BB839F77DF91CF91FF90EF90DF90CF9018
:1018D000BF90AF909F908F9008950E94240C089520
:1018E00084E091E00E94240C0895A0E0B0E0809391
:1018F000040190930501A0930601B0930701089598
:101900000F931F93CF93DF93009731F46115710507
:1019100019F480E090E03AC08B01EC016EE070E0D9
:1019200081E090E00E94B30EFC01892B91F380E8E6
:1019300083830115110571F01387028781E8838382
:101940008091A4039091A503892B21F4F093A50322
:10195000E093A4032097C9F0D187C0878381826078
:1019600083838091A6039091A703892B71F4F09350
:10197000A703E093A6038091A8039091A903892B64
:1019800021F4F093A903E093A803CF01DF91CF9155
:101990001F910F910895A0E0B0E0E1EDFCE00C9400
:1019A000D210AE014B5F5F4FFA0161917191AF01AF
:1019B0008091A6039091A7030E94E10CE2E00C94B1
:1019C000EE10ACE0B0E0E7EEFCE00C94C2107C015D
:1019D0006B018A01FC0117821682838181FFBDC1E0
:1019E000CE0101964C01F7019381F60193FD85919B
:1019F00093FF81916F01882309F4ABC1853239F4DB
:101A000093FD859193FF81916F01853229F4B70190
:101A100090E00E941910E7CF512C312C20E02032A9
:101A2000A0F48B3269F030F4803259F0833269F4DB
:101A300020612CC08D3239F0803339F4216026C00A
:101A40002260246023C0286021C027FD27C030ED1C
:101A5000380F3A3078F426FF06C0FAE05F9E300D6A
:101A60001124532E13C08AE0389E300D1124332EDA
:101A700020620CC08E3221F426FD6BC1206406C0AA
:101A80008C3611F4206802C0883641F4F60193FDCB
:101A9000859193FF81916F018111C1CF982F9F7D17
:101AA0009554933028F40C5F1F4FFFE3F9830DC06A
:101AB000833631F0833771F0833509F05BC022C083
:101AC000F801808189830E5F1F4F44244394512C79
:101AD000540115C03801F2E06F0E711CF801A080AE
:101AE000B18026FF03C0652D70E002C06FEF7FEF6D
:101AF000C5012C870E940E102C0183012C852F77A5
:101B0000222E17C03801F2E06F0E711CF801A08080
:101B1000B18026FF03C0652D70E002C06FEF7FEF3C
:101B2000C5012C870E94FC0F2C012C852068222ED9
:101B3000830123FC1BC0832D90E048165906B0F4A6
:101B4000B70180E290E00E9419103A94F4CFF501B9
:101B500027FC859127FE81915F01B70190E00E94EB
:101B6000191031103A94F1E04F1A51084114510400
:101B700071F7E5C0843611F0893639F5F80127FF91
:101B800007C060817181828193810C5F1F4F08C003
:101B900060817181072E000C880B990B0E5F1F4F1F
:101BA0002F76722E97FF09C090958095709561955C
:101BB0007F4F8F4F9F4F2068722E2AE030E0A401A4
:101BC0000E945110A82EA81844C0853729F42F7EF2
:101BD000B22E2AE030E025C0F22FF97FBF2E8F36DB
:101BE000C1F018F4883579F0B4C0803719F088371F
:101BF00021F0AFC02F2F2061B22EB4FE0DC08B2D6F
:101C00008460B82E09C024FF0AC09F2F9660B92EA9
:101C100006C028E030E005C020E130E002C020E14D
:101C200032E0F801B7FE07C0608171818281938143
:101C30000C5F1F4F06C06081718180E090E00E5FF5
:101C40001F4FA4010E945110A82EA818FB2DFF774A
:101C50007F2E76FE0BC0372D3E7FA51450F474FE08
:101C60000AC072FC08C0372D3E7E05C0BA2C372D45
:101C700003C0BA2C01C0B52C34FF0DC0FE01EA0D23
:101C8000F11D8081803311F4397E09C032FF06C016
:101C9000B394B39404C0832F867809F0B39433FDD2
:101CA00013C030FF06C05A2CB31418F4530C5B1841
:101CB000B32CB31468F4B70180E290E03C870E9433
:101CC0001910B3943C85F5CFB31410F43B1801C040
:101CD000312C34FF12C0B70180E390E03C870E94B2
:101CE00019103C8532FF17C031FD03C088E790E032
:101CF00002C088E590E0B7010CC0832F867859F0C8
:101D000031FF02C08BE201C080E237FD8DE2B701F6
:101D100090E00E941910A51438F4B70180E390E018
:101D20000E9419105A94F7CFAA94F401EA0DF11DFC
:101D30008081B70190E00E941910A110F5CF3320E7
:101D400009F451CEB70180E290E00E9419103A9454
:101D5000F6CFF7018681978102C08FEF9FEF2C9617
:101D6000E2E10C94DE100F931F93CF93DF93869FD5
:101D70008001879F100D969F100D1124C8010E94AD
:101D8000CF0EEC01009729F0A80160E070E00E94FE
:101D90000710CE01DF91CF911F910F910895CF933E
:101DA000DF938230910510F482E090E0E091AC0383
:101DB000F091AD0320E030E0C0E0D0E0309711F1C9
:101DC0004081518148175907C0F04817590761F4FD
:101DD00082819381209719F09B838A832BC09093F3
:101DE000AD038093AC0326C02115310519F04217CD
:101DF000530718F49A01BE01DF01EF010280F3815D
:101E0000E02DDCCF2115310509F1281B390B2430D9
:101E1000310590F412968D919C911397611571057F
:101E200021F0FB019383828304C09093AD038093E0
:101E3000AC03FD01329644C0FD01E20FF31F819314
:101E40009193225031092D933C933AC02091AA03DB
:101E50003091AB03232B41F420910A0130910B0107
:101E60003093AB032093AA0320910801309109011C
:101E70002115310541F42DB73EB740910C01509129
:101E80000D01241B350BE091AA03F091AB03E2177F
:101E9000F307A0F42E1B3F0B2817390778F0AC018D
:101EA0004E5F5F4F2417350748F04E0F5F1F50936A
:101EB000AB034093AA038193919302C0E0E0F0E06A
:101EC000CF01DF91CF9108950F931F93CF93DF93AD
:101ED000009709F48CC0FC013297138212820091A2
:101EE000AC031091AD030115110581F420813181FE
:101EF000820F931F2091AA033091AB032817390753
:101F000079F5F093AB03E093AA0371C0D80140E0E8
:101F100050E0AE17BF0750F412962D913C911397E5
:101F2000AD012115310509F1D901F3CF9D01DA0188
:101F30003383228360817181860F971F82179307F5
:101F400069F4EC0128813981260F371F2E5F3F4F3E
:101F5000318320838A819B8193838283452B29F45B
:101F6000F093AD03E093AC0342C01396FC93EE9361
:101F70001297ED01499159919E01240F351FE217E7
:101F8000F30771F480819181840F951F0296119659
:101F90009C938E938281938113969C938E93129738
:101FA000E0E0F0E0D80112968D919C911397009794
:101FB00019F0F8018C01F6CF8D919C9198012E5F5C
:101FC0003F4F820F931F2091AA033091AB03281734
:101FD000390769F4309729F41092AD031092AC03DD
:101FE00002C0138212821093AB030093AA03DF9105
:101FF000CF911F910F910895FC01059061507040A1
:102000000110D8F7809590958E0F9F1F0895DC01E1
:1020100001C06D9341505040E0F70895FC016150BC
:10202000704001900110D8F7809590958E0F9F1FFA
:1020300008950F931F93CF93DF93FB01238121FD1D
:1020400003C08FEF9FEF28C022FF16C04681578143
:10205000248135814217530744F4A081B1819D0149
:102060002F5F3F4F318320838C93268137812F5FF1
:102070003F4F3783268310C0EB01092F182F0084B0
:10208000F185E02D0995892BE1F68E819F810196DE
:102090009F838E83812F902FDF91CF911F910F917E
:1020A0000895FA01AA27283051F1203181F1E894EE
:1020B0006F936E7F6E5F7F4F8F4F9F4FAF4FB1E03B
:1020C0003ED0B4E03CD0670F781F891F9A1FA11D36
:1020D000680F791F8A1F911DA11D6A0F711D811D37
:1020E000911DA11D20D009F468943F912AE0269FFC
:1020F00011243019305D3193DEF6CF010895462F5B
:102100004770405D4193B3E00FD0C9F7F6CF462F3B
:102110004F70405D4A3318F0495D31FD40524193A4
:1021200002D0A9F7EACFB4E0A69597958795779561
:102130006795BA95C9F700976105710508959B01E8
:10214000AC010A2E06945795479537952795BA9571
:10215000C9F7620F731F841F951FA01D08950E9469
:10216000F910A59F900DB49F900DA49F800D911D17
:1021700011240895B7FF0C94AF100E94AF10821B7A
:10218000930B08952F923F924F925F926F927F929E
:102190008F929F92AF92BF92CF92DF92EF92FF9277
:1021A0000F931F93CF93DF93CDB7DEB7CA1BDB0B23
:1021B0000FB6F894DEBF0FBECDBF09942A883988C8
:1021C00048885F846E847D848C849B84AA84B984CF
:1021D000C884DF80EE80FD800C811B81AA81B981DB
:1021E000CE0FD11D0FB6F894DEBF0FBECDBFED01EF
:1021F0000895A29FB001B39FC001A39F700D811DE0
:102200001124911DB29F700D811D1124911D0895FF
:04221000F894FFCF70
:1022140000120010010000000000AE03200048611D
:102224006C6C6F212100484549200A0D00537461EC
:102234007274696E67205352414D20746573742E15
:102244002E2E0A0D005772697465207068617365DB
:10225400206572726F723A206578745F72616D5B8B
:102264002534645D203D2025303258202873686F62
:10227400756C642062652025303258290A0D00529D
:10228400657472696576616C207068617365206538
:1022940072726F723A206578745F72616D5B253477
:1022A400645D203D2025303258202873686F756C9A
:1022B400642062652025303258290A0D00535241AA
:1022C4004D207465737420636F6D706C6574656400
:1022D4002077697468200A0D253464206572726F52
:1022E400727320696E2077726974652070686173F7
:1022F4006520616E64200A0D253464206572726F56
:10230400727320696E2072657472696576616C20DF
:1023140070686173650A0A0D0052004C0055004450
:10232400004E006572726F7200783A2025642C208A
:10233400793A2025642C206C696E653A2025642C3A
:1023440020613A2025640A0D000A2D3E666F7273DF
:1023540074650A2020616E6472650A2020747265B7
:10236400646A650A200A200A200A000A2020666F8F
:10237400727374650A2D3E616E6472650A2020745E
:102384007265646A650A200A200A200A000A20206D
:10239400666F727374650A2020616E6472650A2D1B
:1023A4003E747265646A650A200A200A200A2000C5
:1023B4000A204465747465206572206661656E0A3E
:1023C400206D6567200A20666F72737465200A2089
:1023D4006D656E79656C656D656E742120200A20CB
:1023E4000A200A000A206F696F69206572206465FB
:1023F4007474650A20616E6472653F3F200A200A86
:10240400200A200A200A000A20776F772064657466
:102414007465206572200A20747265646A65206A96
:102424006F20200A200A200A200A200A006D656E07
:102434007520657869740A0A0A0A0A0A0A0044615E
:1024440074612073656E64743A2000202564200052
:102454004944206D6F74746174743A202564202596
:1024640064200A0D0064617461206C656E676465A4
:10247400206D6F74746174743A202564200A0D0011
:1024840044617461206D6F74746174743A200075D2
:10249400676C65722069206D756666656E73000AE7
:1024A4000D2D2D2D2D2D2D2D2D2D2D0A0D0A0D3AF1
:0224B400200006
:00000001FF
