:100000000C9477030C9494030C9494030C94940331
:100010000C9494030C9494030C9494030C945A0A37
:100020000C9494030C9494030C9494030C949403F4
:100030000C9494030C9494030C9494030C949403E4
:100040000C9494030C9494030C9494030C949403D4
:100050000C9494030C9494030C9494030C949403C4
:100060000C9494030C9494030C9494030C949403B4
:10007000084AD73B3BCE016E84BCBFFDC12F3D6C0F
:1000800074319ABD56833DDA3D00C77F11BED9E475
:10009000BB4C3E916BAAAABE000000803F0000004E
:1000A0000000005C00000C000C007C287C2858DC60
:1000B00068002410480028542840000C00000078F4
:1000C00084008478000054385400107C1000804074
:1000D0000000101010000040000060100C003854A8
:1000E0003800487C40004864580044542C001C10E0
:1000F0007C005C5424003854240064140C006854C0
:100100002C004854380000480000804800001028A7
:1001100044002828280044281000045408003844CB
:100120005C00781478007C542800384428007C4413
:1001300038007C5444007C140400384474007C1063
:100140007C00447C440020403C007C106C007C40DF
:1001500040007C187C0078103C00384438007C1447
:1001600008003844B8007C14680048542400047C1B
:1001700004007C407C003C603C007C307C006C10C7
:100180006C000C700C0064544C00007C44000C109B
:100190006000447C000008040800808080000004A7
:1001A0000800304878007C4830003048480030482B
:1001B0007C00306850001078140090A878007C080B
:1001C000700050744000808074007C106800447C93
:1001D0004000781078007808700030483000F82827
:1001E00010003048F8007810080050582800083CEB
:1001F000480038407800384038007820780048308F
:10020000480098A078004868580010788400007C66
:1002100000008478100008040804000000000000BA
:10022000005F00000007000700147F147F14242AD9
:100230007F2A1223130864623649552250000503B1
:100240000000001C2241000041221C00082A1C2A38
:100250000808083E08080050300000080808080890
:10026000006060000020100804023E5149453E0035
:10027000427F400042615149462141454B311814AB
:10028000127F1027454545393C4A494930017109DB
:1002900005033649494936064949291E00363600C4
:1002A00000005636000000081422411414141414DF
:1002B00041221408000201510906324979413E7E6B
:1002C0001111117E7F494949363E414141227F410A
:1002D00041221C7F494949417F090901013E4141B1
:1002E00051327F0808087F00417F41002040413F94
:1002F000017F081422417F404040407F0204027F7A
:100300007F0408107F3E4141413E7F090909063EB6
:100310004151215E7F091929464649494931010168
:100320007F01013F4040403F1F2040201F7F201899
:10033000207F631408146303047804036151494562
:100340004300007F4141020408102041417F00002A
:100350000402010204404040404000010204002029
:10036000545454787F4844443838444444203844F2
:1003700044487F3854545418087E09010208145424
:10038000543C7F0804047800447D40002040443DF4
:1003900000007F10284400417F40007C041804784E
:1003A0007C0804047838444444387C141414080845
:1003B0001414187C7C080404084854545420043F46
:1003C0004440203C4040207C1C2040201C3C4030CD
:1003D000403C44281028440C5050503C4464544C39
:1003E00044000836410000007F000000413608004C
:1003F0000201030201000000000000000000065F8F
:100400005F060000000007070007070000147F7F59
:10041000147F7F1400242E6B6B3A12000046663066
:10042000180C666200307A4F5D377A480004070383
:100430000000000000001C3E63410000000041631A
:100440003E1C000000082A3E1C1C3E2A0808083EEC
:100450003E0808000000A0E0600000000008080856
:10046000080808000000006060000000006030180C
:100470000C060301003E7F594D7F3E000042427F43
:100480007F40400000627359496F66000022634953
:10049000497F360000181C16137F7F100027674520
:1004A000457D3900003C7E4B497930000003637183
:1004B000190F070000367F49497F360000064F4973
:1004C000693F1E000000006C6C0000000000A0EC02
:1004D0006C00000000081C36634100000014141476
:1004E0001414140000004163361C0800000203517C
:1004F000590F0600003E7F415D5D1F1E007C7E138C
:10050000137E7C0000417F7F49497F36001C3E639B
:100510004141632200417F7F41637F1C00417F7F17
:10052000495D416300417F7F491D0103001C3E631B
:1005300041517372007F7F08087F7F000000417F78
:100540007F41000000307040417F3F0100417F7FCC
:10055000081C776300417F7F41406070007F7F0609
:100560000C067F7F007F7F060C187F7F001C3E6398
:1005700041633E1C00417F7F49090F06001E3F2159
:10058000717F5E0000417F7F19396F460026674DFD
:10059000597B32000003417F7F410300007F7F4091
:1005A000407F7F00001F3F60603F1F00007F7F3063
:1005B00018307F7F0063771C081C776300074F7833
:1005C000784F0700006773594D47637100007F7FC4
:1005D00041410000000103060C1830600000414159
:1005E0007F7F000000080C0603060C080080808056
:1005F0008080808080000003070400000020745485
:10060000543C784000413F7F44447C3800387C446F
:10061000446C280000307848493F7F4000387C54C3
:10062000545C180000487E7F490302000098BCA477
:10063000A4F87C0400417F7F08047C780000447D9E
:100640007D4000000040C484FD7D000000417F7FAC
:1006500010386C440000417F7F400000007C7C0C1F
:10066000180C7C78007C7C04047C780000387C4486
:10067000447C38000084FCF8A4243C1800183C2476
:10068000A4F8FC8400447C78441C180000485C54A6
:10069000547424000000043E7F442400003C7C404D
:1006A000403C7C40001C3C60603C1C00003C7C608A
:1006B00030607C3C00446C3810386C44009CBCA01A
:1006C000A0FC7C00004C64745C4C64000008083E94
:1006D000774141000000000077770000004141773A
:1006E0003E08080000020301030203010000112478
:1006F0001FBECFEFD4E0DEBFCDBF12E0A0E0B1E07F
:10070000EAE8F2E302C005900D92A23EB107D9F7E4
:1007100022E0A2EEB2E001C01D92A83FB207E1F7CD
:100720000E9496030C9443190C94000080E895E213
:100730000E94E9030E9415040E9425040E940A09F0
:100740000E9449078AE091E09F938F930E941815B9
:100750000E941C070E94C90C0F900F90C0E2D1E0CC
:100760000E945005D82EC92E85E090E00E941A0400
:10077000E82E0E949404082FF92E84E090E00E9455
:100780001A04182F0E943804CF92DF921F92EF9222
:10079000FF920F931F921F939F938F93DF93CF939B
:1007A0000E9418158DB79EB70C960FB6F8949EBF91
:1007B0000FBE8DBFD5CF5D9BFECF8CB980E090E0A2
:1007C00008955F9B03C08CB190E0089580E090E0B5
:1007D000089582959295907F9827807F98279C0115
:1007E00040E050E060E070E08BE490E00E94D611C1
:1007F000CA01B90161507109810991090E947113FF
:100800002AE939E949E15EE30E942C140E94391378
:1008100070BD69B988E18AB98EE880BD61EE73E088
:100820008BED93E00E94CD14089580E885BF80E2AF
:1008300080BF0895E0E0F4E1808387E893E10197C9
:10084000F1F700C000008081089584E090E00E94EC
:100850001A0490E09093ED028093EC0285E090E022
:100860000E941A0490E09093EB028093EA020895AC
:10087000CF92DF92EF92FF92CF93DF9384E090E0EC
:100880000E941A04C091EC02D091ED02682F70E032
:1008900080E090E00E946F136B017C01BE01DD0FD0
:1008A000880B990B0E9471139B01AC01C701B60123
:1008B0000E942B120E94391377237CF0072E000C24
:1008C000880B990B0E94711324EA30E74DE35FE334
:1008D0000E94C7120E9439130EC0072E000C880B0D
:1008E000990B0E94711323E333E343EB5FE30E9410
:1008F000C7120E943913CB010496099710F460E0E7
:1009000070E06C398FEF780714F46CE97FEFCB015E
:100910006536710514F084E690E0DF91CF91FF9089
:10092000EF90DF90CF900895CF92DF92EF92FF92F9
:10093000CF93DF9385E090E00E941A04C091EA0211
:10094000D091EB02682F70E080E090E00E946F137E
:100950006B017C01BE01DD0F880B990B0E947113A6
:100960009B01AC01C701B6010E942B120E943913F2
:1009700077237CF0072E000C880B990B0E947113D3
:1009800028EB3EE145E45FE30E94C7120E94391361
:100990000EC0072E000C880B990B0E94711323E3E5
:1009A00033E343EB5FE30E94C7120E943913CB018C
:1009B0000496099710F460E070E06C398FEF7807C7
:1009C00014F46CE97FEFCB016536710514F084E611
:1009D00090E0DF91CF91FF90EF90DF90CF9008955E
:1009E000009771F08130910571F08230910571F0BE
:1009F0008330910571F0049779F089E691E00895CC
:100A00008FE591E0089581E691E0089583E691E015
:100A1000089585E691E0089587E691E00895CF92E4
:100A2000DF92EF92FF92CF93DF930E943804EC01A4
:100A30000E949404BC01990F880B990B0E947113BA
:100A40006B017C01BE010D2E000C880B990B0E94DE
:100A500071139B01AC01C701B6010E94C7120E942D
:100A6000981220E030E044E353E40E942C142BED74
:100A70003FE049E450E40E94C7120E9439139B01F1
:100A8000DD2314F42C543F4F332314F428593E4FE4
:100A9000C901DF91CF91FF90EF90DF90CF90089543
:100AA000CF93DF930E943804EC010E9494049E01CE
:100AB000215B3F4F2F39310530F49C01215B3F4FC3
:100AC0002F393105F8F0BC01CE010E940F059C01C1
:100AD0002B5331402E323105C0F08E329105C0F0DB
:100AE000235F3E4F29353105B0F0295531092B35AB
:100AF0003105A0F0825E91098935910590F080E082
:100B000090E011C080E090E00EC081E090E00BC06A
:100B100081E090E008C083E090E005C082E090E0D2
:100B200002C084E090E0DF91CF91089586E090E0EC
:100B30000E941A04682F70E080E090E00E946F131A
:100B400020E030E048EC52E40E942C1420E030E039
:100B50004FE753E40E94C7120E943913CB01089556
:100B600087E090E00E941A04682F70E080E090E037
:100B70000E946F1320E030E048EC52E40E942C14F5
:100B800020E030E04FE753E40E94C7120E9439137F
:100B9000CB01089586B3817090E0089586B3869561
:100BA000817090E0089586B38695869591E08927B7
:100BB000817090E00895E0910201F091030180833B
:100BC00008952091000130910101820F931FFC01D3
:100BD0006083089590E0FC01EE0FFF1FEE0FFF1FF2
:100BE000EE0FFF1FEB50FD4F880F991F880F991FC5
:100BF000880F991F83509D4FA0910001B091010172
:100C000024912C933196E817F907B1F708956530D0
:100C100019F1683021F0643009F070C048C090E0EC
:100C2000FC01EE0FFF1FEE0FFF1FEE0FFF1FEB503B
:100C3000FD4F880F991F880F991F880F991F8350A8
:100C40009D4FA0910001B091010124912C93319608
:100C5000E817F907B1F7089590E09C01220F331FC0
:100C6000220F331F820F931F20E030E0805A91093A
:100C7000A0910001B0910101FC01E20FF31FE65EBB
:100C8000FD4FE491EC932F5F3F4F2530310581F705
:100C9000EAE1F2E02DE132E0A0910001B091010122
:100CA00084918C933196E217F307B1F7089590E0A1
:100CB000880F991F880F991F20E030E08058910914
:100CC000A0910001B0910101FC01E20FF31FE25677
:100CD000FF4FE491EC932F5F3F4F2430310581F7B4
:100CE000EAE1F2E02EE132E0A0910001B0910101D1
:100CF00084918C933196E217F307B1F70895EF9240
:100D0000FF920F931F93CF93DF93EC018881882389
:100D1000E1F1219602EE12E00F2EF1E2EF2EF02D1E
:100D20000F2EFFE7FF2EF02D8A3049F58091E20269
:100D30009091E3028630910529F41092E30210921B
:100D4000E20205C001969093E3028093E202E091F3
:100D50000201F0910301D8018C9180558083E091CC
:100D60000201F0910301E082E0910201F0910301A0
:100D70001082E0910201F0910301F08203C065E06E
:100D80000E94070689918111CFCFDF91CF911F91EA
:100D90000F91FF90EF900895DF92EF92FF920F93E3
:100DA0001F93CF93DF93EC0188818823E9F1F62E1E
:100DB000219602EE12E00F2EF1E2DF2EF02D0F2E23
:100DC000FFE7EF2EF02D8A3049F58091E2029091F5
:100DD000E3028630910529F41092E3021092E202B8
:100DE00005C001969093E3028093E202E091020134
:100DF000F0910301D8018C9180558083E09102012C
:100E0000F0910301D082E0910201F0910301108280
:100E1000E0910201F0910301E08203C06F2D0E9476
:100E2000070689918111CFCFDF91CF911F910F914B
:100E3000FF90EF90DF90089528E030E050E840E028
:100E40000AC0E0910001F091010110820197C9F7F9
:100E50002150310919F0852F942FF3CF089530EBED
:100E600050E040E02FEFE0910201F0910301308368
:100E7000852F942FE0910001F0910101E80FF91FF7
:100E80002083019680389105A9F73F5F383B59F7D9
:100E90000895E0910201F09103018EEA8083E091D0
:100EA0000201F091030181EA8083E0910201F09157
:100EB00003018AED8083E0910201F091030182E158
:100EC0008083E0910201F091030188EC8083E0913E
:100ED0000201F091030188EA8083E0910201F09120
:100EE00003018FE38083E0910201F091030185ED1E
:100EF0008083E0910201F091030180E88083E0911A
:100F00000201F091030181E88083E0910201F091F8
:100F1000030180E58083E0910201F091030189EDF6
:100F20008083E0910201F091030181E28083E091EE
:100F30000201F091030190E29083E0910201F091AF
:100F400003011082E0910201F09103018083E0919E
:100F50000201F09103011082E0910201F09103017E
:100F60008FE78083E0910201F091030182E28083A8
:100F7000E0910201F09103011082E0910201F091F1
:100F8000030187E08083E0910201F09103018BED82
:100F90008083E0910201F091030180E38083E0917E
:100FA0000201F09103018DEA8083E0910201F0914A
:100FB00003011082E0910201F091030184EA808331
:100FC000E0910201F091030186EA8083E091020141
:100FD000F09103018FEA80830895009721F19C012D
:100FE00027703327232B69F4BC01992314F4695F1C
:100FF0007F4FCB0195958795959587959595879585
:101000000895BC01072E000C880B990B0E947113E8
:1010100020E030E040E05EE30E942C140E9439138F
:10102000CB010196089581E090E00895CF92DF9280
:10103000EF92FF920F931F93CF93DF938C017B016D
:10104000813891050CF055C0613471050CF051C028
:10105000CB010E94ED07D82EC92EC701877090786A
:10106000992324F40197886F9F6F01960E94ED07E2
:10107000C2E0D0E0082E02C0CC0FDD1F0A94E2F7D8
:10108000E0910201F09103012FEA2D0D20839F933F
:101090008F93CF92DF92FF92EF921F930F938FE681
:1010A00091E09F938F930E941815C80101972DB767
:1010B0003EB7265F3F4F0FB6F8943EBF0FBE2DBF21
:1010C0001816190674F420E030E0E0910001F09168
:1010D0000101E20FF31F10822F5F3F4F28173907DE
:1010E000A4F32091000130910101F901E80FF91FEB
:1010F000C083DF91CF911F910F91FF90EF90DF9010
:10110000CF90089580EB87BB81E18DB96E9A0895E9
:101110008FB9779BFECF08958FEF0E9488088FB11B
:101120000895C4980895C49A0895CF93C82F0E9433
:10113000910883E00E9488088C2F0E9488080E94F2
:101140008C08C82F0E9493088C2FCF910895CF93BD
:10115000DF93D82FC62F0E94910882E00E94880852
:101160008D2F0E9488088C2F0E9488080E94930867
:10117000DF91CF910895CF93C62F0E94950890E0FC
:1011800021E030E002C0220F331FCA95E2F782232C
:101190009323CF910895CF93C82F0E9491088C2F4D
:1011A00080680E9488080E949308CF910895CF9389
:1011B0000E94910880EA0E9488080E948C08C82F2B
:1011C00080E00E9488080E9493088C2FCF91089598
:1011D0000E94910880EC0E9488080E94930808955C
:1011E0001F93CF93DF93D82F162FC42F0E949108FF
:1011F00085E00E948808812F0E9488088D2F0E9418
:1012000088088C2F0E9488080E949308DF91CF9154
:101210001F9108950E9482080E94E80840E06FE054
:1012200080EE0E94F00840E660E680E60E94F0084A
:1012300041E06BE281E00E94F0080895CF92DF92D6
:10124000EF92FF920F931F93CF93DF93CDB7DEB74B
:101250002B970FB6F894DEBF0FBECDBFE982FA829E
:101260000B831C832D833E834F83588769877A873E
:101270008B87E980FA80B7017695679576956795B3
:101280007695679581E30E94A7084E2D4295440FFD
:10129000407E62E380EE0E94F008402F65E38FE01D
:1012A0000E94F0080023A9F07E0124E0E20EF11C68
:1012B000CE01800F911DFC0134966F0116E3F701FA
:1012C00061917F01812F0E94A7081F5FEC14FD042C
:1012D000B1F781E00E94CB082B960FB6F894DEBFE1
:1012E0000FBECDBFDF91CF911F910F91FF90EF9077
:1012F000DF90CF90089563E080E30E94BB080895DB
:1013000060E08CE20E94BB0808958F929F92AF929A
:10131000BF92CF92DF92EF92FF920F931F93CF93E2
:10132000DF93CDB7DEB72B970FB6F894DEBF0FBEB5
:10133000CDBF4C0160E08CE20E94BB08892B99F183
:1013400081E60E949508A82E82E60E949508829563
:1013500086958770B12CAA0CBB1CAA0CBB1CAA0CCE
:10136000BB1CA82A85E60E949508082F0F70A9F0DB
:101370007E0184E0E80EF11C9E01200F311DF90171
:1013800034966F0116E6812F0E949508F70181932C
:101390007F011F5FEC15FD05B1F740E06CE283E0D3
:1013A0000E94F00808C08FE891E09F938F930E94FD
:1013B00018150F900F90BA82A9820B838BE0FE0163
:1013C0003196D40101900D928A95E1F7C4012B96D4
:1013D0000FB6F894DEBF0FBECDBFDF91CF911F9146
:1013E0000F91FF90EF90DF90CF90BF90AF909F90C4
:1013F0008F900895EF92FF920F931F93CF93DF93F7
:10140000CDB7DEB72B970FB6F894DEBF0FBECDBFBA
:1014100081E090E09A83898387E08B8384E090E089
:101420000E941A048C8385E090E00E941A048D8348
:101430000E94D3058E830E9496058F830E94B0057B
:1014400088870E94CA0589870E94CE05E980FA80B4
:101450000B811C812D813E814F8158856985782FB4
:101460008B850E941E092B960FB6F894DEBF0FBE27
:10147000CDBFDF91CF911F910F91FF90EF90089515
:10148000EDE7F0E0808184618083EBE8F0E080812B
:101490008064808380E398E890938700809386003F
:1014A000EAE8F0E080818A608083109289001092DF
:1014B000880008951F920F920FB60F921124EF9299
:1014C000FF920F931F932F933F934F935F936F93CD
:1014D0007F938F939F93AF93BF93EF93FF93CF939C
:1014E000DF93CDB7DEB72B97DEBFCDBF81E0E82E0F
:1014F000F12C07E01C812D813E814F815885698543
:101500007A858B850E941E092B960FB6F894DEBF54
:101510000FBECDBFDF91CF91FF91EF91BF91AF9102
:101520009F918F917F916F915F914F913F912F91FB
:101530001F910F91FF90EF900F900FBE0F901F9093
:1015400018950F931F93CF93DF93CDB7DEB7CC578A
:10155000D1090FB6F894DEBF0FBECDBF04EE12E086
:101560004AE0BE016F5F7F4FF801808191810E9448
:10157000A8144AE0BE01675F7F4FF8018281938122
:101580000E94A8144AE0BE016F5E7F4FF80184817B
:1015900095810E94A8148E01075E1F4F81E39EE291
:1015A000A0E2B0E0898F9A8FAB8FBC8FBE016F5FD6
:1015B0007F4FC8010E949D14D8010D900020E9F7CB
:1015C000119785E0EBEAF1E001900D928A95E1F741
:1015D000BE01675F7F4FC8010E949D14D8010D9026
:1015E0000020E9F7119785E0E0EBF1E001900D9222
:1015F0008A95E1F7BE016F5E7F4FC8010E949D147E
:10160000F80101900020E9F731978AE09AE0A0E024
:1016100080839183A283C801C458DF4F0FB6F8942A
:10162000DEBF0FBECDBFDF91CF911F910F91089507
:101630008F929F92AF92BF92CF92DF92EF92FF92E2
:101640000F931F93CF93DF93CDB7DEB760970FB69D
:10165000F894DEBF0FBECDBFA982BA82CB82DC82F6
:10166000ED82FE820F83188729873A874B875C8734
:101670006D877E878F87988BCF84D88868E070E0ED
:101680008D859E850E94CC0685EB91E00E947F06A9
:101690000B811C810115110599F15E0185E0A80EF1
:1016A000B11CE12CF12CE814F90449F4EFEFCE164B
:1016B000DE0659F089EB91E00E947F0606C0DD202E
:1016C00024F08CEB91E00E947F06F80184859585DB
:1016D0000E947F0684EC92E00E947F06FFEFEF1AE3
:1016E000FF0AF501019111915F0101151105D9F66C
:1016F00006E010E00E191F090130110519F40EC0A3
:1017000006E010E0CD20C09449F084EC92E00E9405
:101710007F060150110901301105B9F760960FB627
:10172000F894DEBF0FBECDBFDF91CF911F910F9117
:10173000FF90EF90DF90CF90BF90AF909F908F90F1
:101740000895CF93DF9300D000D000D0CDB7DEB79F
:101750002091E4023091E502281739075CF43C83BC
:101760002B832091E6023091E7023E832D839A83FA
:1017700089831BC04091E6025091E7024817590740
:101780003CF43A8329835E834D839C838B830DC015
:101790006091E8027091E90268177907A4F43A832E
:1017A00029835C834B839E838D83E4EEF2E0898101
:1017B0009A81918380838B819C81938382838D81A5
:1017C0009E819583848326960FB6F894DEBF0FBE64
:1017D000CDBFDF91CF910895CF93DF93CDB7DEB723
:1017E000C956D1090FB6F894DEBF0FBECDBF4AE08F
:1017F000BE016F5F7F4F0E94A81488E0EFEBF1E01D
:10180000DE01169601900D928A95E1F7BE016F5F99
:101810007F4FCE0106960E949D14CE010696C759B1
:10182000DF4F0FB6F894DEBF0FBECDBFDF91CF9173
:101830000895AF92BF92CF92DF92EF92FF920F93F3
:101840001F93CF93DF93CDB7DEB7E2970FB6F8942F
:10185000DEBF0FBECDBF8E010F5F1F4F82E3F801C9
:1018600011928A95E9F785EC92E09A8389839C83AB
:101870008B839E838D8398878F839A8789879C87A4
:101880008B879E878D8727EC31E0388B2F8723ED60
:1018900031E03A8B298B2AED31E03C8B2B8B28EE03
:1018A00031E03E8B2D8B2CEE31E0388F2F8B9A8FD1
:1018B000898F9C8F8B8F9E8F8D8F98A38F8F9AA3EC
:1018C00089A39CA38BA39EA38DA398A78FA39AA75C
:1018D00089A70E94250468015E01FBE1AF0EB11CDF
:1018E0002BC068E070E0F801819191918F010E9416
:1018F000CC0684EC92E00E947F060E151F0589F746
:101900000E945005892B39F08FE493EC0197F1F791
:1019100000C0000009C09FE7EAE1F6E09150E04016
:10192000F040E1F700C000000E941C0722E0C20E58
:10193000D11CCA14DB0431F076018EE0E80EF11CF4
:101940008601CFCF0E941C0768E070E088EF91E02D
:101950000E94CC0665E070E088E092E00E94CC0630
:101960000E94D305892BE1F30E94D305892BE1F76F
:10197000E2960FB6F894DEBF0FBECDBFDF91CF91D8
:101980001F910F91FF90EF90DF90CF90BF90AF909D
:101990000895CF93DF93CDB7DEB7CB5AD1090FB6F9
:1019A000F894DEBF0FBECDBF0E94190C3E0121E5A9
:1019B000620E711CCE0101962C01F301918380838C
:1019C00080969383828340979583848382E090E01E
:1019D000978786878CE292E0958784877A8A698ADE
:1019E0001C8A1B8A86E392E09E8F8D8F7AA269A261
:1019F0008DE392E09EA78DA7A3965FAE4EAEA39710
:101A00001E01F1E42F0E311CA5963FAE2EAEA59718
:101A10000FEF1FEFE1961FAF0EAFE19784E492E066
:101A2000AF969FAF8EAFAF970E94A10A21E630E03C
:101A30002C0F3D1FF10131832083138212821787FF
:101A4000068795878487F09651824082CE01C196A1
:101A5000938382831787068780E592E09587848742
:101A6000FAABE9AB1CAA1BAA21961FAF0EAF2197B8
:101A700088E592E09EAF8DAF1A8219827C826B82DC
:101A80003E832D83F887EF8387E992E09E878D87D9
:101A900083E090E0988B8F870E941C07812C912C0B
:101AA000A980BA80CB80DC80ED80FE800F81188514
:101AB00029853A854B855C856D857E858F859889DE
:101AC0000E94180B80E1F201DE01AF57BF4F019079
:101AD0000D928A95E1F769807A808D859E85C9553A
:101AE000DF4F99838883C75AD0404F845888312C60
:101AF00092E0C655DF4F9883CA5AD040C555DF4F94
:101B00001882CB5AD0406894222424F8C655DF4F5F
:101B1000E881CA5AD040CF56DF4FE883C159D04040
:101B2000C555DF4FF881CB5AD040CE56DF4FF883F2
:101B3000C259D04026E0CD56DF4F2883C359D0404C
:101B400031E0CC56DF4F3883C459D0400E94500555
:101B5000039709F07FC0332009F47CC08FEF48164B
:101B6000580609F477C00E941C073A94A62CCF5758
:101B7000DF4F79826882C158D040C955DF4FE88174
:101B8000C75AD040C955DF4F28813981C75AD04044
:101B9000C357DF4F39832883CD58D040C157DF4F1B
:101BA00059824882CF58D040832D90E0B2010E94E4
:101BB000C2114C01CE57DF4FB880C258D040CD572C
:101BC000DF4FC880C358D040CC57DF4FD880C458AF
:101BD000D040CB57DF4FE880C558D040CA57DF4FC1
:101BE000F880C658D040C957DF4F0881C758D04049
:101BF000C857DF4F1881C858D040C757DF4F2881DA
:101C0000C958D040C657DF4F3881CA58D040C55751
:101C1000DF4F4881CB58D040C457DF4F5881CC5854
:101C2000D0406E2FC257DF4F7881CE58D040842DE0
:101C3000C057DF4F9881C059D0400E94180B06C092
:101C400083ED90E30197F1F700C000000E9450057A
:101C5000892BB1F70E945005049709F085C0832DA8
:101C600090E09201215031098217930709F47CC05A
:101C700091E04916510409F47FC30E941C07339474
:101C8000A62CCF57DF4F79826882C158D040C95502
:101C9000DF4FE881C75AD040C955DF4F28813981CD
:101CA000C75AD040C357DF4F39832883CD58D0401F
:101CB000C157DF4F59824882CF58D040832D90E0E2
:101CC000B2010E94C2114C01CE57DF4FB880C258FA
:101CD000D040CD57DF4FC880C358D040CC57DF4FDE
:101CE000D880C458D040CB57DF4FE880C558D0408B
:101CF000CA57DF4FF880C658D040C957DF4F088118
:101D0000C758D040C857DF4F1881C858D040C75770
:101D1000DF4F2881C958D040C657DF4F3881CA5895
:101D2000D040C557DF4F4881CB58D040C457DF4F14
:101D30005881CC58D0406E2FC257DF4F7881CE5893
:101D4000D040842DC057DF4F9881C059D0400E94A9
:101D5000180B06C083ED90E30197F1F700C0000077
:101D60000E945005892BB1F70E945005019709F098
:101D70005EC29FEF4916590609F459C20E941C071A
:101D8000E32DF0E03196EE0FFF1F21E830E02C0F3D
:101D90003D1FE20FF31F80819181FC01D901222DAB
:101DA00001900D922A95E1F7FC01608071802485F5
:101DB0003585C955DF4F39832883C75AD0404684BB
:101DC000578488248394912CA980BA80CB80DC80AE
:101DD000ED80FE800F81188529853A854B855C85CD
:101DE0006D857E858F8598890E94180BC955DF4FB8
:101DF00088819981C75AD0408653924009F0D3C058
:101E000082E5CC56DF4F8883C459D0400E941C071E
:101E1000CF56DF4FE880C159D040CE56DF4FF88013
:101E2000C259D040CD56DF4F0881C359D040CC565F
:101E3000DF4F1881C459D040CB56DF4F2881C55998
:101E4000D040CA56DF4F3881C659D040C956DF4FFF
:101E50004881C759D040C856DF4F5881C859D04033
:101E6000C756DF4F6881C959D040C656DF4F7881C9
:101E7000CA59D040C556DF4F8881CB59D0400E9407
:101E80001E0981EA92E00E947F060E94FA0982E020
:101E900090E00E94EC0B6894AA24A1F8B12C19C020
:101EA0000E94FA09F2E0AF0EB11CC5010E94EC0BD2
:101EB0003C01C50164E670E00E94C211892B49F41F
:101EC0000E941C07C3010E947F068EEB92E00E94D5
:101ED0007F060E948009892B19F3CC56DF4F1882A8
:101EE000C459D040CF56DF4FE880C159D040CE56BC
:101EF000DF4FF880C259D040CD56DF4F0881C3591B
:101F0000D04010E0CB56DF4F2881C559D040CA568B
:101F1000DF4F3881C659D040C956DF4F4881C75975
:101F2000D040C856DF4F5881C859D040C756DF4F00
:101F30006881C959D040C656DF4F7881CA59D04010
:101F4000C556DF4F8881CB59D0400E941E09CE0173
:101F500084569F4F0E948509C5010E94A10B0E94D3
:101F6000A10A2F969FAF8EAF2F97FE01EF59FF4F1B
:101F7000DE01AF57BF4F822D01900D928A95E1F798
:101F8000A3966EAC7FACA397AF962EAD3FADAF9747
:101F9000C955DF4F39832883C75AD040E1964EACEC
:101FA0005FACE197D2C0C955DF4F88819981C75A8C
:101FB000D0408D53924009F0C8C0CF56DF4FE88023
:101FC000C159D040CE56DF4FF880C259D040CD56CF
:101FD000DF4F0881C359D04015E4CB56DF4F28812D
:101FE000C559D040CA56DF4F3881C659D040C9566E
:101FF000DF4F4881C759D040C856DF4F5881C85974
:10200000D040C756DF4F6881C959D040C656DF4F10
:102010007881CA59D040C556DF4F8881CB59D0400E
:102020000E941E090E941C0786EC92E00E947F0617
:102030000E94FA0982E090E00E94EC0B6894AA24C6
:10204000A1F8B12C19C00E94FA09F2E0AF0EB11C40
:10205000C5010E94EC0B3C01C50164E670E00E94E2
:10206000C211892B49F40E941C07C3010E947F06FC
:102070008EEB92E00E947F060E948009892B19F363
:10208000CC56DF4F1882C459D040CF56DF4FE8807E
:10209000C159D040CE56DF4FF880C259D040CD56FE
:1020A000DF4F0881C359D04010E0CB56DF4F288165
:1020B000C559D040CA56DF4F3881C659D040C9569D
:1020C000DF4F4881C759D040C856DF4F5881C859A3
:1020D000D040C756DF4F6881C959D040C656DF4F40
:1020E0007881CA59D040C556DF4F8881CB59D0403E
:1020F0000E941E09CE0184569F4F0E948509C5018A
:102100000E94A10B0E94A10A2F969FAF8EAF2F971E
:10211000FE01EF59FF4FDE01AF57BF4F822D0190F7
:102120000D928A95E1F7A3966EAC7FACA397AF961C
:102130002EAD3FADAF97C955DF4F39832883C75ABE
:10214000D040E1964EAC5FACE1970E941C07A62CF4
:10215000CF57DF4F79826882C158D040C955DF4FD1
:102160006881C75AD040C955DF4F88819981C75AC5
:10217000D040C357DF4F99838883CD58D040C15793
:10218000DF4F59824882CF58D040812C912CCE57B6
:10219000DF4FB880C258D040CD57DF4FC880C358FA
:1021A000D040CC57DF4FD880C458D040CB57DF4FFA
:1021B000E880C558D040CA57DF4FF880C658D04095
:1021C000C957DF4F0881C758D040C857DF4F188123
:1021D000C858D040C757DF4F2881C958D040C6578C
:1021E000DF4F3881CA58D040C557DF4F4881CB58A0
:1021F000D040C457DF4F5881CC58D040C257DF4F32
:102200007881CE58D040842DC057DF4F9881C05977
:10221000D0400E94180B06C0E3EDF0E33197F1F7D0
:1022200000C000000E945005892BB1F7312C0E949C
:10223000CA05892B09F46ACC6114710409F466CCCF
:102240000E941C07F301DE01AF57BF4F822D0190A2
:102250000D928A95E1F7F3013080F181C755DF4F88
:10226000F883C95AD040F3010484F585E02DC9559F
:10227000DF4FF983E883C75AD040F301468457847F
:10228000A32CCF57DF4F3882C158D040C755DF4FFE
:10229000F881C95AD040CE57DF4FF883C258D0409A
:1022A000C955DF4F6881C75AD040C955DF4F2881D3
:1022B0003981C75AD040C357DF4F39832883CD585F
:1022C000D040C157DF4F59824882CF58D040812C2F
:1022D000912CBF2ECD57DF4FC880C358D040CC576C
:1022E000DF4FD880C458D040CB57DF4FE880C55867
:1022F000D040CA57DF4FF880C658D040C957DF4F8B
:102300000881C758D040C857DF4F1881C858D040FF
:10231000C757DF4F2881C958D040C657DF4F388193
:10232000CA58D040C557DF4F4881CB58D040C4571A
:10233000DF4F5881CC58D040C257DF4F7881CE58FC
:10234000D040842DC057DF4F9881C059D0400E94A3
:10235000180B06C083ED90E30197F1F700C0000071
:102360000E94CA05892BB1F7632CC755DF4F7880CF
:10237000C95AD040312CCACB0E945005019709F0B0
:1023800056CFFCCC97FB072E16F4009407D077FDB0
:1023900009D00E94F51107FC05D03EF49095819577
:1023A0009F4F0895709561957F4F0895052E97FB77
:1023B0001EF400940E94ED1157FD07D00E940912EF
:1023C00007FC03D04EF40C94ED11509540953095D8
:1023D00021953F4F4F4F5F4F089590958095709591
:1023E00061957F4F8F4F9F4F0895AA1BBB1B51E1F3
:1023F00007C0AA1FBB1FA617B70710F0A61BB70B75
:10240000881F991F5A95A9F780959095BC01CD0119
:102410000895A1E21A2EAA1BBB1BFD010DC0AA1F25
:10242000BB1FEE1FFF1FA217B307E407F50720F03D
:10243000A21BB30BE40BF50B661F771F881F991FB8
:102440001A9469F760957095809590959B01AC0101
:10245000BD01CF0108955058BB27AA270E944312FF
:102460000C94EA130E94DC1338F00E94E31320F06E
:1024700039F49F3F19F426F40C94B2130EF4E0954E
:10248000E7FB0C94AC13E92F0E94FB1358F3BA1727
:10249000620773078407950720F079F4A6F50C947A
:1024A0001D140EF4E0950B2EBA2FA02D0B01B901CF
:1024B00090010C01CA01A0011124FF27591B99F0BA
:1024C000593F50F4503E68F11A16F040A22F232FC6
:1024D000342F4427585FF3CF469537952795A79516
:1024E000F0405395C9F77EF41F16BA0B620B730BBD
:1024F000840BBAF09150A1F0FF0FBB1F661F771F2E
:10250000881FC2F70EC0BA0F621F731F841F48F4E2
:10251000879577956795B795F7959E3F08F0B0CF6B
:102520009395880F08F09927EE0F97958795089552
:10253000DF93DD27B92FBF7740E85FE31616170654
:1025400048075B0718F4D92F0E9424149F938F9398
:102550007F936F930E949914E0E7F0E00E94B51317
:102560000E94EA132F913F914F915F910E943F1477
:10257000DD2351F09058A2EA2AED3FE049EC5FE3F9
:10258000D0785D270E944312DF910C94EA130E94D9
:10259000DB120C94EA130E94E31358F00E94DC1340
:1025A00040F029F45F3F29F00C94AC1351110C94C6
:1025B0001E140C94B2130E94FB1368F39923B1F319
:1025C000552391F3951B550BBB27AA276217730759
:1025D000840738F09F5F5F4F220F331F441FAA1FED
:1025E000A9F335D00E2E3AF0E0E832D091505040A9
:1025F000E695001CCAF72BD0FE2F29D0660F771F57
:10260000881FBB1F261737074807AB07B0E809F03C
:10261000BB0B802DBF01FF2793585F4F3AF09E3FC1
:10262000510578F00C94AC130C941E145F3FE4F346
:10263000983ED4F3869577956795B795F7959F5F04
:10264000C9F7880F911D9695879597F90895E1E050
:10265000660F771F881FBB1F621773078407BA07AF
:1026600020F0621B730B840BBA0BEE1F88F7E0950A
:1026700008950E9440136894B1110C941E1408959B
:102680000E94031488F09F5798F0B92F9927B751EB
:10269000B0F0E1F0660F771F881F991F1AF0BA9506
:1026A000C9F714C0B13091F00E941D14B1E0089533
:1026B0000C941D14672F782F8827B85F39F0B93F25
:1026C000CCF3869577956795B395D9F73EF49095B9
:1026D0008095709561957F4F8F4F9F4F0895E89437
:1026E00009C097FB3EF490958095709561957F4F5A
:1026F0008F4F9F4F9923A9F0F92F96E9BB27939508
:10270000F695879577956795B795F111F8CFFAF417
:10271000BB0F11F460FF1BC06F5F7F4F8F4F9F4F48
:1027200016C0882311F096E911C0772321F09EE8A6
:10273000872F762F05C0662371F096E8862F70E00C
:1027400060E02AF09A95660F771F881FDAF7880FE6
:102750009695879597F9089597F99F6780E870E0B7
:1027600060E008959FEF80EC0895DF93CF931F936F
:102770000F93FF92EF92DF927B018C01689406C069
:10278000DA2EEF010E943F14FE01E894A5912591F5
:10279000359145915591A6F3EF010E944312FE0138
:1027A0009701A801DA9469F7DF90EF90FF900F91FD
:1027B0001F91CF91DF91089500240A9416161706F1
:1027C00018060906089500240A9412161306140622
:1027D00005060895092E0394000C11F4882352F085
:1027E000BB0F40F4BF2B11F460FF04C06F5F7F4F3D
:1027F0008F4F9F4F089557FD9058440F551F59F024
:102800005F3F71F04795880F97FB991F61F09F3FDD
:1028100079F087950895121613061406551FF2CF06
:102820004695F1DF08C0161617061806991FF1CF56
:1028300086957105610508940895E894BB2766277D
:102840007727CB0197F908959B01AC0160E070E018
:1028500080E89FE30C94C7120E943F140C94EA1383
:102860000E94DC1338F00E94E31320F0952311F04E
:102870000C94AC130C94B21311240C941E140E94EB
:10288000FB1370F3959FC1F3950F50E0551F629FA6
:10289000F001729FBB27F00DB11D639FAA27F00DB9
:1028A000B11DAA1F649F6627B00DA11D661F829FE0
:1028B0002227B00DA11D621F739FB00DA11D621FC5
:1028C000839FA00D611D221F749F3327A00D611DE2
:1028D000231F849F600D211D822F762F6A2F1124C4
:1028E0009F5750409AF0F1F088234AF0EE0FFF1FF7
:1028F000BB1F661F771F881F91505040A9F79E3F4E
:10290000510580F00C94AC130C941E145F3FE4F35B
:10291000983ED4F3869577956795B795F795E795A3
:102920009F5FC1F7FE2B880F911D9695879597F9AC
:1029300008959B01AC010C942C14FB01DC010D905B
:102940000020E9F7119701900D920020E1F708951A
:10295000BB274A3031F4992322F4BDE2909581954A
:102960009F4F0C94B414BB27FB015527AA27880F4F
:10297000991FAA1FA41710F0A41B83955051B9F7F3
:10298000A05DAA3308F0A95DA193009779F7B11172
:10299000B1931192CB010C9466180F931F93CF93B0
:1029A000DF93009731F46115710519F480E090E030
:1029B0003AC08B01EC016EE070E081E090E00E9493
:1029C0000017FC01892B91F380E883830115110521
:1029D00071F01387028781E883838091EE029091E2
:1029E000EF02892B21F4F093EF02E093EE0220979F
:1029F000C9F0D187C0878381826083838091F00290
:102A00009091F102892B71F4F093F102E093F002BE
:102A10008091F2029091F302892B21F4F093F3025A
:102A2000E093F202CF01DF91CF911F910F910895B2
:102A3000A0E0B0E0EEE1F5E10C941C19AE014B5FB3
:102A40005F4FFA0161917191AF018091F002909115
:102A5000F1020E942E15E2E00C943819ACE0B0E0CF
:102A6000E4E3F5E10C940C197C016B018A01FC0193
:102A700017821682838181FFBDC1CE0101964C0170
:102A8000F7019381F60193FD859193FF81916F0189
:102A9000882309F4ABC1853239F493FD859193FF06
:102AA00081916F01853229F4B70190E00E94761878
:102AB000E7CF512C312C20E02032A0F48B3269F08A
:102AC00030F4803259F0833269F420612CC08D32A9
:102AD00039F0803339F4216026C02260246023C09D
:102AE000286021C027FD27C030ED380F3A3078F438
:102AF00026FF06C0FAE05F9E300D1124532E13C04E
:102B00008AE0389E300D1124332E20620CC08E32A4
:102B100021F426FD6BC1206406C08C3611F42068B8
:102B200002C0883641F4F60193FD859193FF8191AF
:102B30006F018111C1CF982F9F7D9554933028F458
:102B40000C5F1F4FFFE3F9830DC0833631F08337ED
:102B500071F0833509F05BC022C0F8018081898360
:102B60000E5F1F4F44244394512C540115C038016B
:102B7000F2E06F0E711CF801A080B18026FF03C047
:102B8000652D70E002C06FEF7FEFC5012C870E94BA
:102B90005B182C0183012C852F77222E17C038015A
:102BA000F2E06F0E711CF801A080B18026FF03C017
:102BB000652D70E002C06FEF7FEFC5012C870E948A
:102BC00049182C012C852068222E830123FC1BC070
:102BD000832D90E048165906B0F4B70180E290E0EA
:102BE0000E9476183A94F4CFF50127FC859127FED0
:102BF00081915F01B70190E00E94761831103A94FC
:102C0000F1E04F1A51084114510471F7E5C08436C0
:102C100011F0893639F5F80127FF07C0608171810D
:102C2000828193810C5F1F4F08C060817181072EE4
:102C3000000C880B990B0E5F1F4F2F76722E97FF9B
:102C400009C090958095709561957F4F8F4F9F4FEC
:102C50002068722E2AE030E0A4010E94AE18A82E4F
:102C6000A81844C0853729F42F7EB22E2AE030E020
:102C700025C0F22FF97FBF2E8F36C1F018F48835AA
:102C800079F0B4C0803719F0883721F0AFC02F2F0A
:102C90002061B22EB4FE0DC08B2D8460B82E09C009
:102CA00024FF0AC09F2F9660B92E06C028E030E0AE
:102CB00005C020E130E002C020E132E0F801B7FEBB
:102CC00007C060817181828193810C5F1F4F06C0B4
:102CD0006081718180E090E00E5F1F4FA4010E942F
:102CE000AE18A82EA818FB2DFF777F2E76FE0BC0FE
:102CF000372D3E7FA51450F474FE0AC072FC08C044
:102D0000372D3E7E05C0BA2C372D03C0BA2C01C02A
:102D1000B52C34FF0DC0FE01EA0DF11D808180331A
:102D200011F4397E09C032FF06C0B394B39404C0D5
:102D3000832F867809F0B39433FD13C030FF06C0AB
:102D40005A2CB31418F4530C5B18B32CB31468F456
:102D5000B70180E290E03C870E947618B3943C85EE
:102D6000F5CFB31410F43B1801C0312C34FF12C05E
:102D7000B70180E390E03C870E9476183C8532FFE3
:102D800017C031FD03C088E790E002C088E590E0FD
:102D9000B7010CC0832F867859F031FF02C08BE257
:102DA00001C080E237FD8DE2B70190E00E94761805
:102DB000A51438F4B70180E390E00E9476185A9485
:102DC000F7CFAA94F401EA0DF11D8081B70190E0DC
:102DD0000E947618A110F5CF332009F451CEB70127
:102DE00080E290E00E9476183A94F6CFF70186814F
:102DF000978102C08FEF9FEF2C96E2E10C94281987
:102E00000F931F93CF93DF93869F8001879F100DB1
:102E1000969F100D1124C8010E941C17EC01009709
:102E200029F0A80160E070E00E945418CE01DF9103
:102E3000CF911F910F910895CF93DF938230910529
:102E400010F482E090E0E091F602F091F70220E0C9
:102E500030E0C0E0D0E0309711F140815181481757
:102E60005907C0F04817590761F482819381209770
:102E700019F09B838A832BC09093F7028093F6020C
:102E800026C02115310519F04217530718F49A018D
:102E9000BE01DF01EF010280F381E02DDCCF2115BF
:102EA000310509F1281B390B2430310590F41296B5
:102EB0008D919C9113976115710521F0FB0193830E
:102EC000828304C09093F7028093F602FD0132964C
:102ED00044C0FD01E20FF31F819391932250310909
:102EE0002D933C933AC02091F4023091F502232BAC
:102EF00041F420910601309107013093F5022093AF
:102F0000F40220910401309105012115310541F4AD
:102F10002DB73EB74091080150910901241B350B94
:102F2000E091F402F091F502E217F307A0F42E1BF2
:102F30003F0B2817390778F0AC014E5F5F4F24171D
:102F4000350748F04E0F5F1F5093F5024093F4028F
:102F50008193919302C0E0E0F0E0CF01DF91CF9147
:102F600008950F931F93CF93DF93009709F48CC0BC
:102F7000FC013297138212820091F6021091F7023F
:102F80000115110581F420813181820F931F209159
:102F9000F4023091F5022817390779F5F093F5021C
:102FA000E093F40271C0D80140E050E0AE17BF07D3
:102FB00050F412962D913C911397AD0121153105D6
:102FC00009F1D901F3CF9D01DA01338322836081B6
:102FD0007181860F971F8217930769F4EC0128818E
:102FE0003981260F371F2E5F3F4F318320838A811F
:102FF0009B8193838283452B29F4F093F702E0931E
:10300000F60242C01396FC93EE931297ED0149919C
:1030100059919E01240F351FE217F30771F4808147
:103020009181840F951F029611969C938E938281B5
:10303000938113969C938E931297E0E0F0E0D80171
:1030400012968D919C911397009719F0F8018C01BD
:10305000F6CF8D919C9198012E5F3F4F820F931F69
:103060002091F4023091F5022817390769F430975E
:1030700029F41092F7021092F60202C01382128213
:103080001093F5020093F402DF91CF911F910F91FD
:103090000895FC010590615070400110D8F78095AB
:1030A00090958E0F9F1F0895DC0101C06D934150D4
:1030B0005040E0F70895FC0161507040019001100C
:1030C000D8F7809590958E0F9F1F0895DC01FC0125
:1030D000672F71917723E1F7329704C07C916D934C
:1030E00070836291AE17BF07C8F308950F931F93C3
:1030F000CF93DF93FB01238121FD03C08FEF9FEF6F
:1031000028C022FF16C0468157812481358142178D
:10311000530744F4A081B1819D012F5F3F4F31835C
:1031200020838C93268137812F5F3F4F37832683FF
:1031300010C0EB01092F182F0084F185E02D0995AF
:10314000892BE1F68E819F8101969F838E83812F4B
:10315000902FDF91CF911F910F910895FA01AA2727
:10316000283051F1203181F1E8946F936E7F6E5FCA
:103170007F4F8F4F9F4FAF4FB1E03ED0B4E03CD078
:10318000670F781F891F9A1FA11D680F791F8A1F5B
:10319000911DA11D6A0F711D811D911DA11D20D0C2
:1031A00009F468943F912AE0269F11243019305D7C
:1031B0003193DEF6CF010895462F4770405D41936D
:1031C000B3E00FD0C9F7F6CF462F4F70405D4A33BA
:1031D00018F0495D31FD4052419302D0A9F7EACF82
:1031E000B4E0A6959795879577956795BA95C9F7B1
:1031F00000976105710508959B01AC010A2E0694A4
:103200005795479537952795BA95C9F7620F731F5C
:10321000841F951FA01D08952F923F924F925F9299
:103220006F927F928F929F92AF92BF92CF92DF92D6
:10323000EF92FF920F931F93CF93DF93CDB7DEB73B
:10324000CA1BDB0B0FB6F894DEBF0FBECDBF0994CF
:103250002A88398848885F846E847D848C849B8426
:10326000AA84B984C884DF80EE80FD800C811B8134
:10327000AA81B981CE0FD11D0FB6F894DEBF0FBE63
:0A328000CDBFED010895F894FFCFD3
:10328A00001200100000F802200073746172746565
:10329A0072206E6F6465203120203A29200A0D00C1
:1032AA004E6F6465203120783A202564202C2072E4
:1032BA00656E2078202564202C20793A2025642008
:1032CA002C2072656E2079202564202C2064697276
:1032DA00656374696F6E3A20256420200A0D004EDA
:1032EA000052004C00550044006572726F720078FB
:1032FA003A2025642C20793A2025642C206C696EAA
:10330A00653A2025642C20613A2025640A0D004381
:10331A00616E6E6F7420726561642066726F6D20D3
:10332A0043414E20627573200A0D000A322E200096
:10333A000A332E20000A200A002D3E0020200053C6
:10334A00636F72652E200041206C6F6E672074696E
:10335A006D650061676F20696E00612073616E6E32
:10336A007469647373616C006661720066617220CD
:10337A00617761792E2E2E0050696E6720706F6E0C
:10338A00672067616D650A000A200A2070726573FA
:10339A0073206A6F79737469636B200A20746F20D3
:1033AA00636F6E74696E75650A0A0A00506C6179FA
:1033BA002067616D6500526F6F6B696500457870B3
:1033CA00657274004C6561646572626F6172640053
:1033DA00437265646974730045696C656620204FA1
:1033EA002E0A4D617274696E20532E0A4173676505
:1033FA00697220482E0A496E2072656D656D627287
:10340A00616E6365200A6F66206865726F69632062
:10341A006566666F7274004D61696E206D656E75C2
:10342A0000506C6179696E6720726F6F6B696520F5
:10343A000A206D6F6465200A0A0A0A0A0A000A0A43
:10344A000A0A0A0A0A00506C6179696E672065786F
:10345A0070657274200A6D6F6465200A0A0A0A0A86
:02346A000A0056
:00000001FF
