:100000000C9438000C9455000C9455000C94550039
:100010000C9455000C9455000C9455000C9455000C
:100020000C9455000C9455000C9455000C945500FC
:100030000C9455000C9455000C9455000C945500EC
:100040000C9455000C9455000C9455000C945500DC
:100050000C9455000C9455000C9455000C945500CC
:100060000C9455000C9455000C9455000C945500BC
:1000700011241FBECFEFD4E0DEBFCDBF11E0A0E062
:10008000B1E0EEEFFCE002C005900D92AC30B1079C
:10009000D9F721E0ACE0B1E001C01D92A631B20772
:1000A000E1F70E9457000C947D060C94000080E854
:1000B00095E20E94790086E091E09F938F930E94E1
:1000C00062020F900F900E9471008823E1F380522A
:1000D0000E946B00F8CF5D9BFECF8CB980E090E072
:1000E00008955F9B03C08CB190E0089580E090E09C
:1000F000089582959295907F9827807F98279C01FC
:1001000040E050E060E070E08BE490E00E94A500E9
:10011000CA01B90161507109810991090E941E014A
:100120002AE939E949E15EE30E9482010E94E60082
:1001300070BD69B988E18AB98EE880BD61E770E079
:100140008BE690E00E9417020895052E97FB1EF49F
:1001500000940E94BC0057FD07D00E94C40007FC19
:1001600003D04EF40C94BC005095409530952195E9
:100170003F4F4F4F5F4F08959095809570956195D3
:100180007F4F8F4F9F4F0895A1E21A2EAA1BBB1BD2
:10019000FD010DC0AA1FBB1FEE1FFF1FA217B30753
:1001A000E407F50720F0A21BB30BE40BF50B661F69
:1001B000771F881F991F1A9469F76095709580952D
:1001C00090959B01AC01BD01CF0108950E94ED0007
:1001D0006894B1110C947C0108950E94610188F02B
:1001E0009F5798F0B92F9927B751B0F0E1F0660FFB
:1001F000771F881F991F1AF0BA95C9F714C0B1303C
:1002000091F00E947B01B1E008950C947B01672F6F
:10021000782F8827B85F39F0B93FCCF3869577956A
:100220006795B395D9F73EF4909580957095619553
:100230007F4F8F4F9F4F0895E89409C097FB3EF47E
:1002400090958095709561957F4F8F4F9F4F992323
:10025000A9F0F92F96E9BB279395F69587957795A1
:100260006795B795F111F8CFFAF4BB0F11F460FF61
:100270001BC06F5F7F4F8F4F9F4F16C0882311F0B9
:1002800096E911C0772321F09EE8872F762F05C0CD
:10029000662371F096E8862F70E060E02AF09A9568
:1002A000660F771F881FDAF7880F9695879597F95D
:1002B000089557FD9058440F551F59F05F3F71F056
:1002C0004795880F97FB991F61F09F3F79F08795BD
:1002D0000895121613061406551FF2CF4695F1DF46
:1002E00008C0161617061806991FF1CF86957105D6
:1002F000610508940895E894BB2766277727CB010A
:1003000097F908950E9495010C9406020E94F80145
:1003100038F00E94FF0120F0952311F00C94EF01BA
:100320000C94F50111240C947C010E94590170F386
:10033000959FC1F3950F50E0551F629FF001729F8A
:10034000BB27F00DB11D639FAA27F00DB11DAA1F99
:10035000649F6627B00DA11D661F829F2227B00DE6
:10036000A11D621F739FB00DA11D621F839FA00D71
:10037000611D221F749F3327A00D611D231F849FC1
:10038000600D211D822F762F6A2F11249F57504018
:100390009AF0F1F088234AF0EE0FFF1FBB1F661F93
:1003A000771F881F91505040A9F79E3F510580F05C
:1003B0000C94EF010C947C015F3FE4F3983ED4F37E
:1003C000869577956795B795F795E7959F5FC1F700
:1003D000FE2B880F911D9695879597F9089597F9AB
:1003E0009F6780E870E060E008959FEF80EC0895DB
:1003F00000240A9416161706180609060895002404
:100400000A9412161306140605060895092E03947D
:10041000000C11F4882352F0BB0F40F4BF2B11F4F1
:1004200060FF04C06F5F7F4F8F4F9F4F08950F9302
:100430001F93CF93DF93009731F46115710519F481
:1004400080E090E03AC08B01EC016EE070E081E06A
:1004500090E00E944A04FC01892B91F380E8838399
:100460000115110571F01387028781E8838380915C
:100470000C0190910D01892B21F4F0930D01E09373
:100480000C012097C9F0D187C08783818260838364
:1004900080910E0190910F01892B71F4F0930F015F
:1004A000E0930E018091100190911101892B21F4AC
:1004B000F0931101E0931001CF01DF91CF911F91D3
:1004C0000F910895A0E0B0E0E8E6F2E00C94560643
:1004D000AE014B5F5F4FFA0161917191AF01809165
:1004E0000E0190910F010E947802E2E00C947206D6
:1004F000ACE0B0E0EEE7F2E00C9446067C016B0164
:100500008A01FC0117821682838181FFBDC1CE0161
:1005100001964C01F7019381F60193FD859193FFBC
:1005200081916F01882309F4ABC1853239F493FDC1
:10053000859193FF81916F01853229F4B70190E095
:100540000E94B005E7CF512C312C20E02032A0F4DE
:100550008B3269F030F4803259F0833269F42061D3
:100560002CC08D3239F0803339F4216026C02260EE
:10057000246023C0286021C027FD27C030ED380F3C
:100580003A3078F426FF06C0FAE05F9E300D112461
:10059000532E13C08AE0389E300D1124332E206272
:1005A0000CC08E3221F426FD6BC1206406C08C364F
:1005B00011F4206802C0883641F4F60193FD85915C
:1005C00093FF81916F018111C1CF982F9F7D955429
:1005D000933028F40C5F1F4FFFE3F9830DC083367F
:1005E00031F0833771F0833509F05BC022C0F80128
:1005F000808189830E5F1F4F44244394512C540102
:1006000015C03801F2E06F0E711CF801A080B180B6
:1006100026FF03C0652D70E002C06FEF7FEFC501BC
:100620002C870E94A5052C0183012C852F77222E73
:1006300017C03801F2E06F0E711CF801A080B18084
:1006400026FF03C0652D70E002C06FEF7FEFC5018C
:100650002C870E9493052C012C852068222E830173
:1006600023FC1BC0832D90E048165906B0F4B70157
:1006700080E290E00E94B0053A94F4CFF50127FCA7
:10068000859127FE81915F01B70190E00E94B0053E
:1006900031103A94F1E04F1A51084114510471F7A6
:1006A000E5C0843611F0893639F5F80127FF07C017
:1006B00060817181828193810C5F1F4F08C06081CE
:1006C0007181072E000C880B990B0E5F1F4F2F7640
:1006D000722E97FF09C090958095709561957F4F18
:1006E0008F4F9F4F2068722E2AE030E0A4010E94B5
:1006F000E805A82EA81844C0853729F42F7EB22E0D
:100700002AE030E025C0F22FF97FBF2E8F36C1F0EE
:1007100018F4883579F0B4C0803719F0883721F0A3
:10072000AFC02F2F2061B22EB4FE0DC08B2D846080
:10073000B82E09C024FF0AC09F2F9660B92E06C0AC
:1007400028E030E005C020E130E002C020E132E0E6
:10075000F801B7FE07C060817181828193810C5FCF
:100760001F4F06C06081718180E090E00E5F1F4FD7
:10077000A4010E94E805A82EA818FB2DFF777F2E64
:1007800076FE0BC0372D3E7FA51450F474FE0AC0D0
:1007900072FC08C0372D3E7E05C0BA2C372D03C031
:1007A000BA2C01C0B52C34FF0DC0FE01EA0DF11DBD
:1007B0008081803311F4397E09C032FF06C0B394C2
:1007C000B39404C0832F867809F0B39433FD13C02B
:1007D00030FF06C05A2CB31418F4530C5B18B32C1A
:1007E000B31468F4B70180E290E03C870E94B00542
:1007F000B3943C85F5CFB31410F43B1801C0312CF1
:1008000034FF12C0B70180E390E03C870E94B0053E
:100810003C8532FF17C031FD03C088E790E002C07D
:1008200088E590E0B7010CC0832F867859F031FF3E
:1008300002C08BE201C080E237FD8DE2B70190E09B
:100840000E94B005A51438F4B70180E390E00E943F
:10085000B0055A94F7CFAA94F401EA0DF11D8081F6
:10086000B70190E00E94B005A110F5CF332009F444
:1008700051CEB70180E290E00E94B0053A94F6CFE5
:10088000F7018681978102C08FEF9FEF2C96E2E1FE
:100890000C9462060F931F93CF93DF93869F800182
:1008A000879F100D969F100D1124C8010E946604A9
:1008B000EC01009729F0A80160E070E00E949E051D
:1008C000CE01DF91CF911F910F910895CF93DF93C8
:1008D0008230910510F482E090E0E0911401F091F3
:1008E000150120E030E0C0E0D0E0309711F1408108
:1008F000518148175907C0F04817590761F48281A0
:100900009381209719F09B838A832BC090931501C4
:100910008093140126C02115310519F042175307A1
:1009200018F49A01BE01DF01EF010280F381E02D8E
:10093000DCCF2115310509F1281B390B2430310595
:1009400090F412968D919C9113976115710521F089
:10095000FB019383828304C090931501809314015B
:10096000FD01329644C0FD01E20FF31F8193919384
:10097000225031092D933C933AC0209112013091BD
:100980001301232B41F42091020130910301309394
:1009900013012093120120910001309101012115D2
:1009A000310541F42DB73EB7409104015091050146
:1009B000241B350BE0911201F0911301E217F307AC
:1009C000A0F42E1B3F0B2817390778F0AC014E5FBF
:1009D0005F4F2417350748F04E0F5F1F50931301E8
:1009E000409312018193919302C0E0E0F0E0CF01C7
:1009F000DF91CF9108950F931F93CF93DF930097CB
:100A000009F48CC0FC013297138212820091140108
:100A1000109115010115110581F420813181820F9A
:100A2000931F20911201309113012817390779F58E
:100A3000F0931301E093120171C0D80140E050E03F
:100A4000AE17BF0750F412962D913C911397AD014C
:100A50002115310509F1D901F3CF9D01DA01338365
:100A6000228360817181860F971F8217930769F433
:100A7000EC0128813981260F371F2E5F3F4F3183CC
:100A800020838A819B8193838283452B29F4F09371
:100A90001501E093140142C01396FC93EE93129754
:100AA000ED01499159919E01240F351FE217F3077B
:100AB00071F480819181840F951F029611969C9309
:100AC0008E938281938113969C938E931297E0E08C
:100AD000F0E0D80112968D919C911397009719F030
:100AE000F8018C01F6CF8D919C9198012E5F3F4FBC
:100AF000820F931F2091120130911301281739079B
:100B000069F4309729F4109215011092140102C073
:100B1000138212821093130100931201DF91CF917F
:100B20001F910F910895FC010590615070400110D4
:100B3000D8F7809590958E0F9F1F0895DC0101C016
:100B40006D9341505040E0F70895FC0161507040B2
:100B500001900110D8F7809590958E0F9F1F0895F2
:100B60000F931F93CF93DF93FB01238121FD03C0DC
:100B70008FEF9FEF28C022FF16C046815781248146
:100B800035814217530744F4A081B1819D012F5F45
:100B90003F4F318320838C93268137812F5F3F4FD6
:100BA0003783268310C0EB01092F182F0084F185AD
:100BB000E02D0995892BE1F68E819F8101969F8317
:100BC0008E83812F902FDF91CF911F910F910895E8
:100BD000FA01AA27283051F1203181F1E8946F936E
:100BE0006E7F6E5F7F4F8F4F9F4FAF4FB1E03ED014
:100BF000B4E03CD0670F781F891F9A1FA11D680FB2
:100C0000791F8A1F911DA11D6A0F711D811D911DE4
:100C1000A11D20D009F468943F912AE0269F112459
:100C20003019305D3193DEF6CF010895462F4770BD
:100C3000405D4193B3E00FD0C9F7F6CF462F4F7018
:100C4000405D4A3318F0495D31FD4052419302D076
:100C5000A9F7EACFB4E0A69597958795779567951C
:100C6000BA95C9F700976105710508959B01AC011C
:100C70000A2E06945795479537952795BA95C9F743
:100C8000620F731F841F951FA01D08952F923F921E
:100C90004F925F926F927F928F929F92AF92BF928C
:100CA000CF92DF92EF92FF920F931F93CF93DF9338
:100CB000CDB7DEB7CA1BDB0B0FB6F894DEBF0FBE95
:100CC000CDBF09942A88398848885F846E847D84E2
:100CD0008C849B84AA84B984C884DF80EE80FD80E4
:100CE0000C811B81AA81B981CE0FD11D0FB6F8945A
:0E0CF000DEBF0FBECDBFED010895F894FFCF1B
:0C0CFE0000001601200068616C6C6F00A3
:00000001FF
