:100000000C9438000C9455000C9455000C94550039
:100010000C9455000C9455000C9455000C9455000C
:100020000C9455000C9455000C9455000C945500FC
:100030000C9455000C9455000C9455000C945500EC
:100040000C9455000C9455000C9455000C945500DC
:100050000C9455000C9455000C9455000C945500CC
:100060000C9455000C9455000C9455000C945500BC
:1000700011241FBECFEFD4E0DEBFCDBF12E0A0E061
:10008000B1E0EEE3FFE002C005900D92A630B107AB
:10009000D9F722E0A6E0B2E001C01D92A031B2077C
:1000A000E1F70E9457000C949D070C94000080E833
:1000B00095E20E9494008AE091E09F938F930E94C2
:1000C000600380E885BF80E280BF81E191E09F937B
:1000D0008F930E9460032FEF8FEF9DE121508040AE
:1000E0009040E1F700C000000E94C0002FEF8FEFAA
:1000F0009CE2215080409040E1F700C000C00F908A
:100100000F900F900F9080E090E008955D9BFECFE0
:100110008CB980E090E008955F9B03C08CB190E0C3
:10012000089580E090E0089582959295907F9827B9
:10013000807F98279C0140E050E060E070E08BE415
:1001400090E00E944701CA01B9016150710981091B
:1001500091090E94C0012AE939E949E15EE30E9460
:1001600024020E94880170BD69B988E18AB98EE8CD
:1001700080BD6CE870E086E890E00E941503089569
:10018000CF92DF92EF92FF920F931F93CF93DF9363
:1001900089E191E09F938F930E9460030E94050381
:1001A0007C010E940A030F900F90C12CD12CC0E05B
:1001B000D0E001E311E00E940503F601F85E8083C0
:1001C00020812817A1F099279F938F931F922F9337
:1001D000DF92CF921F930F930E94600321968DB7F9
:1001E0009EB708960FB6F8949EBF0FBE8DBF9FEFC7
:1001F000C91AD90AC11488E0D806E9F6C7010E94D5
:100200000A0300E010E0E12CF12C0F2EFBE6CF2ECC
:10021000F1E0DF2EF02D0E940503F801F85E208149
:100220002817B1F099279F938F931F922F931F93B5
:100230000F93DF92CF920E9460039FEFE91AF90AB1
:100240008DB79EB708960FB6F8949EBF0FBE8DBFB0
:100250000F5F1F4F011598E01907E9F6FF92EF9223
:10026000DF93CF9389EA91E09F938F930E9460037D
:100270000F900F900F900F900F900F90DF91CF91F4
:100280001F910F91FF90EF90DF90CF900895052E72
:1002900097FB1EF400940E945E0157FD07D00E9458
:1002A000660107FC03D04EF40C945E015095409516
:1002B000309521953F4F4F4F5F4F08959095809512
:1002C000709561957F4F8F4F9F4F0895A1E21A2E31
:1002D000AA1BBB1BFD010DC0AA1FBB1FEE1FFF1FEA
:1002E000A217B307E407F50720F0A21BB30BE40B3A
:1002F000F50B661F771F881F991F1A9469F7609581
:100300007095809590959B01AC01BD01CF0108953A
:100310000E948F016894B1110C941E0208950E94EE
:10032000030288F09F5798F0B92F9927B751B0F082
:10033000E1F0660F771F881F991F1AF0BA95C9F769
:1003400014C0B13091F00E941D02B1E008950C94E8
:100350001D02672F782F8827B85F39F0B93FCCF39B
:10036000869577956795B395D9F73EF490958095E6
:10037000709561957F4F8F4F9F4F0895E89409C006
:1003800097FB3EF490958095709561957F4F8F4FC8
:100390009F4F9923A9F0F92F96E9BB279395F695DE
:1003A000879577956795B795F111F8CFFAF4BB0F5C
:1003B00011F460FF1BC06F5F7F4F8F4F9F4F16C0C0
:1003C000882311F096E911C0772321F09EE8872F4A
:1003D000762F05C0662371F096E8862F70E060E006
:1003E0002AF09A95660F771F881FDAF7880F96957F
:1003F000879597F9089557FD9058440F551F59F068
:100400005F3F71F04795880F97FB991F61F09F3F01
:1004100079F087950895121613061406551FF2CF2A
:100420004695F1DF08C0161617061806991FF1CF7A
:1004300086957105610508940895E894BB276627A1
:100440007727CB0197F908950E9437020C94A802F0
:100450000E949A0238F00E94A10220F0952311F028
:100460000C9491020C94970211240C941E020E9489
:10047000FB0170F3959FC1F3950F50E0551F629FEC
:10048000F001729FBB27F00DB11D639FAA27F00DED
:10049000B11DAA1F649F6627B00DA11D661F829F14
:1004A0002227B00DA11D621F739FB00DA11D621FF9
:1004B000839FA00D611D221F749F3327A00D611D16
:1004C000231F849F600D211D822F762F6A2F1124F8
:1004D0009F5750409AF0F1F088234AF0EE0FFF1F2B
:1004E000BB1F661F771F881F91505040A9F79E3F82
:1004F000510580F00C9491020C941E025F3FE4F3CE
:10050000983ED4F3869577956795B795F795E795D7
:100510009F5FC1F7FE2B880F911D9695879597F9E0
:10052000089597F99F6780E870E060E008959FEF75
:1005300080EC089500240A9416161706180609067A
:10054000089500240A941216130614060506089549
:10055000092E0394000C11F4882352F0BB0F40F4D1
:10056000BF2B11F460FF04C06F5F7F4F8F4F9F4F11
:1005700008958F929F92AF92BF92CF92DF92EF92A7
:10058000FF92CF93DF93EC01688179818A819B810F
:10059000611571058105910521F464E279ED8BE522
:1005A00097E02DE133EF41E050E00E94470149011F
:1005B0005A019B01AC01A7EAB1E40E9444076B0118
:1005C0007C01ACEEB4EFA50194010E945207DC015E
:1005D000CB018C0D9D1DAE1DBF1DB7FF03C0019744
:1005E000A109B04888839983AA83BB839F77DF9151
:1005F000CF91FF90EF90DF90CF90BF90AF909F9002
:100600008F9008950E94B902089580E091E00E94C1
:10061000B9020895A0E0B0E0809300019093010139
:10062000A0930201B093030108950F931F93CF93FA
:10063000DF93009731F46115710519F480E090E0C3
:100640003AC08B01EC016EE070E081E090E00E9426
:100650004805FC01892B91F380E88383011511057E
:1006600071F01387028781E883838091060290915D
:100670000702892B21F4F0930702E09306022097EA
:10068000C9F0D187C087838182608383809108020B
:1006900090910902892B71F4F0930902E09308020A
:1006A00080910A0290910B02892B21F4F0930B02A6
:1006B000E0930A02CF01DF91CF911F910F9108952E
:1006C000A0E0B0E0E6E6F3E00C946707AE014B5F14
:1006D0005F4FFA0161917191AF0180910802909191
:1006E00009020E947603E2E00C948307ACE0B0E0DC
:1006F000ECE7F3E00C9457077C016B018A01FC01E5
:1007000017821682838181FFBDC1CE0101964C0103
:10071000F7019381F60193FD859193FF81916F011C
:10072000882309F4ABC1853239F493FD859193FF99
:1007300081916F01853229F4B70190E00E94AE06E5
:10074000E7CF512C312C20E02032A0F48B3269F01D
:1007500030F4803259F0833269F420612CC08D323C
:1007600039F0803339F4216026C02260246023C030
:10077000286021C027FD27C030ED380F3A3078F4CB
:1007800026FF06C0FAE05F9E300D1124532E13C0E1
:100790008AE0389E300D1124332E20620CC08E3238
:1007A00021F426FD6BC1206406C08C3611F420684C
:1007B00002C0883641F4F60193FD859193FF819143
:1007C0006F018111C1CF982F9F7D9554933028F4EC
:1007D0000C5F1F4FFFE3F9830DC0833631F0833781
:1007E00071F0833509F05BC022C0F80180818983F4
:1007F0000E5F1F4F44244394512C540115C03801FF
:10080000F2E06F0E711CF801A080B18026FF03C0DA
:10081000652D70E002C06FEF7FEFC5012C870E944D
:10082000A3062C0183012C852F77222E17C03801B7
:10083000F2E06F0E711CF801A080B18026FF03C0AA
:10084000652D70E002C06FEF7FEFC5012C870E941D
:1008500091062C012C852068222E830123FC1BC0CD
:10086000832D90E048165906B0F4B70180E290E07D
:100870000E94AE063A94F4CFF50127FC859127FE3D
:1008800081915F01B70190E00E94AE0631103A9469
:10089000F1E04F1A51084114510471F7E5C0843654
:1008A00011F0893639F5F80127FF07C060817181A1
:1008B000828193810C5F1F4F08C060817181072E78
:1008C000000C880B990B0E5F1F4F2F76722E97FF2F
:1008D00009C090958095709561957F4F8F4F9F4F80
:1008E0002068722E2AE030E0A4010E94E606A82EBD
:1008F000A81844C0853729F42F7EB22E2AE030E0B4
:1009000025C0F22FF97FBF2E8F36C1F018F488353D
:1009100079F0B4C0803719F0883721F0AFC02F2F9D
:100920002061B22EB4FE0DC08B2D8460B82E09C09C
:1009300024FF0AC09F2F9660B92E06C028E030E041
:1009400005C020E130E002C020E132E0F801B7FE4E
:1009500007C060817181828193810C5F1F4F06C047
:100960006081718180E090E00E5F1F4FA4010E94C2
:10097000E606A82EA818FB2DFF777F2E76FE0BC06B
:10098000372D3E7FA51450F474FE0AC072FC08C0D7
:10099000372D3E7E05C0BA2C372D03C0BA2C01C0BE
:1009A000B52C34FF0DC0FE01EA0DF11D80818033AE
:1009B00011F4397E09C032FF06C0B394B39404C069
:1009C000832F867809F0B39433FD13C030FF06C03F
:1009D0005A2CB31418F4530C5B18B32CB31468F4EA
:1009E000B70180E290E03C870E94AE06B3943C855C
:1009F000F5CFB31410F43B1801C0312C34FF12C0F2
:100A0000B70180E390E03C870E94AE063C8532FF50
:100A100017C031FD03C088E790E002C088E590E090
:100A2000B7010CC0832F867859F031FF02C08BE2EA
:100A300001C080E237FD8DE2B70190E00E94AE0672
:100A4000A51438F4B70180E390E00E94AE065A94F2
:100A5000F7CFAA94F401EA0DF11D8081B70190E06F
:100A60000E94AE06A110F5CF332009F451CEB70194
:100A700080E290E00E94AE063A94F6CFF7018681BC
:100A8000978102C08FEF9FEF2C96E2E10C947307E1
:100A90000F931F93CF93DF93869F8001879F100D45
:100AA000969F100D1124C8010E946405EC01009767
:100AB00029F0A80160E070E00E949C06CE01DF9161
:100AC000CF911F910F910895CF93DF9382309105BD
:100AD00010F482E090E0E0910E02F0910F0220E02D
:100AE00030E0C0E0D0E0309711F1408151814817EB
:100AF0005907C0F04817590761F482819381209704
:100B000019F09B838A832BC090930F0280930E026F
:100B100026C02115310519F04217530718F49A0120
:100B2000BE01DF01EF010280F381E02DDCCF211552
:100B3000310509F1281B390B2430310590F4129648
:100B40008D919C9113976115710521F0FB019383A1
:100B5000828304C090930F0280930E02FD013296AF
:100B600044C0FD01E20FF31F81939193225031099C
:100B70002D933C933AC020910C0230910D02232B0F
:100B800041F4209106013091070130930D0220932A
:100B90000C0220910401309105012115310541F429
:100BA0002DB73EB74091080150910901241B350B28
:100BB000E0910C02F0910D02E217F307A0F42E1B56
:100BC0003F0B2817390778F0AC014E5F5F4F2417B1
:100BD000350748F04E0F5F1F50930D0240930C02F3
:100BE0008193919302C0E0E0F0E0CF01DF91CF91DB
:100BF00008950F931F93CF93DF93009709F48CC050
:100C0000FC0132971382128200910E0210910F02A2
:100C10000115110581F420813181820F931F2091EC
:100C20000C0230910D022817390779F5F0930D0267
:100C3000E0930C0271C0D80140E050E0AE17BF074E
:100C400050F412962D913C911397AD012115310569
:100C500009F1D901F3CF9D01DA0133832283608149
:100C60007181860F971F8217930769F4EC01288121
:100C70003981260F371F2E5F3F4F318320838A81B2
:100C80009B8193838283452B29F4F0930F02E09399
:100C90000E0242C01396FC93EE931297ED01499118
:100CA00059919E01240F351FE217F30771F48081DB
:100CB0009181840F951F029611969C938E93828149
:100CC000938113969C938E931297E0E0F0E0D80105
:100CD00012968D919C911397009719F0F8018C0151
:100CE000F6CF8D919C9198012E5F3F4F820F931FFD
:100CF00020910C0230910D022817390769F43097C2
:100D000029F410920F0210920E0202C01382128276
:100D100010930D0200930C02DF91CF911F910F9160
:100D20000895FC010590615070400110D8F780953E
:100D300090958E0F9F1F0895DC0101C06D93415067
:100D40005040E0F70895FC0161507040019001109F
:100D5000D8F7809590958E0F9F1F08950F931F933E
:100D6000CF93DF93FB01238121FD03C08FEF9FEF22
:100D700028C022FF16C04681578124813581421741
:100D8000530744F4A081B1819D012F5F3F4F318310
:100D900020838C93268137812F5F3F4F37832683B3
:100DA00010C0EB01092F182F0084F185E02D099563
:100DB000892BE1F68E819F8101969F838E83812FFF
:100DC000902FDF91CF911F910F910895FA01AA27DB
:100DD000283051F1203181F1E8946F936E7F6E5F7E
:100DE0007F4F8F4F9F4FAF4FB1E03ED0B4E03CD02C
:100DF000670F781F891F9A1FA11D680F791F8A1F0F
:100E0000911DA11D6A0F711D811D911DA11D20D075
:100E100009F468943F912AE0269F11243019305D2F
:100E20003193DEF6CF010895462F4770405D419320
:100E3000B3E00FD0C9F7F6CF462F4F70405D4A336D
:100E400018F0495D31FD4052419302D0A9F7EACF35
:100E5000B4E0A6959795879577956795BA95C9F764
:100E600000976105710508959B01AC010A2E069457
:100E70005795479537952795BA95C9F7620F731F10
:100E8000841F951FA01D08950E948E07A59F900D99
:100E9000B49F900DA49F800D911D11240895B7FF5C
:100EA0000C9444070E944407821B930B08952F92D1
:100EB0003F924F925F926F927F928F929F92AF92EA
:100EC000BF92CF92DF92EF92FF920F931F93CF9337
:100ED000DF93CDB7DEB7CA1BDB0B0FB6F894DEBFCE
:100EE0000FBECDBF09942A88398848885F846E84F4
:100EF0007D848C849B84AA84B984C884DF80EE803E
:100F0000FD800C811B81AA81B981CE0FD11D0FB646
:100F1000F894DEBF0FBECDBFED010895A29FB001D2
:100F2000B39FC001A39F700D811D1124911DB29F1D
:0E0F3000700D811D1124911D0895F894FFCFBE
:100F3E0001000000000010022000484549200A0D63
:100F4E000020535645495320005374617274696EE4
:100F5E0067205352414D20746573742E2E2E0A0D48
:100F6E0000577269746520706861736520657272CE
:100F7E006F723A206578745F72616D5B2534645DC3
:100F8E00203D2025303258202873686F756C642000
:100F9E0062652025303258290A0D00526574726937
:100FAE006576616C207068617365206572726F7210
:100FBE003A206578745F72616D5B2534645D203D07
:100FCE002025303258202873686F756C6420626556
:100FDE002025303258290A0D005352414D20746598
:100FEE00737420636F6D706C6574656420776974BB
:100FFE0068200A0D253464206572726F7273206941
:10100E006E20777269746520706861736520616EF9
:10101E0064200A0D253464206572726F7273206924
:10102E006E2072657472696576616C20706861738A
:06103E00650A0A0D000026
:00000001FF
