:100000000C94CB010C94E8010C94E8010C94E801E9
:100010000C94E8010C94E8010C94E8010C94E801BC
:100020000C94E8010C94E8010C94E8010C94E801AC
:100030000C94E8010C94E8010C94E8010C94E8019C
:100040000C94E8010C94E8010C94E8010C94E8018C
:100050000C94E8010C94E8010C94E8010C94E8017C
:100060000C94E8010C94E8010C94E8010C94E8016C
:10007000084AD73B3BCE016E84BCBFFDC12F3D6C0F
:1000800074319ABD56833DDA3D00C77F11BED9E475
:10009000BB4C3E916BAAAABE000000803F0000004E
:1000A00000000000000000065F5F0600000000077F
:1000B000070007070000147F7F147F7F1400242EA1
:1000C0006B6B3A120000466630180C666200307A9C
:1000D0004F5D377A48000407030000000000001C51
:1000E0003E63410000000041633E1C000000082AFE
:1000F0003E1C1C3E2A0808083E3E0808000000A0DE
:10010000E06000000000080808080808000000007F
:100110006060000000006030180C060301003E7FA4
:10012000594D7F3E000042427F7F40400000627395
:1001300059496F660000226349497F360000181C48
:1001400016137F7F1000276745457D3900003C7EF0
:100150004B4979300000036371190F070000367FA7
:1001600049497F360000064F49693F1E00000000E4
:100170006C6C0000000000A0EC6C00000000081C8B
:1001800036634100000014141414141400000041DC
:1001900063361C080000020351590F0600003E7F21
:1001A000415D5D1F1E007C7E13137E7C0000417F3D
:1001B0007F49497F36001C3E634141632200417FF5
:1001C0007F41637F1C00417F7F495D416300417F28
:1001D0007F491D0103001C3E6341517372007F7F04
:1001E00008087F7F000000417F7F410000003070E1
:1001F00040417F3F0100417F7F081C776300417FC2
:100200007F41406070007F7F060C067F7F007F7F0C
:10021000060C187F7F001C3E6341633E1C00417F3B
:100220007F49090F06001E3F21717F5E0000417F5C
:100230007F19396F460026674D597B320000034114
:100240007F7F410300007F7F40407F7F00001F3F92
:1002500060603F1F00007F7F3018307F7F00637732
:100260001C081C776300074F78784F0700006773FE
:10027000594D47637100007F7F4141000000010339
:10028000060C183060000041417F7F000000080C20
:100290000603060C0800808080808080808000003B
:1002A000030704000000207454543C784000413F90
:1002B0007F44447C3800387C44446C28000030780B
:1002C00048493F7F4000387C54545C180000487E09
:1002D0007F490302000098BCA4A4F87C0400417F7D
:1002E0007F08047C780000447D7D4000000040C40D
:1002F00084FD7D000000417F7F10386C4400004188
:100300007F7F400000007C7C0C180C7C78007C7C9B
:1003100004047C780000387C44447C38000084FC71
:10032000F8A4243C1800183C24A4F8FC8400447C65
:1003300078441C180000485C5454742400000004E5
:100340003E7F442400003C7C40403C7C40001C3C00
:1003500060603C1C00003C7C6030607C3C00446C75
:100360003810386C44009CBCA0A0FC7C00004C649D
:10037000745C4C64000008083E77414100000000B6
:100380000077770000004141773E08080000020333
:1003900001030203010011241FBECFEFD4E0DEBF32
:1003A000CDBF13E0A0E0B1E0E8ECFDE102C00590B4
:1003B0000D92A632B107D9F723E0A6E2B3E001C05F
:1003C0001D92A233B207E1F70E94EA010C94E20EFB
:1003D0000C94000080E895E20E94260280E885BF28
:1003E00080E280BF8EE091E09F938F930E94A50AE8
:1003F0000E94E4020E94E8040E9421060F900F90E0
:10040000C5E1D1E02FEF8FE791E02150804090408F
:10041000E1F700C000C00E943B049F938F93DF93DD
:10042000CF930E94A50A0F900F900F900F90EACFE4
:100430005D9BFECF8CB980E090E008955F9B03C088
:100440008CB190E0089580E090E0089582959295B7
:10045000907F9827807F98279C0140E050E060E0E3
:1004600070E08BE490E00E943E07CA01B901615040
:100470007109810991090E946C082AE939E949E169
:100480005EE30E9427090E94340870BD69B988E1C3
:100490008AB98EE880BD6EE172E088E192E00E9448
:1004A0005A0A0895CF92DF92EF92FF920F931F9313
:1004B000CF93DF9386E291E09F938F930E94A50AEA
:1004C0000E944A0A7C010E944F0A0F900F90C12C93
:1004D000D12CC0E0D0E00EE311E00E944A0AF60100
:1004E000F85E808320812817A1F099279F938F932E
:1004F0001F922F93DF92CF921F930F930E94A50A12
:1005000021968DB79EB708960FB6F8949EBF0FBE82
:100510008DBF9FEFC91AD90AC11488E0D806E9F641
:10052000C7010E944F0A00E010E0E12CF12C0F2ED1
:10053000F8E7CF2EF1E0DF2EF02D0E944A0AF801F5
:10054000F85E20812817B1F099279F938F931F920F
:100550002F931F930F93DF92CF920E94A50A9FEFD4
:10056000E91AF90A8DB79EB708960FB6F8949EBFA0
:100570000FBE8DBF0F5F1F4F011598E01907E9F6F9
:10058000FF92EF92DF93CF9386EB91E09F938F934F
:100590000E94A50A0F900F900F900F900F900F9050
:1005A000DF91CF911F910F91FF90EF90DF90CF904F
:1005B0000895E0E0F4E1808387E893E10197F1F7A3
:1005C00000C0000080810895CF9384E090E00E94F5
:1005D000D902C82F85E090E00E94D902282F6C2F05
:1005E00070E0822F90E0CF910895CF92DF92EF924A
:1005F000FF926B017C0184E090E00E94D90290E0C0
:10060000BC016C197D09072E000C880B990B0E9408
:100610006C0820E030E048EC52E40E94270920E01A
:1006200030E04EEF52E40E94C20728EB3EE145E87D
:100630005FE30E9427090E9434086C398FEF780726
:1006400014F46CE97FEFCB016536710514F084E694
:1006500090E0FF90EF90DF90CF900895CF92DF92DF
:10066000EF92FF926B017C0185E090E00E94D9023D
:1006700090E0BC016E197F09072E000C880B990BC6
:100680000E946C0820E030E048EC52E40E94270908
:1006900020E030E04EEF52E40E94C2072CE53FE834
:1006A00042E85FE30E9427090E9434086C398FEF0B
:1006B000780714F46CE97FEFCB016536710514F00F
:1006C00084E690E0FF90EF90DF90CF900895009740
:1006D00071F08130910571F08230910571F08330B5
:1006E000910571F0049779F08CE192E0089582E130
:1006F00092E0089584E192E0089586E192E0089501
:1007000088E192E008958AE192E00895CF92DF9225
:10071000EF92FF92CF93DF93EC01072E000C880B32
:10072000990B0E946C086B017C01BE010D2E000C20
:10073000880B990B0E946C089B01AC01C701B601A4
:100740000E94C2070E94930720E030E044E353E494
:100750000E9427092BED3FE049E450E40E94C207C4
:100760000E9434089B01DD2314F42C543F4F3323A3
:1007700014F428593E4FC901DF91CF91FF90EF90BB
:10078000DF90CF9008959C01215B3F4F2F393105B9
:1007900030F49B01215B3F4F2F393105E8F00E9477
:1007A00086039C012B5331402E323105C0F08E322E
:1007B0009105C0F0235F3E4F29353105B0F0295532
:1007C00031092B353105A0F0825E910989359105FB
:1007D00090F080E090E0089580E090E0089581E05E
:1007E00090E0089581E090E0089583E090E008951E
:1007F00082E090E0089584E090E0089586E090E043
:100800000E94D902682F70E080E090E00E946A08A0
:1008100020E030E048EC52E40E94270920E030E07C
:100820004FE753E40E94C2070E943408CB010895A9
:1008300087E090E00E94D902682F70E080E090E0AD
:100840000E946A0820E030E048EC52E40E94270948
:1008500020E030E04FE753E40E94C2070E943408D2
:10086000CB01089586B3817090E0089586B3869594
:10087000817090E0089586B38695869591E08927EA
:10088000817090E00895E0910201F091030180836E
:1008900008952091000130910101820F931FFC0106
:1008A0006083089590E0FC01EE0FFF1FEE0FFF1F25
:1008B000EE0FFF1FE256F040880F991F880F991F17
:1008C000880F991F8A559040A0910001B0910101B5
:1008D00024912C933196E817F907B1F70895EF9218
:1008E000FF920F931F93CF93DF93EC0188818823AE
:1008F000D9F1219606E213E00F2EF1E2EF2EF02D52
:100900000F2EFFE7FF2EF02D8A3049F58091260348
:10091000909127038630910529F4109227031092B5
:10092000260305C001969093270380932603E09148
:100930000201F0910301D8018C9180558083E091F0
:100940000201F0910301E082E0910201F0910301C4
:100950001082E0910201F0910301F08202C00E9436
:10096000520489918111D0CFDF91CF911F910F91C6
:10097000FF90EF90089528E030E050E840E00AC092
:10098000E0910001F091010110820197C9F7215017
:10099000310919F0852F942FF3CF089530EB50E0F3
:1009A00040E02FEFE0910201F09103013083852FA9
:1009B000942FE0910001F0910101E80FF91F2083CD
:1009C000019680389105A9F73F5F383B59F70895A4
:1009D000E0910201F09103018EEA8083E09102012F
:1009E000F091030181EA8083E0910201F09103011B
:1009F0008AED8083E0910201F091030182E180831E
:100A0000E0910201F091030188EC8083E091020102
:100A1000F091030188EA8083E0910201F0910301E3
:100A20008FE38083E0910201F091030185ED8083E3
:100A3000E0910201F091030180E88083E0910201DE
:100A4000F091030181E88083E0910201F0910301BC
:100A500080E58083E0910201F091030189ED8083BC
:100A6000E0910201F091030181E28083E0910201B3
:100A7000F091030190E29083E0910201F091030173
:100A80001082E0910201F09103018083E091020164
:100A9000F09103011082E0910201F09103018FE7D0
:100AA0008083E0910201F091030182E28083E09172
:100AB0000201F09103011082E0910201F091030123
:100AC00087E08083E0910201F09103018BED808348
:100AD000E0910201F091030180E38083E091020143
:100AE000F09103018DEA8083E0910201F09103010E
:100AF0001082E0910201F091030184EA8083E09189
:100B00000201F091030186EA8083E0910201F091F5
:100B100003018FEA80830895009721F19C012770DB
:100B20003327232B69F4BC01992314F4695F7F4FA9
:100B3000CB0195958795959587959595879508957A
:100B4000BC01072E000C880B990B0E946C0820E05A
:100B500030E040E05EE30E9427090E943408CB01A8
:100B60000196089581E090E00895CF92DF92EF9290
:100B7000FF920F931F93CF93DF938C017B018138FA
:100B800091050CF055C0613471050CF051C0CB01DA
:100B90000E948C05D82EC92EC701877090789923A2
:100BA00024F40197886F9F6F01960E948C05C2E024
:100BB000D0E0082E02C0CC0FDD1F0A94E2F7E091CE
:100BC0000201F09103012FEA2D0D20839F938F9353
:100BD000CF92DF92FF92EF921F930F9382E292E007
:100BE0009F938F930E94A50AC80101972DB73EB726
:100BF000265F3F4F0FB6F8943EBF0FBE2DBF1816AD
:100C0000190674F420E030E0E0910001F091010158
:100C1000E20FF31F10822F5F3F4F28173907A4F30D
:100C20002091000130910101F901E80FF91FC08303
:100C3000DF91CF911F910F91FF90EF90DF90CF90B8
:100C40000895CF93DF93CDB7DEB72C970FB6F89406
:100C5000DEBF0FBECDBF82E492E09A83898384E633
:100C600092E09C838B8386E892E09E838D8389EA61
:100C700092E098878F838DED92E09A87898780E054
:100C800093E09C878B870E94BB0482E492E00E94E1
:100C90006F040E94E4026B017C01A12CB12C0F2E89
:100CA000F3E06F2E712CF02D0F2EFDE38F2EF2E06E
:100CB0009F2EF02D6894442441F8512CC701B601B1
:100CC0000E942E038C01C701B6010E94F502B801F3
:100CD0000E94C3030497D1F5C501B3010E942A07FE
:100CE0009F938F939F928F920E94A50A8FEFA81ACD
:100CF000B80A0E94BB04C501B3010E942A07FC0187
:100D0000EE0FFF1F81E090E08C0F9D1FE80FF91F91
:100D1000808191810E946F040F900F900F900F902F
:100D200006C083ED90E30197F1F700C00000C70112
:100D3000B6010E942E038C01C701B6010E94F50284
:100D4000B8010E94C303892B61F74EC0C701B601E9
:100D50000E942E038C01C701B6010E94F502B80162
:100D60000E94C303039709F03FC0C501B3010E946D
:100D70002A079F938F939F928F920E94A50A91E0DA
:100D8000A91AB1080F900F900F900F908FEFA8162F
:100D9000B80611F4A42CB52C0E94BB04C501B30104
:100DA0000E942A07FC01EE0FFF1F81E090E08C0FEC
:100DB0009D1FE80FF91F808191810E946F0406C07A
:100DC00083ED90E30197F1F700C00000C701B60181
:100DD0000E942E038C01C701B6010E94F502B801E2
:100DE0000E94C303892B61F7C701B6010E942E033D
:100DF0008C01C701B6010E94F502B8010E94C3032D
:100E0000019709F05BCF0E94BB04C501B3010E94AA
:100E10002A078C01FC01EE0FFF1F81E090E08C0F90
:100E20009D1FE80FF91F868197810E946F040E9421
:100E30003B04892BE1F30E94BB04000F111FE1E08A
:100E4000F0E0EC0FFD1FE00FF11F808191810E9407
:100E50006F0434CF97FB072E16F4009407D077FD6C
:100E600009D00E945D0707FC05D03EF4909581955E
:100E70009F4F0895709561957F4F0895052E97FBBC
:100E80001EF400940E94550757FD07D00E94710779
:100E900007FC03D04EF40C945507509540953095BF
:100EA00021953F4F4F4F5F4F0895909580957095D6
:100EB00061957F4F8F4F9F4F0895AA1BBB1B51E138
:100EC00007C0AA1FBB1FA617B70710F0A61BB70BBA
:100ED000881F991F5A95A9F780959095BC01CD015F
:100EE0000895A1E21A2EAA1BBB1BFD010DC0AA1F6B
:100EF000BB1FEE1FFF1FA217B307E407F50720F083
:100F0000A21BB30BE40BF50B661F771F881F991FFD
:100F10001A9469F760957095809590959B01AC0146
:100F2000BD01CF010895DF93DD27B92FBF7740E8DA
:100F30005FE31616170648075B0718F4D92F0E94BF
:100F40001F099F938F937F936F930E949409E0E70B
:100F5000F0E00E94B0080E94E5082F913F914F9168
:100F60005F910E943A09DD2351F09058A2EA2AEDE0
:100F70003FE049EC5FE3D0785D270E94A909DF914B
:100F80000C94E5080E94D6070C94E5080E94DE0840
:100F900058F00E94D70840F029F45F3F29F00C94E4
:100FA000A70851110C9419090C94AD080E94F60879
:100FB00068F39923B1F3552391F3951B550BBB2788
:100FC000AA2762177307840738F09F5F5F4F220FCD
:100FD000331F441FAA1FA9F335D00E2E3AF0E0E8C4
:100FE00032D091505040E695001CCAF72BD0FE2F0E
:100FF00029D0660F771F881FBB1F261737074807A2
:10100000AB07B0E809F0BB0B802DBF01FF27935859
:101010005F4F3AF09E3F510578F00C94A7080C946E
:1010200019095F3FE4F3983ED4F386957795679569
:10103000B795F7959F5FC9F7880F911D969587958E
:1010400097F90895E1E0660F771F881FBB1F6217AD
:1010500073078407BA0720F0621B730B840BBA0B6B
:10106000EE1F88F7E09508950E943B086894B1113F
:101070000C94190908950E94FE0888F09F5798F073
:10108000B92F9927B751B0F0E1F0660F771F881F8D
:10109000991F1AF0BA95C9F714C0B13091F00E94A7
:1010A0001809B1E008950C941809672F782F882744
:1010B000B85F39F0B93FCCF3869577956795B395CE
:1010C000D9F73EF490958095709561957F4F8F4F3D
:1010D0009F4F0895E89409C097FB3EF49095809542
:1010E000709561957F4F8F4F9F4F9923A9F0F92FEE
:1010F00096E9BB279395F695879577956795B7956C
:10110000F111F8CFFAF4BB0F11F460FF1BC06F5F51
:101110007F4F8F4F9F4F16C0882311F096E911C063
:10112000772321F09EE8872F762F05C0662371F084
:1011300096E8862F70E060E02AF09A95660F771F98
:10114000881FDAF7880F9695879597F9089597F98C
:101150009F6780E870E060E008959FEF80EC08955D
:10116000DF93CF931F930F93FF92EF92DF927B0158
:101170008C01689406C0DA2EEF010E943A09FE0144
:10118000E894A5912591359145915591A6F3EF01EC
:101190000E94A909FE019701A801DA9469F7DF907E
:1011A000EF90FF900F911F91CF91DF910895002450
:1011B0000A941616170618060906089500240A94BC
:1011C00012161306140605060895092E0394000C42
:1011D00011F4882352F0BB0F40F4BF2B11F460FFD1
:1011E00004C06F5F7F4F8F4F9F4F089557FD9058FA
:1011F000440F551F59F05F3F71F04795880F97FBDB
:10120000991F61F09F3F79F0879508951216130694
:101210001406551FF2CF4695F1DF08C016161706C3
:101220001806991FF1CF86957105610508940895F8
:10123000E894BB2766277727CB0197F908959B0190
:10124000AC0160E070E080E89FE30C94C2070E946C
:101250003A090C94E5080E94D70838F00E94DE088D
:1012600020F0952311F00C94A7080C94AD081124DC
:101270000C9419090E94F60870F3959FC1F3950F1D
:1012800050E0551F629FF001729FBB27F00DB11D0A
:10129000639FAA27F00DB11DAA1F649F6627B00D9A
:1012A000A11D661F829F2227B00DA11D621F739F83
:1012B000B00DA11D621F839FA00D611D221F749F91
:1012C0003327A00D611D231F849F600D211D822FD8
:1012D000762F6A2F11249F5750409AF0F1F08823FF
:1012E0004AF0EE0FFF1FBB1F661F771F881F91502C
:1012F0005040A9F79E3F510580F00C94A7080C942C
:1013000019095F3FE4F3983ED4F386957795679586
:10131000B795F795E7959F5FC1F7FE2B880F911D55
:101320009695879597F908959B01AC010C94270930
:101330000E94D70838F00E94DE0820F039F49F3F61
:1013400019F426F40C94AD080EF4E095E7FB0C9428
:10135000A708E92F0E94F60858F3BA176207730727
:101360008407950720F079F4A6F50C9418090EF47B
:10137000E0950B2EBA2FA02D0B01B90190010C01A5
:10138000CA01A0011124FF27591B99F0593F50F4BD
:10139000503E68F11A16F040A22F232F342F442715
:1013A000585FF3CF469537952795A795F04053950D
:1013B000C9F77EF41F16BA0B620B730B840BBAF0DD
:1013C0009150A1F0FF0FBB1F661F771F881FC2F748
:1013D0000EC0BA0F621F731F841F48F4879577955C
:1013E0006795B795F7959E3F08F0B0CF9395880F16
:1013F00008F09927EE0F9795879508958F929F9201
:10140000AF92BF92CF92DF92EF92FF92CF93DF9392
:10141000EC01688179818A819B8161157105810563
:10142000910521F464E279ED8BE597E02DE133EF4E
:1014300041E050E00E943E0749015A019B01AC0186
:10144000A7EAB1E40E94890E6B017C01ACEEB4EF17
:10145000A50194010E94970EDC01CB018C0D9D1D0E
:10146000AE1DBF1DB7FF03C00197A109B048888317
:101470009983AA83BB839F77DF91CF91FF90EF90F1
:10148000DF90CF90BF90AF909F908F9008950E9473
:10149000FE09089584E091E00E94FE090895A0E00D
:1014A000B0E08093040190930501A0930601B093EE
:1014B000070108950F931F93CF93DF93009731F4A3
:1014C0006115710519F480E090E03AC08B01EC01E0
:1014D0006EE070E081E090E00E948D0CFC01892BB1
:1014E00091F380E883830115110571F0138702875A
:1014F00081E883838091280390912903892B21F42B
:10150000F0932903E09328032097C9F0D187C0877F
:1015100083818260838380912A0390912B03892B9E
:1015200071F4F0932B03E0932A0380912C039091A4
:101530002D03892B21F4F0932D03E0932C03CF018D
:10154000DF91CF911F910F910895A0E0B0E0EBEAF9
:10155000FAE00C94AC0EAE014B5F5F4FFA01619163
:101560007191AF0180912A0390912B030E94BB0AD5
:10157000E2E00C94C80EACE0B0E0E1ECFAE00C94D0
:101580009C0E7C016B018A01FC011782168283810B
:1015900081FFBDC1CE0101964C01F7019381F60197
:1015A00093FD859193FF81916F01882309F4ABC16D
:1015B000853239F493FD859193FF81916F018532D6
:1015C00029F4B70190E00E94F30DE7CF512C312CA4
:1015D00020E02032A0F48B3269F030F4803259F0F0
:1015E000833269F420612CC08D3239F0803339F4B4
:1015F000216026C02260246023C0286021C027FD0E
:1016000027C030ED380F3A3078F426FF06C0FAE0F4
:101610005F9E300D1124532E13C08AE0389E300D8A
:101620001124332E20620CC08E3221F426FD6BC1B2
:10163000206406C08C3611F4206802C0883641F45C
:10164000F60193FD859193FF81916F018111C1CFC7
:10165000982F9F7D9554933028F40C5F1F4FFFE324
:10166000F9830DC0833631F0833771F0833509F08B
:101670005BC022C0F801808189830E5F1F4F442424
:101680004394512C540115C03801F2E06F0E711CC7
:10169000F801A080B18026FF03C0652D70E002C074
:1016A0006FEF7FEFC5012C870E94E80D2C018301AD
:1016B0002C852F77222E17C03801F2E06F0E711C97
:1016C000F801A080B18026FF03C0652D70E002C044
:1016D0006FEF7FEFC5012C870E94D60D2C012C8562
:1016E0002068222E830123FC1BC0832D90E0481626
:1016F0005906B0F4B70180E290E00E94F30D3A94ED
:10170000F4CFF50127FC859127FE81915F01B70198
:1017100090E00E94F30D31103A94F1E04F1A510815
:101720004114510471F7E5C0843611F0893639F55A
:10173000F80127FF07C060817181828193810C5F6E
:101740001F4F08C060817181072E000C880B990B18
:101750000E5F1F4F2F76722E97FF09C090958095D0
:10176000709561957F4F8F4F9F4F2068722E2AE0B2
:1017700030E0A4010E942B0EA82EA81844C0853783
:1017800029F42F7EB22E2AE030E025C0F22FF97F17
:10179000BF2E8F36C1F018F4883579F0B4C0803789
:1017A00019F0883721F0AFC02F2F2061B22EB4FE80
:1017B0000DC08B2D8460B82E09C024FF0AC09F2F56
:1017C0009660B92E06C028E030E005C020E130E088
:1017D00002C020E132E0F801B7FE07C060817181EC
:1017E000828193810C5F1F4F06C06081718180E010
:1017F00090E00E5F1F4FA4010E942B0EA82EA81888
:10180000FB2DFF777F2E76FE0BC0372D3E7FA51474
:1018100050F474FE0AC072FC08C0372D3E7E05C02D
:10182000BA2C372D03C0BA2C01C0B52C34FF0DC023
:10183000FE01EA0DF11D8081803311F4397E09C06B
:1018400032FF06C0B394B39404C0832F867809F0A6
:10185000B39433FD13C030FF06C05A2CB31418F4F0
:10186000530C5B18B32CB31468F4B70180E290E01A
:101870003C870E94F30DB3943C85F5CFB31410F46C
:101880003B1801C0312C34FF12C0B70180E390E057
:101890003C870E94F30D3C8532FF17C031FD03C029
:1018A00088E790E002C088E590E0B7010CC0832F84
:1018B000867859F031FF02C08BE201C080E237FD2B
:1018C0008DE2B70190E00E94F30DA51438F4B70142
:1018D00080E390E00E94F30D5A94F7CFAA94F401AC
:1018E000EA0DF11D8081B70190E00E94F30DA11077
:1018F000F5CF332009F451CEB70180E290E00E9489
:10190000F30D3A94F6CFF7018681978102C08FEFED
:101910009FEF2C96E2E10C94B80E0F931F93CF9398
:10192000DF93869F8001879F100D969F100D1124D5
:10193000C8010E94A90CEC01009729F0A80160E001
:1019400070E00E94E10DCE01DF91CF911F910F91C8
:101950000895CF93DF938230910510F482E090E0F8
:10196000E0913003F091310320E030E0C0E0D0E0BE
:10197000309711F14081518148175907C0F048173D
:10198000590761F482819381209719F09B838A83A0
:101990002BC0909331038093300326C0211531056D
:1019A00019F04217530718F49A01BE01DF01EF0145
:1019B0000280F381E02DDCCF2115310509F1281BD0
:1019C000390B2430310590F412968D919C91139728
:1019D0006115710521F0FB019383828304C090930C
:1019E000310380933003FD01329644C0FD01E20FC4
:1019F000F31F81939193225031092D933C933AC068
:101A000020912E0330912F03232B41F420910A01C2
:101A100030910B0130932F0320932E032091080166
:101A2000309109012115310541F42DB73EB74091A0
:101A30000C0150910D01241B350BE0912E03F09108
:101A40002F03E217F307A0F42E1B3F0B28173907CB
:101A500078F0AC014E5F5F4F2417350748F04E0F0A
:101A60005F1F50932F0340932E038193919302C0E5
:101A7000E0E0F0E0CF01DF91CF9108950F931F9345
:101A8000CF93DF93009709F48CC0FC013297138247
:101A9000128200913003109131030115110581F478
:101AA00020813181820F931F20912E0330912F03CB
:101AB0002817390779F5F0932F03E0932E0371C0AF
:101AC000D80140E050E0AE17BF0750F412962D91B8
:101AD0003C911397AD012115310509F1D901F3CFDF
:101AE0009D01DA013383228360817181860F971F04
:101AF0008217930769F4EC0128813981260F371F7B
:101B00002E5F3F4F318320838A819B819383828321
:101B1000452B29F4F0933103E093300342C0139630
:101B2000FC93EE931297ED01499159919E01240F78
:101B3000351FE217F30771F480819181840F951F9F
:101B4000029611969C938E938281938113969C9317
:101B50008E931297E0E0F0E0D80112968D919C915F
:101B60001397009719F0F8018C01F6CF8D919C9195
:101B700098012E5F3F4F820F931F20912E033091CB
:101B80002F032817390769F4309729F4109231038D
:101B90001092300302C01382128210932F0300931D
:101BA0002E03DF91CF911F910F910895FC010590B5
:101BB000615070400110D8F7809590958E0F9F1F4F
:101BC0000895DC0101C06D9341505040E0F7089545
:101BD000FC016150704001900110D8F780959095FC
:101BE0008E0F9F1F08950F931F93CF93DF93FB01D9
:101BF000238121FD03C08FEF9FEF28C022FF16C075
:101C000046815781248135814217530744F4A081CE
:101C1000B1819D012F5F3F4F318320838C932681BB
:101C200037812F5F3F4F3783268310C0EB01092F89
:101C3000182F0084F185E02D0995892BE1F68E811E
:101C40009F8101969F838E83812F902FDF91CF916B
:101C50001F910F910895FA01AA27283051F12031E0
:101C600081F1E8946F936E7F6E5F7F4F8F4F9F4F30
:101C7000AF4FB1E03ED0B4E03CD0670F781F891F72
:101C80009A1FA11D680F791F8A1F911DA11D6A0F40
:101C9000711D811D911DA11D20D009F468943F91F3
:101CA0002AE0269F11243019305D3193DEF6CF01F2
:101CB0000895462F4770405D4193B3E00FD0C9F7B8
:101CC000F6CF462F4F70405D4A3318F0495D31FD25
:101CD0004052419302D0A9F7EACFB4E0A695979578
:101CE000879577956795BA95C9F70097610571054E
:101CF00008959B01AC010A2E069457954795379598
:101D00002795BA95C9F7620F731F841F951FA01DF1
:101D100008950E94D30EA59F900DB49F900DA49F8F
:101D2000800D911D11240895B7FF0C94890E0E9417
:101D3000890E821B930B08952F923F924F925F92D0
:101D40006F927F928F929F92AF92BF92CF92DF92CB
:101D5000EF92FF920F931F93CF93DF93CDB7DEB730
:101D6000CA1BDB0B0FB6F894DEBF0FBECDBF0994C4
:101D70002A88398848885F846E847D848C849B841B
:101D8000AA84B984C884DF80EE80FD800C811B8129
:101D9000AA81B981CE0FD11D0FB6F894DEBF0FBE58
:101DA000CDBFED010895A29FB001B39FC001A39FD5
:101DB000700D811D1124911DB29F700D811D112484
:081DC000911D0895F894FFCF76
:101DC8000012001001000000000032032000484506
:101DD80049200A0D006A6F79737469636B3A20258C
:101DE800642C200A0D005374617274696E67205365
:101DF80052414D20746573742E2E2E0A0D005772B1
:101E0800697465207068617365206572726F723AD3
:101E1800206578745F72616D5B2534645D203D20B8
:101E280025303258202873686F756C6420626520ED
:101E380025303258290A0D00526574726965766139
:101E48006C207068617365206572726F723A2065E4
:101E580078745F72616D5B2534645D203D202530A8
:101E68003258202873686F756C64206265202530AD
:101E78003258290A0D005352414D2074657374205D
:101E8800636F6D706C657465642077697468200A87
:101E98000D253464206572726F727320696E207725
:101EA8007269746520706861736520616E64200AC8
:101EB8000D253464206572726F727320696E20720A
:101EC800657472696576616C2070686173650A0A69
:101ED8000D0052004C00550044004E006572726FB0
:101EE8007200783A2025642C20793A2025642C2029
:101EF8006C696E653A2025642C20613A2025640AB5
:101F08000D000A2D3E666F727374650A2020616E9B
:101F18006472650A2020747265646A650A200A2062
:101F28000A200A000A2020666F727374650A2D3E23
:101F3800616E6472650A2020747265646A650A209D
:101F48000A200A200A000A2020666F727374650A44
:101F58002020616E6472650A2D3E747265646A653C
:101F68000A200A200A200A20000A204465747465A1
:101F7800206572206661656E0A206D6567200A20FB
:101F8800666F72737465200A206D656E79656C657D
:101F98006D656E742120200A200A200A000A206F2D
:101FA800696F692065722064657474650A20616EC2
:101FB8006472653F3F200A200A200A200A200A008E
:101FC8000A20776F77206465747465206572200A2B
:101FD80020747265646A65206A6F20200A200A20CE
:061FE8000A200A200A0095
:00000001FF
