:100000000C94EC000C940D010C940D010C940D015A
:100010000C940D010C940D010C940D010C940D0128
:100020000C940D010C940D010C940D010C940D0118
:100030000C940D010C940D010C940D010C940D0108
:100040000C940D010C940D010C940D010C940D01F8
:100050000C940D010C940D010C940D010C940D01E8
:100060000C940D010C940D010C940D010C940D01D8
:100070000C940D010C940D010C940D010C940D01C8
:100080000C940D010C940D010C940D010C940D01B8
:100090000C940D010C940D010C940D010C9463044F
:1000A0000C940D010C940D010C940D010C940D0198
:1000B0000C940D010C940D010C940D010C940D0188
:1000C0000C940D010C940D010C940D010C940D0178
:1000D0000C940D010C940D010C940D010C940D0168
:1000E0000C940D018204D404D404D404D404D404A4
:1000F000D404D4048204D404D404D404D404D40492
:10010000D404D4048404D404D404D404D404D4047F
:10011000D404D404D404D404D404D404D404D4041F
:10012000D404D4048404D404D404D404D404D4045F
:10013000D404D404D404D404D404D404D404D404FF
:10014000D404D404D004D404D404D404D404D404F3
:10015000D404D404AD04D404D404D404D404D40406
:10016000D404D404D404D404D404D404D404D404CF
:10017000D404D404A104D404D404D404D404D404F2
:10018000D404D404BF04084AD73B3BCE016E84BCE0
:10019000BFFDC12F3D6C74319ABD56833DDA3D00E1
:1001A000C77F11BED9E4BB4C3E916BAAAABE00002A
:1001B00000803F000C94D0040C944E030C94AD04CA
:1001C0000C94A1040C9444030C94D4040C94820465
:1001D0000C94BF040C94840411241FBECFEFD1E211
:1001E000DEBFCDBF00E00CBF12E0A0E0B2E0EEE168
:1001F000F1E200E00BBF02C007900D92AA3BB107ED
:10020000D9F722E0AAEBB2E001C01D92A53EB207E9
:10021000E1F70E940F010C948D100C940000EF92F6
:10022000FF920F931F93CF93DF93CDB7DEB72E9737
:100230000FB6F894DEBF0FBECDBF80E895E20E94F6
:10024000590387E092E09F938F930E94820C0E9453
:1002500089030E9430030E9497010E94FE070E94BA
:10026000BC030E94EA040E94BB060E940405789425
:100270008EE092E09F938F930E94820C85E192E042
:100280009F938F930E94820C0F900F900F900F906E
:100290000F900F9007E212E00F2EFCECEF2EF2E031
:1002A000FF2EF02D1F930F930E94820C0E94790263
:1002B000F70183810F900F90823569F488E392E013
:1002C0009F938F930E94820C80E090E00E940D0823
:1002D0000F900F9012C0853469F48FE392E09F93E2
:1002E0008F930E94820C81E090E00E940D080F9095
:1002F0000F9003C0F7011382D5CF1092CF02AE0149
:100300004F5F5F4F6AE070E08AEF90E00E94420723
:1003100080E090E02E960FB6F894DEBF0FBECDBF02
:10032000DF91CF911F910F91FF90EF9008950E9460
:1003300030030E940E0340E660E780E60E94160349
:1003400042E06BE282E00E94160340E06FE080EE44
:100350000E9416030895EF92FF920F931F93CF937D
:10036000DF93CDB7DEB72B970FB6F894DEBF0FBE85
:10037000CDBFE982FA820B831C832D833E834F839A
:10038000588769877A878B87E980FA80B7017695E5
:100390006795769567957695679581E30E94CD027E
:1003A0004E2D4295440F407E62E380EE0E9416037C
:1003B0004B8165E38FE00E9416037E0184E0E80E26
:1003C000F11C16E3F70161917F01812F0E94CD029C
:1003D0001F5F1E33B9F781E00E94F1022B960FB622
:1003E000F894DEBF0FBECDBFDF91CF911F910F916B
:1003F000FF90EF90089563E080E30E94E10208958A
:100400008F929F92AF92BF92CF92DF92EF92FF9224
:100410000F931F93CF93DF93CDB7DEB72B970FB614
:10042000F894DEBF0FBECDBF4C0161E08CE20E94AC
:10043000E102892BB9F181E70E94BB02A82E82E775
:100440000E94BB02829586958770B12CAA0CBB1CBA
:10045000AA0CBB1CAA0CBB1CA82A85E70E94BB02E5
:10046000082F0F70093008F008E00023A9F07E0182
:1004700084E0E80EF11C9E01200F311DF901349635
:100480006F0116E7812F0E94BB02F70181937F0164
:100490001F5FEC15FD05B1F740E06CE283E00E94C0
:1004A000160308C086E492E09F938F930E94820C0B
:1004B0000F900F90BA82A9820B838BE0FE013196D8
:1004C000D40101900D928A95E1F7C4012B960FB6E5
:1004D000F894DEBF0FBECDBFDF91CF911F910F917A
:1004E000FF90EF90DF90CF90BF90AF909F908F9054
:1004F0000895CF93DF93CDB7DEB72B970FB6F8945F
:10050000DEBF0FBECDBF61E08CE20E94E10200972A
:1005100029F1CE0101960E94000289819A818130E1
:10052000910561F48BE0FE013196A1ECB2E00190FF
:100530000D928A95E1F781E090E010C0029761F496
:100540008BE0FE013196ACECB2E001900D928A9501
:10055000E1F782E090E002C080E090E02B960FB6D9
:10056000F894DEBF0FBECDBFDF91CF9108952F98D5
:1005700008952F9A0895CF93C82F0E94B70283E061
:100580000E943A038C2F0E943A030E943F03C82F17
:100590000E94B9028C2FCF910895CF93DF93D82F6B
:1005A000C62F0E94B70282E00E943A038D2F0E945C
:1005B0003A038C2F0E943A030E94B902DF91CF9137
:1005C0000895CF93C62F0E94BB0290E021E030E057
:1005D00002C0220F331FCA95E2F782239323CF91E3
:1005E0000895CF93C82F0E94B7028C2F80680E9475
:1005F0003A030E94B902CF910895CF930E94B702A7
:1006000080EA0E943A030E943F03C82F80E00E94C4
:100610003A030E94B9028C2FCF9108950E94B7022D
:1006200080EC0E943A030E94B90208951F93CF9371
:10063000DF93D82F162FC42F0E94B70285E00E94A7
:100640003A03812F0E943A038D2F0E943A038C2F88
:100650000E943A030E94B902DF91CF911F91089541
:1006600084B1876884B98CB581618CBD8CB5806498
:100670008CBD08958EBD0DB407FEFDCF08958FEF9C
:100680000E943A038EB50895E0ECF0E0908195FF6A
:10069000FDCF8093C60080E090E008958091C00077
:1006A000882324F48091C60090E0089580E090E0D3
:1006B000089582959295907F9827807F98279C0136
:1006C00040E050E060E074E284EF90E00E94460970
:1006D000CA01B90161507109810991090E940B0B8E
:1006E0002AE939E949E15EE30E94C60B0E94D30A78
:1006F0007093C5006093C40088E18093C1008EE0D0
:100700008093C2006EE473E084E493E00E94370CAF
:100710000895259AE0E8F0E0808182608083A1E876
:10072000B0E08C9188618C93808180688083808127
:10073000806480838C9184608C9382EE94E09093AB
:1007400087008093860008959C01265634402C3300
:10075000310538F4909389008093880081E090E01F
:10076000089583E592E09F938F930E94820C0F90EF
:100770000F908FEF9FEF08958298EAE7F0E0808175
:1007800080688083808187608083ECE7F0E08081EF
:100790008F7D80838081806C8083089583B1829572
:1007A00086958695837091E08927817090E0089501
:1007B000ECE7F0E0808182608083EAE7F0E080810E
:1007C00080648083808186FDFDCF209178008091B8
:1007D000790090E0982F8827820F911D08950E943C
:1007E000D80321E08436910508F020E0822F089597
:1007F0008CE08093B8008FEF8093BB0084E08093FF
:10080000BC0008958091BC0081700895ECEBF0E08D
:10081000808180FDFDCF809100020895CF93DF930A
:10082000EC01ECEBF0E0908190FDFDCF6093BC0219
:1008300098819093BD0290FD13C0623088F0FE0154
:100840003196AEEBB2E06250262F30E02E5F3F4F84
:10085000CE01820F931F21912D93E817F907D9F745
:100860001092BA0288EF8093000285EA8093BC0060
:10087000DF91CF910895ECEBF0E0808180FDFDCF1A
:100880001092BA0288EF8093000285EA8093BC0040
:100890000895ECEBF0E0208120FDFDCF2091BA021D
:1008A00020FF0DC0662359F02DEB32E0A82FB92FA1
:1008B000F90181918D938E2F821B8617D0F3809141
:1008C000BA02817008951F920F920FB60F921124F1
:1008D0000BB60F922F933F938F939F93AF93BF933A
:1008E000EF93FF93E091B9008E2F90E0FC013897D1
:1008F000E135F10508F058C08827EE58FF4F8F4FBB
:100900000C9465091092BB02E091BB028091BC027D
:10091000E81770F481E08E0F8093BB02F0E0E3549F
:10092000FD4F80818093BB0085E88093BC0043C06D
:100930008091BA0281608093BA0284E98093BC00FE
:100940003AC0E091BB0281E08E0F8093BB028091A0
:10095000BB00F0E0E354FD4F80832091BB0230E008
:100960008091BC0290E001972817390724F485ECA8
:100970008093BC0020C085E88093BC001CC080919F
:10098000BB00E091BB02F0E0E354FD4F8083809117
:10099000BA0281608093BA0284E98093BC000BC0E4
:1009A00085EA8093BC0007C08091B9008093000263
:1009B00084E08093BC00FF91EF91BF91AF919F9134
:1009C0008F913F912F910F900BBE0F900FBE0F9004
:1009D0001F9018950E94F8038AB183608AB9089520
:1009E000CF93DF9300D0CDB7DEB790E599831A821D
:1009F0008B8363E0CE0101960E940E040F900F904E
:100A00000F90DF91CF910895CF93DF938091C10232
:100A10009091C202019741F0C1ECD2E00E947902AC
:100A2000888199810197D1F784E890E09093DA0268
:100A30008093D9029093D8028093D702DF91CF910F
:100A400008958091C40290E008958091C50290E0DD
:100A50000895CF92DF92EF92FF92CF93DF93C091F0
:100A6000D902D091DA026091C40270E080E090E097
:100A70000E94090B6B017C01BE01DD0F880B990BF5
:100A80000E940B0B9B01AC01C701B6010E94C50976
:100A90000E94D30A77237CF0072E000C880B990B59
:100AA0000E940B0B24EA30E74DE35FE30E94610AEA
:100AB0000E94D30A0EC0072E000C880B990B0E94CF
:100AC0000B0B23E333E343EB5FE30E94610A0E94D5
:100AD000D30ACB010496099710F460E070E06C39FA
:100AE0008FEF780714F46CE97FEFCB016536710561
:100AF00014F084E690E0DF91CF91FF90EF90DF90CB
:100B0000CF900895CF92DF92EF92FF92CF93DF9331
:100B1000C091D702D091D8026091C50270E080E008
:100B200090E00E94090B6B017C01BE01DD0F880B78
:100B3000990B0E940B0B9B01AC01C701B6010E94EF
:100B4000C5090E94D30A77237CF0072E000C880B7E
:100B5000990B0E940B0B28EB3EE145E45FE30E94FA
:100B6000610A0E94D30A0EC0072E000C880B990B55
:100B70000E940B0B23E333E343EB5FE30E94610A24
:100B80000E94D30ACB010496099710F460E070E04C
:100B90006C398FEF780714F46CE97FEFCB01653681
:100BA000710514F084E690E0DF91CF91FF90EF9013
:100BB000DF90CF900895009771F08130910571F02A
:100BC0008230910571F08330910571F0049779F0CE
:100BD00081E692E0089587E592E0089589E592E044
:100BE00008958BE592E008958DE592E008958FE5F4
:100BF00092E00895CF92DF92EF92FF92CF93DF932E
:100C00000E942905EC010E948205BC01990F880B06
:100C1000990B0E940B0B6B017C01BE010D2E000C89
:100C2000880B990B0E940B0B9B01AC01C701B6010D
:100C30000E94610A0E94320A20E030E044E353E45B
:100C40000E94C60B2BED3FE049E450E40E94610A8C
:100C50000E94D30A9B01DD2314F42C543F4F33230D
:100C600014F428593E4FC901DF91CF91FF90EF90C6
:100C7000DF90CF900895CF93DF930E942905EC0178
:100C80000E9482059E01215B3F4F2F39310530F4D0
:100C90009C01215B3F4F2F393105F8F0BC01CE019B
:100CA0000E94FA059C012B5331402E323105C0F0D1
:100CB0008E329105C0F0235F3E4F29353105B0F0EB
:100CC000295531092B353105A0F0825E910989350E
:100CD000910590F080E090E011C080E090E00EC0BF
:100CE00081E090E00BC081E090E008C083E090E0FC
:100CF00005C082E090E002C084E090E0DF91CF91F7
:100D000008958091C60290E008958091C70290E016
:100D100008958091C80290E008958091CA0290E001
:100D200008958091C90290E008958C599F4FBC01AD
:100D300012F46F5F7F4F75956795072E000C880B37
:100D4000990B0E940B0B20E030E04CE652E40E942D
:100D5000C60B20E030E048EC52E40E94610A20E03B
:100D600030EC4CE854E40E94C6090E94D30ACB013F
:100D70000E94A4030895E1E0F1E080818261808314
:100D8000808188668083E2E0F1E0808180618083F9
:100D90000895CF93DF93EC01DF93CF9387E692E042
:100DA0009F938F930E94820C0F900F900F900F9043
:100DB000CB30D1054CF0E2E0F1E0808182608083AD
:100DC0008C2F0E94F00411C0C63F8FEFD80754F457
:100DD0008C2F81950E94F004E2E0F1E080818D7F0C
:100DE000808303C080E00E94F004DF91CF910895DA
:100DF000CF93DF93F89410920701E2E0F1E0808155
:100E00008F7D80838081877F808387E893E101974E
:100E1000F1F700C00000A6E0B1E08C9190E0982FBF
:100E20008827208128602083C7E8D3E12197F1F744
:100E300000C000003C91A7E8B3E11197F1F700C0B2
:100E40000000208120642083208120622083789408
:100E5000832BDF91CF9108950E94F806BC0180E0BA
:100E600090E00E94090B2DEC3CE44FEA52E40E9412
:100E7000610A0E94D30ACB016F36710514F080E03D
:100E800090E00895CF93DF939B01EA0118821982C5
:100E90001A821B829D838C837F836E83BC016F5F6C
:100EA0007F4F8FEF9FE70E943209798768872F5F16
:100EB0003F4F032E000C440B550B6FEF7FEF8FEF6E
:100EC0009FE30E9446092A873B874C875D87DF9115
:100ED000CF9108950F931F93CF93DF93EA01861B61
:100EE000970B8536910574F48C392FEF92076CF0CF
:100EF0002C813D81829FF001839FF00D929FF00D28
:100F0000112405C0E4E6F0E002C0ECE9FFEF092E91
:100F1000000CAA0BBB0B488159816A817B819A0125
:100F2000AB01280F391F4A1F5B1F8A859B85AC8543
:100F3000BD8582179307A407B5074CF4888399836E
:100F4000AA83BB836FEF7FEF8FEF9FE31DC0B09548
:100F5000A095909581959F4FAF4FBF4F28173907A8
:100F60004A075B074CF488839983AA83BB8361E0BB
:100F700070E080E090EC08C0288339834A835B836B
:100F8000AE81BF810E946D098F01FF0F220B330BD1
:100F9000AB01BC01400F511F621F731FDB01CA016F
:100FA000772324F481589F4FAF4FBF4F689416F8B2
:100FB000B595A795979587951694D1F7813020E838
:100FC00092072FEFA207B20724F481E090E8AFEF79
:100FD000BFEF811520E89207A105B10524F08FEF3E
:100FE0009FE7A0E0B0E0DF91CF911F910F910895AE
:100FF000FC0110821182128213820895249A2C9A85
:1010000008952C982FEB85E494E021508040904087
:10101000E1F700C000002C9A08952F923F924F9262
:101020005F926F927F928F929F92AF92BF92CF9278
:10103000DF92EF92FF920F931F93CF93DF93CDB781
:10104000DEB769970FB6F894DEBF0FBECDBF5C0167
:10105000AE014F5F5F4F6AE070E08AEF90E00E9460
:10106000420783E090E0988B8F8786E0898B81E050
:101070008A8B0F2EF3E7CF2EF2E0DF2EF02D0F2E0E
:10108000F0E9EF2EF2E0FF2EF02D08E912E0212C1E
:10109000312C9E012F5F3F4F29010F2EF2E38F2E3F
:1010A000912CF02D0F2EF7EA6F2EF2E07F2EF02D0F
:1010B0000E9479029F938F93DF92CF920E94820CBD
:1010C0000E9425059F938F93FF92EF920E94820CBE
:1010D0000E94D8039F938F931F930F930E94820CBB
:1010E0000E9479020FB6F894DEBF0FBECDBF91E02B
:1010F000A916B10439F40E94F8060E948906842DCD
:10110000952D08C0A114B10419F40E94290502C04C
:10111000822D932D0E94C9060E9489069401281BE6
:10112000390BC901880F991F0E9495060E948106FC
:10113000892BF9F07F926F920E94820C0E94010825
:101140000F900F9016C081EB92E09F938F930E94B7
:10115000820CEF84F88809891A892B893C894D898A
:101160005E896F89788D898D0E94AB010F900F90F9
:1011700007C00E94D8038536910508F099CFE3CFC8
:1011800069960FB6F894DEBF0FBECDBFDF91CF9149
:101190001F910F91FF90EF90DF90CF90BF90AF9095
:1011A0009F908F907F906F905F904F903F902F9087
:1011B0000895AF92BF92CF92DF92EF92FF920F937A
:1011C0001F93CF93DF936C0118161906ECF5E12CF1
:1011D000F12CCCE9DFEF02E011E00F2EFCE9AF2E9D
:1011E000F02DBB24BA94F80180818D7F808384E642
:1011F0000E94F004FFE724E88EE1F1502040804097
:10120000E1F700C00000F80190819260908384E6CD
:101210000E94F004FFE724E88EE1F1502040804076
:10122000E1F700C000000E940108E2969FEFE91A72
:10123000F90ACB35D10514F0CA2DDB2DCE010E9461
:101240009506EC14FD0479F680E00E94F004DF912D
:10125000CF911F910F91FF90EF90DF90CF90BF90B3
:10126000AF90089597FB072E16F4009407D077FDF2
:1012700009D00E94750907FC05D03EF49095819530
:101280009F4F0895709561957F4F0895052E97FBA8
:101290001EF400940E945D0957FD07D00E94890941
:1012A00007FC03D04EF40C945D09509540953095A1
:1012B00021953F4F4F4F5F4F0895909580957095C2
:1012C00061957F4F8F4F9F4F0895EE0FFF1F881F2F
:1012D0008BBF0790F691E02D1994B7FF0C94AB09E2
:1012E0000E94AB09821B930B0895AA1BBB1B51E103
:1012F00007C0AA1FBB1FA617B70710F0A61BB70B86
:10130000881F991F5A95A9F780959095BC01CD012A
:101310000895A1E21A2EAA1BBB1BFD010DC0AA1F36
:10132000BB1FEE1FFF1FA217B307E407F50720F04E
:10133000A21BB30BE40BF50B661F771F881F991FC9
:101340001A9469F760957095809590959B01AC0112
:10135000BD01CF0108950E94B609A59F900DB49FCD
:10136000900DA49F800D911D11240895A29FB0019E
:10137000B39FC001A39F700D811D1124911DB29FC9
:10138000700D811D1124911D08955058BB27AA2767
:101390000E94DD090C94840B0E94760B38F00E94A9
:1013A0007D0B20F039F49F3F19F426F40C944C0B7C
:1013B0000EF4E095E7FB0C94460BE92F0E94950B89
:1013C00058F3BA17620773078407950720F079F47A
:1013D000A6F50C94B70B0EF4E0950B2EBA2FA02DAA
:1013E0000B01B90190010C01CA01A0011124FF27D2
:1013F000591B99F0593F50F4503E68F11A16F040CD
:10140000A22F232F342F4427585FF3CF46953795CB
:101410002795A795F0405395C9F77EF41F16BA0B90
:10142000620B730B840BBAF09150A1F0FF0FBB1F3E
:10143000661F771F881FC2F70EC0BA0F621F731F87
:10144000841F48F4879577956795B795F7959E3FE4
:1014500008F0B0CF9395880F08F09927EE0F979575
:1014600087950895DF93DD27B92FBF7740E85FE3C5
:101470001616170648075B0718F4D92F0E94BE0BF3
:101480009F938F937F936F930E94330CE6E8F1E074
:101490000E944F0B0E94840B2F913F914F915F91BF
:1014A0000E94D90BDD2351F09058A2EA2AED3FE0CB
:1014B00049EC5FE3D0785D270E94DD09DF910C9451
:1014C000840B0E94750A0C94840B0E947D0B58F0CB
:1014D0000E94760B40F029F45F3F29F00C94460BF4
:1014E00051110C94B80B0C944C0B0E94950B68F3A3
:1014F0009923B1F3552391F3951B550BBB27AA27CD
:1015000062177307840738F09F5F5F4F220F331F06
:10151000441FAA1FA9F335D00E2E3AF0E0E832D0CE
:1015200091505040E695001CCAF72BD0FE2F29D0D1
:10153000660F771F881FBB1F261737074807AB07A3
:10154000B0E809F0BB0B802DBF01FF2793585F4F18
:101550003AF09E3F510578F00C94460B0C94B80B72
:101560005F3FE4F3983ED4F3869577956795B795FA
:10157000F7959F5FC9F7880F911D9695879597F905
:101580000895E1E0660F771F881FBB1F621773077E
:101590008407BA0720F0621B730B840BBA0BEE1F93
:1015A00088F7E09508950E94DA0A6894B1110C94C6
:1015B000B80B08950E949D0B88F09F5798F0B92FA3
:1015C0009927B751B0F0E1F0660F771F881F991F78
:1015D0001AF0BA95C9F714C0B13091F00E94B70B58
:1015E000B1E008950C94B70B672F782F8827B85F68
:1015F00039F0B93FCCF3869577956795B395D9F7D0
:101600003EF490958095709561957F4F8F4F9F4FD9
:101610000895E89409C097FB3EF4909580957095E5
:1016200061957F4F8F4F9F4F9923A9F0F92F96E92E
:10163000BB279395F695879577956795B795F111A3
:10164000F8CFFAF4BB0F11F460FF1BC06F5F7F4F40
:101650008F4F9F4F16C0882311F096E911C0772352
:1016600021F09EE8872F762F05C0662371F096E85B
:10167000862F70E060E02AF09A95660F771F881F2A
:10168000DAF7880F9695879597F9089597F99F67E8
:1016900080E870E060E008959FEF80EC0895DF93AC
:1016A000CF931F930F93FF92EF92DF927B018C01F8
:1016B000689406C0DA2EEF010E94D90BFE01E8946F
:1016C000A5912591359145915591A6F3EF010E9481
:1016D000DD09FE019701A801DA9469F7DF90EF9028
:1016E000FF900F911F91CF91DF91089500240A94EC
:1016F0001616170618060906089500240A941216ED
:101700001306140605060895092E0394000C11F41F
:10171000882352F0BB0F40F4BF2B11F460FF04C0CC
:101720006F5F7F4F8F4F9F4F089557FD9058440F25
:10173000551F59F05F3F71F04795880F97FB991F30
:1017400061F09F3F79F087950895121613061406ED
:10175000551FF2CF4695F1DF08C01616170618067A
:10176000991FF1CF86957105610508940895E89455
:10177000BB2766277727CB0197F908959B01AC011A
:1017800060E070E080E89FE30C94610A0E94D90B4E
:101790000C94840B0E94760B38F00E947D0B20F095
:1017A000952311F00C94460B0C944C0B11240C94C3
:1017B000B80B0E94950B70F3959FC1F3950F50E005
:1017C000551F629FF001729FBB27F00DB11D639FF3
:1017D000AA27F00DB11DAA1F649F6627B00DA11D99
:1017E000661F829F2227B00DA11D621F739FB00D3F
:1017F000A11D621F839FA00D611D221F749F3327AF
:10180000A00D611D231F849F600D211D822F762F47
:101810006A2F11249F5750409AF0F1F088234AF024
:10182000EE0FFF1FBB1F661F771F881F9150504090
:10183000A9F79E3F510580F00C94460B0C94B80B11
:101840005F3FE4F3983ED4F3869577956795B79517
:10185000F795E7959F5FC1F7FE2B880F911D969531
:10186000879597F908959B01AC010C94C60B0F93D3
:101870001F93CF93DF93009731F46115710519F42D
:1018800080E090E03AC08B01EC016EE070E081E016
:1018900090E00E94910EFC01892B91F380E88383F4
:1018A0000115110571F01387028781E88383809108
:1018B000DB029091DC02892B21F4F093DC02E093AF
:1018C000DB022097C9F0D187C08783818260838340
:1018D0008091DD029091DE02892B71F4F093DE029B
:1018E000E093DD028091DF029091E002892B21F4E8
:1018F000F093E002E093DF02CF01DF91CF911F91DF
:101900000F910895CF93DF93CDB7DEB7AE014A5F55
:101910005F4FFA0161917191AF018091DD02909169
:10192000DE020E94960CDF91CF9108952F923F9294
:101930004F925F926F927F928F929F92AF92BF92DF
:10194000CF92DF92EF92FF920F931F93CF93DF938B
:10195000CDB7DEB72C970FB6F894DEBF0FBECDBF64
:101960007C016B018A01FC0117821682838181FF51
:10197000BDC1CE0101964C01F7019381F60193FDA3
:10198000859193FF81916F01882309F4ABC1853262
:1019900039F493FD859193FF81916F01853229F48C
:1019A000B70190E00E94F70FE7CF512C312C20E0D7
:1019B0002032A0F48B3269F030F4803259F0833257
:1019C00069F420612CC08D3239F0803339F4216004
:1019D00026C02260246023C0286021C027FD27C0C4
:1019E00030ED380F3A3078F426FF06C0FAE05F9EFB
:1019F000300D1124532E13C08AE0389E300D11246F
:101A0000332E20620CC08E3221F426FD6BC120647F
:101A100006C08C3611F4206802C0883641F4F60105
:101A200093FD859193FF81916F018111C1CF982F13
:101A30009F7D9554933028F40C5F1F4FFFE3F9838B
:101A40000DC0833631F0833771F0833509F05BC008
:101A500022C0F801808189830E5F1F4F4424439484
:101A6000512C540115C03801F2E06F0E711CF801C1
:101A7000A080B18026FF03C0652D70E002C06FEF2B
:101A80007FEFC5012C870E94EC0F2C0183012C8570
:101A90002F77222E17C03801F2E06F0E711CF8016B
:101AA000A080B18026FF03C0652D70E002C06FEFFB
:101AB0007FEFC5012C870E94DA0F2C012C8520684E
:101AC000222E830123FC1BC0832D90E0481659066B
:101AD000B0F4B70180E290E00E94F70F3A94F4CF9F
:101AE000F50127FC859127FE81915F01B70190E008
:101AF0000E94F70F31103A94F1E04F1A5108411447
:101B0000510471F7E5C0843611F0893639F5F801D2
:101B100027FF07C060817181828193810C5F1F4F15
:101B200008C060817181072E000C880B990B0E5F35
:101B30001F4F2F76722E97FF09C090958095709554
:101B400061957F4F8F4F9F4F2068722E2AE030E0C3
:101B5000A4010E942F10A82EA81844C0853729F48C
:101B60002F7EB22E2AE030E025C0F22FF97FBF2E63
:101B70008F36C1F018F4883579F0B4C0803719F089
:101B8000883721F0AFC02F2F2061B22EB4FE0DC0D8
:101B90008B2D8460B82E09C024FF0AC09F2F966049
:101BA000B92E06C028E030E005C020E130E002C0D8
:101BB00020E132E0F801B7FE07C0608171818281C7
:101BC00093810C5F1F4F06C06081718180E090E0BF
:101BD0000E5F1F4FA4010E942F10A82EA818FB2DE6
:101BE000FF777F2E76FE0BC0372D3E7FA51450F475
:101BF00074FE0AC072FC08C0372D3E7E05C0BA2CA8
:101C0000372D03C0BA2C01C0B52C34FF0DC0FE0126
:101C1000EA0DF11D8081803311F4397E09C032FF55
:101C200006C0B394B39404C0832F867809F0B394AC
:101C300033FD13C030FF06C05A2CB31418F4530CF4
:101C40005B18B32CB31468F4B70180E290E03C87D2
:101C50000E94F70FB3943C85F5CFB31410F43B18F2
:101C600001C0312C34FF12C0B70180E390E03C8703
:101C70000E94F70F3C8532FF17C031FD03C088E793
:101C800090E002C088E590E0B7010CC0832F867811
:101C900059F031FF02C08BE201C080E237FD8DE2D6
:101CA000B70190E00E94F70FA51438F4B70180E364
:101CB00090E00E94F70F5A94F7CFAA94F401EA0D2E
:101CC000F11D8081B70190E00E94F70FA110F5CFC0
:101CD000332009F451CEB70180E290E00E94F70F63
:101CE0003A94F6CFF7018681978102C08FEF9FEF7C
:101CF0002C960FB6F894DEBF0FBECDBFDF91CF910B
:101D00001F910F91FF90EF90DF90CF90BF90AF9019
:101D10009F908F907F906F905F904F903F902F900B
:101D200008950F931F93CF93DF93869F8001879F22
:101D3000100D969F100D1124C8010E94AD0EEC01EC
:101D4000009729F0A80160E070E00E94E50FCE0145
:101D5000DF91CF911F910F910895CF93DF93823040
:101D6000910510F482E090E0E091E302F091E4024A
:101D700020E030E0C0E0D0E0309711F140815181A7
:101D800048175907C0F04817590761F482819381B9
:101D9000209719F09B838A832BC09093E402809351
:101DA000E30226C02115310519F04217530718F434
:101DB0009A01BE01DF01EF010280F381E02DDCCF4B
:101DC0002115310509F1281B390B2430310590F418
:101DD00012968D919C9113976115710521F0FB016D
:101DE0009383828304C09093E4028093E302FD0115
:101DF000329644C0FD01E20FF31F8193919322506C
:101E000031092D933C933AC02091E1023091E202D6
:101E1000232B41F420910302309104023093E2021B
:101E20002093E10220910102309102022115310537
:101E300041F42DB73EB74091050250910602241B94
:101E4000350BE091E102F091E202E217F307A0F412
:101E50002E1B3F0B2817390778F0AC014E5F5F4F00
:101E60002417350748F04E0F5F1F5093E20240934E
:101E7000E1028193919302C0E0E0F0E0CF01DF91B5
:101E8000CF9108950F931F93CF93DF93009709F499
:101E90008CC0FC013297138212820091E3021091F0
:101EA000E4020115110581F420813181820F931F15
:101EB0002091E1023091E2022817390779F5F09379
:101EC000E202E093E10271C0D80140E050E0AE17B9
:101ED000BF0750F412962D913C911397AD01211537
:101EE000310509F1D901F3CF9D01DA013383228352
:101EF00060817181860F971F8217930769F4EC0147
:101F000028813981260F371F2E5F3F4F3183208371
:101F10008A819B8193838283452B29F4F093E40289
:101F2000E093E30242C01396FC93EE931297ED0107
:101F3000499159919E01240F351FE217F30771F45F
:101F400080819181840F951F029611969C938E93A8
:101F50008281938113969C938E931297E0E0F0E038
:101F6000D80112968D919C911397009719F0F80162
:101F70008C01F6CF8D919C9198012E5F3F4F820F7F
:101F8000931F2091E1023091E2022817390769F48A
:101F9000309729F41092E4021092E30202C01382F7
:101FA00012821093E2020093E102DF91CF911F9120
:101FB0000F910895FC010590615070400110D8F711
:101FC000809590958E0F9F1F0895DC0101C06D9341
:101FD00041505040E0F70895FC016150704001907D
:101FE0000110D8F7809590958E0F9F1F08950F933D
:101FF0001F93CF93DF93FB01238121FD03C08FEF5C
:102000009FEF28C022FF16C0468157812481358169
:102010004217530744F4A081B1819D012F5F3F4FC8
:10202000318320838C93268137812F5F3F4F378305
:10203000268310C0EB01092F182F0084F185E02DB5
:102040001995892BE1F68E819F8101969F838E835E
:10205000812F902FDF91CF911F910F910895FA0159
:10206000AA27283051F1203181F1E8946F936E7FD7
:102070006E5F7F4F8F4F9F4FAF4FB1E03ED0B4E0C8
:102080003CD0670F781F891F9A1FA11D680F791F09
:102090008A1F911DA11D6A0F711D811D911DA11D1A
:1020A00020D009F468943F912AE0269F112430192A
:1020B000305D3193DEF6CF010895462F4770405DC5
:1020C0004193B3E00FD0C9F7F6CF462F4F70405D74
:1020D0004A3318F0495D31FD4052419302D0A9F7CF
:1020E000EACFB4E0A6959795879577956795BA95C9
:1020F000C9F700976105710508959B01AC010A2E8F
:1021000006945795479537952795BA95C9F7620F65
:0E211000731F841F951FA01D0895F894FFCF24
:10211E00F80000E5022000484549200A0D006173D1
:10212E00646173640066C3B872207768696C652059
:10213E006CC3B86B6B610056656C672067616D652B
:10214E006D6F6465200A0D00726F6F6B69650045D7
:10215E0078706572740063616E206572726F7220A2
:10216E000A0D00657272004E0052004C005500447C
:10217E00006572726F72002053706565643A202597
:10218E0064200043616E207374617475733A202568
:10219E0064202020202020202020202A2A2A2000EF
:1021AE00793A3A20202564004143442072656164E7
:1021BE00202564200A0D0053686F6F7421200A0DCC
:0A21CE000053656E64696E6720001F
:00000001FF
