:100000000C94EC000C940D010C940D010C940D015A
:100010000C940D010C940D010C940D010C940D0128
:100020000C940D010C940D010C940D010C940D0118
:100030000C940D010C940D010C940D010C940D0108
:100040000C940D010C940D010C940D010C940D01F8
:100050000C940D010C940D010C940D010C940D01E8
:100060000C940D010C940D010C940D010C940D01D8
:100070000C940D010C940D010C940D010C940D01C8
:100080000C940D010C940D010C940D010C940D01B8
:100090000C940D010C940D010C940D010C9433047F
:1000A0000C940D010C940D010C940D010C940D0198
:1000B0000C940D010C940D010C940D010C940D0188
:1000C0000C940D010C940D010C940D010C940D0178
:1000D0000C940D010C940D010C940D010C940D0168
:1000E0000C940D015204A404A404A404A404A404C4
:1000F000A404A4045204A404A404A404A404A40412
:10010000A404A4045404A404A404A404A404A404FF
:10011000A404A404A404A404A404A404A404A4049F
:10012000A404A4045404A404A404A404A404A404DF
:10013000A404A404A404A404A404A404A404A4047F
:10014000A404A404A004A404A404A404A404A40473
:10015000A404A4047D04A404A404A404A404A40486
:10016000A404A404A404A404A404A404A404A4044F
:10017000A404A4047104A404A404A404A404A40472
:10018000A404A4048F04084AD73B3BCE016E84BC70
:10019000BFFDC12F3D6C74319ABD56833DDA3D00E1
:1001A000C77F11BED9E4BB4C3E916BAAAABE00002A
:1001B00000803F000C94A0040C941E030C947D045A
:1001C0000C9471040C9414030C94A4040C94520425
:1001D0000C948F040C94540411241FBECFEFD1E271
:1001E000DEBFCDBF00E00CBF12E0A0E0B2E0E8E06F
:1001F000F0E200E00BBF02C007900D92A83EB107ED
:10020000D9F722E0A8EEB2E001C01D92AD3FB207DF
:10021000E1F70E940F010C9402100C940000CF93A0
:10022000DF93CDB7DEB72E970FB6F894DEBF0FBEC3
:10023000CDBFAE014F5F5F4F60E070E081E090E0C6
:100240000E94E70780E895E20E9429030E94590373
:1002500087E092E09F938F930E94F70B78940E941F
:100260008C030E94BA040E9495012FEF81EE94E066
:10027000215080409040E1F700C000000E94D4046B
:100280000E9463070F900F900F2EFBE0AF2EF2E05D
:10029000BF2EF02D0F2EFEE0CF2EF2E0DF2EF02D40
:1002A0000F2EFDE1EF2EF2E0FF2EF02D09E412E01B
:1002B0000E9495012FEF8DEE92E0215080409040FA
:1002C000E1F700C000000E949B050E942C070E94DD
:1002D0002D050E947107BF92AF920E94F70B0E94FA
:1002E000FB049F938F93DF92CF920E94F70B0E94A3
:1002F000B0079F938F93FF92EF920E94F70B0E949B
:10030000B007AE014F5F5F4FBC0180E090E00E94FC
:100310000F089F938F931F930F930E94F70B0FB6B5
:10032000F894DEBF0FBECDBFC3CF0E9400030E9472
:10033000DE0240E660E680E60E94E60241E06BE213
:1003400081E00E94E60240E06FE080EE0E94E6025B
:100350000895EF92FF920F931F93CF93DF93CDB742
:10036000DEB72B970FB6F894DEBF0FBECDBFE98284
:10037000FA820B831C832D833E834F8358876987C2
:100380007A878B87E980FA80B701769567957695AD
:1003900067957695679581E30E949D024E2D429563
:1003A000440F407E62E380EE0E94E6024B8165E3EB
:1003B0008FE00E94E6027E0184E0E80EF11C16E365
:1003C000F70161917F01812F0E949D021F5F1E3303
:1003D000B9F781E00E94C10263E080E30E94B102AC
:1003E0009F938F9387E792E09F938F930E94F70BE1
:1003F0000F900F900F900F902B960FB6F894DEBFD2
:100400000FBECDBFDF91CF911F910F91FF90EF9065
:10041000089563E080E30E94B10208958F929F9255
:10042000AF92BF92CF92DF92EF92FF920F931F9302
:10043000CF93DF93CDB7DEB72B970FB6F894DEBF1F
:100440000FBECDBF4C0161E08CE20E94B102892B4E
:1004500091F181E70E948B02A82E82E70E948B0215
:10046000829586958770B12CAA0CBB1CAA0CBB1C6C
:10047000AA0CBB1CA82A85E70E948B02082F0F70CC
:10048000093008F008E00023F1F07E0184E0E80E76
:10049000F11C9E01200F311DF90134966F0116E702
:1004A000812F0E948B02F70181937F011F5FEC1562
:1004B000FD05B1F708C089E892E09F938F930E94F1
:1004C000F70B0F900F9040E06CE281E00E94E60293
:1004D000BA82A9820B838BE0FE013196D401019090
:1004E0000D928A95E1F7C4012B960FB6F894DEBF02
:1004F0000FBECDBFDF91CF911F910F91FF90EF9075
:10050000DF90CF90BF90AF909F908F9008952F98DD
:1005100008952F9A0895CF93C82F0E94870283E0F1
:100520000E940A038C2F0E940A030E940F03C82F07
:100530000E9489028C2FCF910895CF93DF93D82FFB
:10054000C62F0E94870282E00E940A038D2F0E941C
:100550000A038C2F0E940A030E948902DF91CF9127
:100560000895CF93C62F0E948B0290E021E030E0E7
:1005700002C0220F331FCA95E2F782239323CF9143
:100580000895CF93C82F0E9487028C2F80680E9405
:100590000A030E948902CF910895CF930E94870297
:1005A00080EA0E940A030E940F03C82F80E00E9485
:1005B0000A030E9489028C2FCF9108950E9487021E
:1005C00080EC0E940A030E94890208951F93CF9332
:1005D000DF93D82F162FC42F0E94870285E00E9438
:1005E0000A03812F0E940A038D2F0E940A038C2F79
:1005F0000E940A030E948902DF91CF911F91089502
:1006000084B1876884B98CB581618CBD8CB58064F8
:100610008CBD08958EBD0DB407FEFDCF08958FEFFC
:100620000E940A038EB50895E0ECF0E0908195FFFA
:10063000FDCF8093C60080E090E008958091C000D7
:10064000882324F48091C60090E0089580E090E033
:10065000089582959295907F9827807F98279C0196
:1006600040E050E060E074E284EF90E00E94BB085C
:10067000CA01B90161507109810991090E94800A7A
:100680002AE939E949E15EE30E943B0B0E94480AEE
:100690007093C5006093C40088E18093C1008EE030
:1006A0008093C2006EE173E084E193E00E94AC0BA2
:1006B0000895259AE0E8F0E0808182608083A1E8D7
:1006C000B0E08C9188618C93808180688083808188
:1006D000806480838C9184608C9382EE94E090930C
:1006E00087008093860008959C01265634402C3361
:1006F000310538F4909389008093880081E090E080
:10070000089588E992E09F938F930E94F70B0F90D2
:100710000F908FEF9FEF08958298EAE7F0E08081D5
:1007200080688083808187608083ECE7F0E080814F
:100730008F7D80838081806C8083089583B18295D2
:1007400086958695837091E08927817090E0089561
:10075000ECE7F0E0808182608083EAE7F0E080816E
:1007600080648083808186FDFDCF20917800809118
:10077000790090E0982F8827820F911D08950E949C
:10078000A80321E08436910508F020E0822F089527
:100790008CE08093B8008FEF8093BB0084E080935F
:1007A000BC0008958091BC0081700895ECEBF0E0EE
:1007B000808180FDFDCF809100020895CF93DF936B
:1007C000EC01ECEBF0E0908190FDFDCF6093EA024C
:1007D00098819093EB0290FD13C0623088F0FE0187
:1007E0003196ACEEB2E06250262F30E02E5F3F4FE4
:1007F000CE01820F931F21912D93E817F907D9F7A6
:100800001092E80288EF8093000285EA8093BC0092
:10081000DF91CF910895ECEBF0E0808180FDFDCF7A
:100820001092E80288EF8093000285EA8093BC0072
:100830000895ECEBF0E0208120FDFDCF2091E8024F
:1008400020FF0DC0662359F02BEE32E0A82FB92F00
:10085000F90181918D938E2F821B8617D0F38091A1
:10086000E802817008951F920F920FB60F92112423
:100870000BB60F922F933F938F939F93AF93BF939A
:10088000EF93FF93E091B9008E2F90E0FC01389731
:10089000E135F10508F058C08827EE58FF4F8F4F1B
:1008A0000C94DA081092E902E091E9028091EA02E0
:1008B000E81770F481E08E0F8093E902F0E0E551D3
:1008C000FD4F80818093BB0085E88093BC0043C0CE
:1008D0008091E80281608093E80284E98093BC0003
:1008E0003AC0E091E90281E08E0F8093E9028091A5
:1008F000BB00F0E0E551FD4F80832091E90230E03C
:100900008091EA0290E001972817390724F485ECDA
:100910008093BC0020C085E88093BC001CC08091FF
:10092000BB00E091E902F0E0E551FD4F808380914A
:10093000E80281608093E80284E98093BC000BC0E8
:1009400085EA8093BC0007C08091B90080930002C3
:1009500084E08093BC00FF91EF91BF91AF919F9194
:100960008F913F912F910F900BBE0F900FBE0F9064
:100970001F9018950E94C8038AB183608AB90895B0
:10098000CF93DF9300D0CDB7DEB790E599831A827D
:100990008B8363E0CE0101960E94DE030F900F90DF
:1009A0000F90DF91CF910895CF93DF93CDB7DEB74E
:1009B00066970FB6F894DEBF0FBECDBFCE010C9682
:1009C0000E940E028F8590E09093F2028093F102D4
:1009D000CE0101960E940E028D8190E09093F0026C
:1009E0008093EF0266960FB6F894DEBF0FBECDBFC0
:1009F000DF91CF910895CF93DF93CDB7DEB72B97DB
:100A00000FB6F894DEBF0FBECDBFCE0101960E9497
:100A10000E028C8190E02B960FB6F894DEBF0FBECD
:100A2000CDBFDF91CF910895CF93DF93CDB7DEB7E0
:100A30002B970FB6F894DEBF0FBECDBFCE01019647
:100A40000E940E028D8190E02B960FB6F894DEBFC7
:100A50000FBECDBFDF91CF910895CF92DF92EF927D
:100A6000FF920F931F93CF93DF93CDB7DEB72B97F2
:100A70000FB6F894DEBF0FBECDBFCE0101960E9427
:100A80000E020091F1021091F2026C8170E080E0A0
:100A900090E00E947E0A6B017C01B801110F880B67
:100AA000990B0E94800A9B01AC01C701B6010E940C
:100AB0003A090E94480A77237CF0072E000C880B25
:100AC000990B0E94800A24EA30E74DE35FE30E941D
:100AD000D6090E94480A0EC0072E000C880B990BFD
:100AE0000E94800A23E333E343EB5FE30E94D609CD
:100AF0000E94480ACB010496099710F460E070E068
:100B00006C398FEF780714F46CE97FEFCB01653611
:100B1000710514F084E690E02B960FB6F894DEBFD2
:100B20000FBECDBFDF91CF911F910F91FF90EF903E
:100B3000DF90CF900895CF92DF92EF92FF920F93C4
:100B40001F93CF93DF93CDB7DEB72B970FB6F894F3
:100B5000DEBF0FBECDBFCE0101960E940E020091F6
:100B6000EF021091F0026D8170E080E090E00E9451
:100B70007E0A6B017C01B801110F880B990B0E9452
:100B8000800A9B01AC01C701B6010E943A090E948C
:100B9000480A77237CF0072E000C880B990B0E94E3
:100BA000800A28EB3EE145E45FE30E94D6090E94FB
:100BB000480A0EC0072E000C880B990B0E94800A71
:100BC00023E333E343EB5FE30E94D6090E94480A24
:100BD000CB010496099710F460E070E06C398FEF58
:100BE000780714F46CE97FEFCB016536710514F0DA
:100BF00084E690E02B960FB6F894DEBF0FBECDBF13
:100C0000DF91CF911F910F91FF90EF90DF90CF90E8
:100C10000895009771F08130910571F0823091054F
:100C200071F08330910571F0049779F086EA92E0D3
:100C300008958CE992E008958EE992E0089580EAA3
:100C400092E0089582EA92E0089584EA92E008959D
:100C5000CF92DF92EF92FF92CF93DF930E942D0508
:100C6000EC010E949B05BC01990F880B990B0E9417
:100C7000800A6B017C01BE010D2E000C880B990BC4
:100C80000E94800A9B01AC01C701B6010E94D609EF
:100C90000E94A70920E030E044E353E40E943B0BAC
:100CA0002BED3FE049E450E40E94D6090E94480A37
:100CB0009B01DD2314F42C543F4F332314F42859A3
:100CC0003E4FC901DF91CF91FF90EF90DF90CF9021
:100CD0000895CF93DF930E942D05EC010E949B05A0
:100CE0009E01215B3F4F2F39310530F49C01215B80
:100CF0003F4F2F393105F8F0BC01CE010E94280684
:100D00009C012B5331402E323105C0F08E329105BB
:100D1000C0F0235F3E4F29353105B0F02955310928
:100D20002B353105A0F0825E91098935910590F04F
:100D300080E090E011C080E090E00EC081E090E0A3
:100D40000BC081E090E008C083E090E005C082E045
:100D500090E002C084E090E0DF91CF910895CF93BE
:100D6000DF93CDB7DEB72B970FB6F894DEBF0FBE7B
:100D7000CDBFCE0101960E940E028E8190E02B968F
:100D80000FB6F894DEBF0FBECDBFDF91CF910895AF
:100D9000CF93DF93CDB7DEB72B970FB6F894DEBFB6
:100DA0000FBECDBFCE0101960E940E028F8190E052
:100DB0002B960FB6F894DEBF0FBECDBFDF91CF915B
:100DC0000895CF93DF93CDB7DEB72B970FB6F89486
:100DD000DEBF0FBECDBFCE0101960E940E028885F8
:100DE00090E02B960FB6F894DEBF0FBECDBFDF911B
:100DF000CF910895CF93DF93CDB7DEB72B970FB682
:100E0000F894DEBF0FBECDBFCE0101960E940E0248
:100E10008A8590E02B960FB6F894DEBF0FBECDBF4B
:100E2000DF91CF910895CF93DF93CDB7DEB72B97A6
:100E30000FB6F894DEBF0FBECDBFCE0101960E9463
:100E40000E02898590E02B960FB6F894DEBF0FBE98
:100E5000CDBFDF91CF910895CF93DF938C599F4FF2
:100E6000BC0112F46F5F7F4FEB01D595C795DF93FF
:100E7000CF938CEA92E09F938F930E94F70BBE0171
:100E8000DD0F880B990B0E94800A20E030E04CE6D1
:100E900052E40E943B0B20E030E048EC52E40E9418
:100EA000D60920E030EC4CE854E40E943B090E9453
:100EB000480ACB010E9474030F900F900F900F907F
:100EC000DF91CF910895E1E0F1E08081826180833C
:100ED000808188668083E2E0F1E0808180618083A8
:100EE0000895CF93DF93EC01DF93CF9384EB92E0EF
:100EF0009F938F930E94F70B0F900F900F900F907E
:100F0000CB30D1054CF0E2E0F1E08081826080835B
:100F10008C2F0E94C00421C0C63F8FEFD80794F4E5
:100F20008C2F81950E94C004E2E0F1E080818D7FEA
:100F300080838EEB92E09F938F930E94F70B0F902C
:100F40000F900BC080E00E94C00484ED92E09F935C
:100F50008F930E94F70B0F900F90DF91CF91089520
:100F6000CF93DF93F89410920701E2E0F1E08081E3
:100F70008F7D80838081877F808387E893E10197DD
:100F8000F1F700C00000A6E0B1E08C9190E0982F4E
:100F90008827208128602083C7E8D3E12197F1F7D3
:100FA00000C000003C9120812F7B2083A7E8B3E1A3
:100FB0001197F1F700C00000208120642083208178
:100FC000206220837894832BDF91CF910895CF9373
:100FD000DF939B01EA01188219821A821B829D838A
:100FE0008C837F836E83BC016F5F7F4F8FEF9FE7A2
:100FF0000E94A708798768872F5F3F4F032E000C58
:10100000440B550B6FEF7FEF8FEF9FE30E94BB0800
:101010002A873B874C875D87DF91CF9108950F9397
:101020001F93CF93DF93FA01861B970B20853185A1
:101030002817390784F031952195310982179307D4
:101040006CF024813581829FE001839FD00D929FB7
:10105000D00D112405C0CFEFDFE702C0C1E0D0E81A
:10106000092E000CAA0BBB0B408151816281738158
:101070009A01AB01280F391F4A1F5B1F8285938598
:10108000A485B58582179307A407B5074CF4808320
:101090009183A283B3836FEF7FEF8FEF9FE31DC038
:1010A000B095A095909581959F4FAF4FBF4F281752
:1010B00039074A075B074CF480839183A283B3838B
:1010C00061E070E080E090EC08C0208331834283CF
:1010D0005383A681B7810E94E2088E01DD0F220BA7
:1010E000330BAB01BC01400F511F621F731FDB01AB
:1010F000CA01772324F481589F4FAF4FBF4F6894A4
:1011000016F8B595A795979587951694D1F78130E0
:1011100020E892072FEFA207B20724F481E090E8BD
:10112000AFEFBFEF811520E89207A105B10524F0CC
:101130008FEF9FE7A0E0B0E0DF91CF911F910F917B
:101140000895FC011082118212821382089597FB88
:10115000072E16F4009407D077FD09D00E94EA0804
:1011600007FC05D03EF4909581959F4F08957095AA
:1011700061957F4F0895052E97FB1EF400940E9401
:10118000D20857FD07D00E94FE0807FC03D04EF49A
:101190000C94D20850954095309521953F4F4F4F74
:1011A0005F4F089590958095709561957F4F8F4F13
:1011B0009F4F0895EE0FFF1F881F8BBF0790F6917A
:1011C000E02D1994B7FF0C9420090E942009821B7E
:1011D000930B0895AA1BBB1B51E107C0AA1FBB1F9D
:1011E000A617B70710F0A61BB70B881F991F5A95B3
:1011F000A9F780959095BC01CD010895A1E21A2E22
:10120000AA1BBB1BFD010DC0AA1FBB1FEE1FFF1FAA
:10121000A217B307E407F50720F0A21BB30BE40BFA
:10122000F50B661F771F881F991F1A9469F7609541
:101230007095809590959B01AC01BD01CF010895FB
:101240000E942B09A59F900DB49F900DA49F800D27
:10125000911D11240895A29FB001B39FC001A39FC7
:10126000700D811D1124911DB29F700D811D1124DF
:10127000911D08955058BB27AA270E9452090C942B
:10128000F90A0E94EB0A38F00E94F20A20F039F4C1
:101290009F3F19F426F40C94C10A0EF4E095E7FB85
:1012A0000C94BB0AE92F0E940A0B58F3BA17620785
:1012B00073078407950720F079F4A6F50C942C0B9E
:1012C0000EF4E0950B2EBA2FA02D0B01B901900161
:1012D0000C01CA01A0011124FF27591B99F0593FA5
:1012E00050F4503E68F11A16F040A22F232F342FED
:1012F0004427585FF3CF469537952795A795F0403B
:101300005395C9F77EF41F16BA0B620B730B840B4F
:10131000BAF09150A1F0FF0FBB1F661F771F881F07
:10132000C2F70EC0BA0F621F731F841F48F487955F
:1013300077956795B795F7959E3F08F0B0CF939551
:10134000880F08F09927EE0F979587950895DF93FA
:10135000DD27B92FBF7740E85FE316161706480769
:101360005B0718F4D92F0E94330B9F938F937F93C1
:101370006F930E94A80BE6E8F1E00E94C40A0E9465
:10138000F90A2F913F914F915F910E944E0BDD23FF
:1013900051F09058A2EA2AED3FE049EC5FE3D078A3
:1013A0005D270E945209DF910C94F90A0E94EA0914
:1013B0000C94F90A0E94F20A58F00E94EB0A40F0DD
:1013C00029F45F3F29F00C94BB0A51110C942D0BAA
:1013D0000C94C10A0E940A0B68F39923B1F35523B8
:1013E00091F3951B550BBB27AA2762177307840738
:1013F00038F09F5F5F4F220F331F441FAA1FA9F3CE
:1014000035D00E2E3AF0E0E832D091505040E695BB
:10141000001CCAF72BD0FE2F29D0660F771F881F1C
:10142000BB1F261737074807AB07B0E809F0BB0B0F
:10143000802DBF01FF2793585F4F3AF09E3F510523
:1014400078F00C94BB0A0C942D0B5F3FE4F3983EAC
:10145000D4F3869577956795B795F7959F5FC9F70C
:10146000880F911D9695879597F90895E1E0660F8D
:10147000771F881FBB1F621773078407BA0720F006
:10148000621B730B840BBA0BEE1F88F7E09508956F
:101490000E944F0A6894B1110C942D0B08950E947C
:1014A000120B88F09F5798F0B92F9927B751B0F0D9
:1014B000E1F0660F771F881F991F1AF0BA95C9F7D8
:1014C00014C0B13091F00E942C0BB1E008950C943F
:1014D0002C0B672F782F8827B85F39F0B93FCCF3F2
:1014E000869577956795B395D9F73EF49095809555
:1014F000709561957F4F8F4F9F4F0895E89409C075
:1015000097FB3EF490958095709561957F4F8F4F36
:101510009F4F9923A9F0F92F96E9BB279395F6954C
:10152000879577956795B795F111F8CFFAF4BB0FCA
:1015300011F460FF1BC06F5F7F4F8F4F9F4F16C02E
:10154000882311F096E911C0772321F09EE8872FB8
:10155000762F05C0662371F096E8862F70E060E074
:101560002AF09A95660F771F881FDAF7880F9695ED
:10157000879597F9089597F99F6780E870E060E094
:1015800008959FEF80EC0895DF93CF931F930F93FF
:10159000FF92EF92DF927B018C01689406C0DA2EF5
:1015A000EF010E944E0BFE01E894A5912591359123
:1015B00045915591A6F3EF010E945209FE01970152
:1015C000A801DA9469F7DF90EF90FF900F911F91D7
:1015D000CF91DF91089500240A9416161706180675
:1015E0000906089500240A94121613061406050627
:1015F0000895092E0394000C11F4882352F0BB0FB8
:1016000040F4BF2B11F460FF04C06F5F7F4F8F4F1A
:101610009F4F089557FD9058440F551F59F05F3F55
:1016200071F04795880F97FB991F61F09F3F79F004
:1016300087950895121613061406551FF2CF469586
:10164000F1DF08C0161617061806991FF1CF869508
:101650007105610508940895E894BB2766277727EC
:10166000CB0197F908959B01AC0160E070E080E840
:101670009FE30C94D6090E944E0B0C94F90A0E9429
:10168000EB0A38F00E94F20A20F0952311F00C9436
:10169000BB0A0C94C10A11240C942D0B0E940A0B56
:1016A00070F3959FC1F3950F50E0551F629FF001B5
:1016B000729FBB27F00DB11D639FAA27F00DB11DCE
:1016C000AA1F649F6627B00DA11D661F829F222757
:1016D000B00DA11D621F739FB00DA11D621F839FDE
:1016E000A00D611D221F749F3327A00D611D231FB4
:1016F000849F600D211D822F762F6A2F11249F5702
:1017000050409AF0F1F088234AF0EE0FFF1FBB1F04
:10171000661F771F881F91505040A9F79E3F5105C3
:1017200080F00C94BB0A0C942D0B5F3FE4F3983EC1
:10173000D4F3869577956795B795F795E7959F5F6D
:10174000C1F7FE2B880F911D9695879597F90895FF
:101750009B01AC010C943B0B0F931F93CF93DF9332
:10176000009731F46115710519F480E090E03AC0FA
:101770008B01EC016EE070E081E090E00E94060ECB
:10178000FC01892B91F380E883830115110571F029
:101790001387028781E883838091F3029091F4029A
:1017A000892B21F4F093F402E093F3022097C9F01F
:1017B000D187C0878381826083838091F502909175
:1017C000F602892B71F4F093F602E093F502809112
:1017D000F7029091F802892B21F4F093F802E0933C
:1017E000F702CF01DF91CF911F910F910895CF9311
:1017F000DF93CDB7DEB7AE014A5F5F4FFA0161916B
:101800007191AF018091F5029091F6020E940B0C4C
:10181000DF91CF9108952F923F924F925F926F92F6
:101820007F928F929F92AF92BF92CF92DF92EF9270
:10183000FF920F931F93CF93DF93CDB7DEB72C9713
:101840000FB6F894DEBF0FBECDBF7C016B018A01DD
:10185000FC0117821682838181FFBDC1CE010196F2
:101860004C01F7019381F60193FD859193FF8191DE
:101870006F01882309F4ABC1853239F493FD85915A
:1018800093FF81916F01853229F4B70190E00E94A6
:101890006C0FE7CF512C312C20E02032A0F48B329A
:1018A00069F030F4803259F0833269F420612CC041
:1018B0008D3239F0803339F4216026C022602460F3
:1018C00023C0286021C027FD27C030ED380F3A30F3
:1018D00078F426FF06C0FAE05F9E300D1124532EE7
:1018E00013C08AE0389E300D1124332E20620CC0C4
:1018F0008E3221F426FD6BC1206406C08C3611F4B3
:10190000206802C0883641F4F60193FD859193FF6B
:1019100081916F018111C1CF982F9F7D9554933094
:1019200028F40C5F1F4FFFE3F9830DC0833631F0BD
:10193000833771F0833509F05BC022C0F8018081E4
:1019400089830E5F1F4F44244394512C540115C0CA
:101950003801F2E06F0E711CF801A080B18026FF03
:1019600003C0652D70E002C06FEF7FEFC5012C87CB
:101970000E94610F2C0183012C852F77222E17C026
:101980003801F2E06F0E711CF801A080B18026FFD3
:1019900003C0652D70E002C06FEF7FEFC5012C879B
:1019A0000E944F0F2C012C852068222E830123FCDE
:1019B0001BC0832D90E048165906B0F4B70180E2B1
:1019C00090E00E946C0F3A94F4CFF50127FC8591CA
:1019D00027FE81915F01B70190E00E946C0F3110EA
:1019E0003A94F1E04F1A51084114510471F7E5C0DF
:1019F000843611F0893639F5F80127FF07C0608178
:101A00007181828193810C5F1F4F08C06081718159
:101A1000072E000C880B990B0E5F1F4F2F76722E2E
:101A200097FF09C090958095709561957F4F8F4F76
:101A30009F4F2068722E2AE030E0A4010E94A40F7C
:101A4000A82EA81844C0853729F42F7EB22E2AE08C
:101A500030E025C0F22FF97FBF2E8F36C1F018F489
:101A6000883579F0B4C0803719F0883721F0AFC0DD
:101A70002F2F2061B22EB4FE0DC08B2D8460B82EA6
:101A800009C024FF0AC09F2F9660B92E06C028E027
:101A900030E005C020E130E002C020E132E0F80192
:101AA000B7FE07C060817181828193810C5F1F4FF7
:101AB00006C06081718180E090E00E5F1F4FA4013D
:101AC0000E94A40FA82EA818FB2DFF777F2E76FE6C
:101AD0000BC0372D3E7FA51450F474FE0AC072FC73
:101AE00008C0372D3E7E05C0BA2C372D03C0BA2C56
:101AF00001C0B52C34FF0DC0FE01EA0DF11D80813F
:101B0000803311F4397E09C032FF06C0B394B39418
:101B100004C0832F867809F0B39433FD13C030FFDF
:101B200006C05A2CB31418F4530C5B18B32CB3141E
:101B300068F4B70180E290E03C870E946C0FB39498
:101B40003C85F5CFB31410F43B1801C0312C34FFA1
:101B500012C0B70180E390E03C870E946C0F3C8587
:101B600032FF17C031FD03C088E790E002C088E56E
:101B700090E0B7010CC0832F867859F031FF02C086
:101B80008BE201C080E237FD8DE2B70190E00E9458
:101B90006C0FA51438F4B70180E390E00E946C0F3D
:101BA0005A94F7CFAA94F401EA0DF11D8081B70190
:101BB00090E00E946C0FA110F5CF332009F451CEB4
:101BC000B70180E290E00E946C0F3A94F6CFF701E3
:101BD0008681978102C08FEF9FEF2C960FB6F89405
:101BE000DEBF0FBECDBFDF91CF911F910F91FF9050
:101BF000EF90DF90CF90BF90AF909F908F907F90AD
:101C00006F905F904F903F902F9008950F931F9388
:101C1000CF93DF93869F8001879F100D969F100DB5
:101C20001124C8010E94220EEC01009729F0A8019E
:101C300060E070E00E945A0FCE01DF91CF911F91BA
:101C40000F910895CF93DF938230910510F482E0D5
:101C500090E0E091FB02F091FC0220E030E0C0E077
:101C6000D0E0309711F14081518148175907C0F0F9
:101C70004817590761F482819381209719F09B835B
:101C80008A832BC09093FC028093FB0226C021150F
:101C9000310519F04217530718F49A01BE01DF010C
:101CA000EF010280F381E02DDCCF2115310509F130
:101CB000281B390B2430310590F412968D919C919C
:101CC00013976115710521F0FB019383828304C092
:101CD0009093FC028093FB02FD01329644C0FD010B
:101CE000E20FF31F81939193225031092D933C937E
:101CF0003AC02091F9023091FA02232B41F420914D
:101D00000302309104023093FA022093F9022091E9
:101D10000102309102022115310541F42DB73EB781
:101D20004091050250910602241B350BE091F90207
:101D3000F091FA02E217F307A0F42E1B3F0B2817CD
:101D4000390778F0AC014E5F5F4F2417350748F034
:101D50004E0F5F1F5093FA024093F90281939193C3
:101D600002C0E0E0F0E0CF01DF91CF9108950F9342
:101D70001F93CF93DF93009709F48CC0FC01329737
:101D8000138212820091FB021091FC0201151105D1
:101D900081F420813181820F931F2091F9023091CB
:101DA000FA022817390779F5F093FA02E093F9025D
:101DB00071C0D80140E050E0AE17BF0750F4129652
:101DC0002D913C911397AD012115310509F1D901F0
:101DD000F3CF9D01DA013383228360817181860F05
:101DE000971F8217930769F4EC0128813981260F28
:101DF000371F2E5F3F4F318320838A819B819383DE
:101E00008283452B29F4F093FC02E093FB0242C04D
:101E10001396FC93EE931297ED01499159919E010F
:101E2000240F351FE217F30771F480819181840F2D
:101E3000951F029611969C938E938281938113969F
:101E40009C938E931297E0E0F0E0D80112968D916A
:101E50009C911397009719F0F8018C01F6CF8D91A2
:101E60009C9198012E5F3F4F820F931F2091F902A2
:101E70003091FA022817390769F4309729F4109243
:101E8000FC021092FB0202C0138212821093FA022B
:101E90000093F902DF91CF911F910F910895FC01FA
:101EA0000590615070400110D8F7809590958E0F85
:101EB0009F1F0895DC0101C06D9341505040E0F731
:101EC0000895FC016150704001900110D8F7809591
:101ED00090958E0F9F1F08950F931F93CF93DF93BD
:101EE000FB01238121FD03C08FEF9FEF28C022FF5C
:101EF00016C046815781248135814217530744F427
:101F0000A081B1819D012F5F3F4F318320838C934E
:101F1000268137812F5F3F4F3783268310C0EB0127
:101F2000092F182F0084F185E02D1995892BE1F6F2
:101F30008E819F8101969F838E83812F902FDF91C9
:101F4000CF911F910F910895FA01AA27283051F1DE
:101F5000203181F1E8946F936E7F6E5F7F4F8F4FDA
:101F60009F4FAF4FB1E03ED0B4E03CD0670F781F39
:101F7000891F9A1FA11D680F791F8A1F911DA11D1E
:101F80006A0F711D811D911DA11D20D009F4689457
:101F90003F912AE0269F11243019305D3193DEF6FF
:101FA000CF010895462F4770405D4193B3E00FD0B5
:101FB000C9F7F6CF462F4F70405D4A3318F0495DA0
:101FC00031FD4052419302D0A9F7EACFB4E0A69583
:101FD0009795879577956795BA95C9F700976105A5
:101FE000710508959B01AC010A2E069457954795FB
:101FF00037952795BA95C9F7620F731F841F951FF0
:08200000A01D0895F894FFCF24
:10200800F80000FD022000484549200A0D004A6FEB
:1020180079737469636B20783A20256400456E6390
:102028006F6465727665726469656E652076C3A5AE
:10203800726520657220736F6D2066C3B86C676522
:10204800723A202564200A0D00526567756C617428
:102058006F727665726469656E652076C3A5726570
:1020680020657220736F6D2066C3B86C6765723A1D
:10207800202564200A0D0052745320692066756E6D
:102088006B3A202564200A0D005258422E2E2E202D
:1020980064C3A5726C696700657272004E005200D5
:1020A8004C00550044006572726F7200703A20252A
:1020B8006420200053706565643A202564004A65F1
:1020C8006720657220696E6E692064656E2064659C
:1020D800727265004A6567207374C3A572207374B1
:0820E800696C6C65200A0D0013
:00000001FF
