:100000000C9476000C9497000C9497000C94970035
:100010000C9497000C9497000C9497000C94970004
:100020000C9497000C9497000C9497000C949700F4
:100030000C9497000C9497000C9497000C949700E4
:100040000C9497000C9497000C9497000C949700D4
:100050000C9497000C9497000C9497000C949700C4
:100060000C9497000C9497000C9497000C949700B4
:100070000C9497000C9497000C9497000C949700A4
:100080000C9497000C9497000C9497000C94970094
:100090000C9497000C9497000C9497000C94970084
:1000A0000C9497000C9497000C9497000C94970074
:1000B0000C9497000C9497000C9497000C94970064
:1000C0000C9497000C9497000C9497000C94970054
:1000D0000C9497000C9497000C9497000C94970044
:1000E0000C9497000C9495020C948B0211241FBE63
:1000F000CFEFD1E2DEBFCDBF00E00CBF12E0A0E049
:10010000B2E0E4E3F1E100E00BBF02C007900D9222
:10011000A23BB107D9F722E0A2EBB2E001C01D92E9
:10012000AC3BB207E1F70E9499000C9498080C943C
:100130000000CF93DF93CDB7DEB766970FB6F89484
:10014000DEBF0FBECDBF80E895E20E94A0028AE02C
:1001500092E09F938F930E948D040E941C01209136
:10016000060290910702809108022C839D838E8362
:100170001F9283E08F9381E192E09F938F930E947F
:100180008D040F900F900F900F900F900F900F2EE7
:10019000FDE0CF2EF02D612C0F2EF3E0DF2EF02DA1
:1001A0000F2EFDE07F2EF02D0F2EF9E28F2EF2E0C4
:1001B0009F2EF02D0F2EF3E6AF2EF2E0BF2EF02D86
:1001C000EC2CC9826A82DB82F62C0D2D1C812D81DC
:1001D0003E814F81588569857A858B850E943001E3
:1001E0001F927F928C811F928F931F92DF929F921A
:1001F0008F920E948D04CE010C960E9485018D8500
:100200008F938C858F938F851F928F938E851F92EE
:100210008F93BF92AF920E948D042FEF83ED90E3F6
:10022000215080409040E1F700C000000FB6F894E4
:10023000DEBF0FBECDBFC4CF0E9477020E94550221
:1002400040E46FE080EE0E945D0240E660E680E6FA
:100250000E945D0241E06BE281E00E945D02089530
:10026000EF92FF920F931F93CF93DF93CDB7DEB73B
:100270002B970FB6F894DEBF0FBECDBFE982FA828E
:100280000B831C832D833E834F83588769877A872E
:100290008B87E980FA80B7017695679576956795A3
:1002A0007695679581E30E9414024E2D4295440F86
:1002B000407E62E380EE0E945D024B8165E38FE049
:1002C0000E945D027E0184E0E80EF11C16E3F70156
:1002D00061917F01812F0E9414021F5F1E33B9F7C5
:1002E00081E00E9438022B960FB6F894DEBF0FBE55
:1002F000CDBFDF91CF911F910F91FF90EF900895A7
:1003000063E080E30E94280208958F929F92AF924B
:10031000BF92CF92DF92EF92FF920F931F93CF93F2
:10032000DF93CDB7DEB72B970FB6F894DEBF0FBEC5
:10033000CDBF4C0160E08CE20E942802892B91F134
:1003400081E60E940202A82E82E60E9402028295A5
:1003500086958770B12CAA0CBB1CAA0CBB1CAA0CDE
:10036000BB1CA82A85E60E940202082F0F700930E4
:1003700008F008E00023F1F07E0184E0E80EF11CB3
:100380009E01200F311DF90134966F0116E6812F71
:100390000E940202F70181937F011F5FEC15FD05AA
:1003A000B1F708C081EA92E09F938F930E948D0479
:1003B0000F900F9040E06BE281E00E945D02BA82F4
:1003C000A9820B838BE0FE013196D40101900D923E
:1003D0008A95E1F7C4012B960FB6F894DEBF0FBEE5
:1003E000CDBFDF91CF911F910F91FF90EF90DF90E4
:1003F000CF90BF90AF909F908F9008952F980895C1
:100400002F9A0895CF93C82F0E94FE0183E00E9487
:1004100081028C2F0E9481020E948602C82F0E94B6
:1004200000028C2FCF910895CF93DF93D82FC62F42
:100430000E94FE0182E00E9481028D2F0E948102B3
:100440008C2F0E9481020E940002DF91CF910895BB
:10045000CF93C62F0E94020290E021E030E002C05C
:10046000220F331FCA95E2F782239323CF91089579
:10047000CF93C82F0E94FE018C2F80680E948102BA
:100480000E940002CF910895CF930E94FE0180EA5E
:100490000E9481020E948602C82F80E00E94810291
:1004A0000E9400028C2FCF9108950E94FE0180ECE3
:1004B0000E9481020E94000208951F93CF93DF9350
:1004C000D82F162FC42F0E94FE0185E00E948102C2
:1004D000812F0E9481028D2F0E9481028C2F0E9409
:1004E00081020E940002DF91CF911F91089584B193
:1004F000876884B98CB581618CBD8CB580648CBDF6
:1005000008958EBD0DB407FEFDCF08958FEF0E94B4
:1005100081028EB50895E0ECF0E0908195FFFDCF6B
:100520008093C60080E090E008958091C000882309
:1005300024F48091C60090E0089580E090E0089552
:1005400082959295907F9827807F98279C0140E024
:1005500050E060E074E284EF90E00E94D002CA01B3
:10056000B90161507109810991090E9449032AE981
:1005700039E949E15EE30E94AD030E9411037093E3
:10058000C5006093C40088E18093C1008EE0809331
:10059000C20065E972E08BE892E00E94420408958F
:1005A000052E97FB1EF400940E94E70257FD07D02A
:1005B0000E94EF0207FC03D04EF40C94E702509522
:1005C0004095309521953F4F4F4F5F4F089590953F
:1005D0008095709561957F4F8F4F9F4F0895A1E251
:1005E0001A2EAA1BBB1BFD010DC0AA1FBB1FEE1FAD
:1005F000FF1FA217B307E407F50720F0A21BB30BF8
:10060000E40BF50B661F771F881F991F1A9469F773
:1006100060957095809590959B01AC01BD01CF01CF
:1006200008950E9418036894B1110C94A7030895CB
:100630000E948C0388F09F5798F0B92F9927B751E3
:10064000B0F0E1F0660F771F881F991F1AF0BA9576
:10065000C9F714C0B13091F00E94A603B1E008952B
:100660000C94A603672F782F8827B85F39F0B93F1D
:10067000CCF3869577956795B395D9F73EF4909529
:100680008095709561957F4F8F4F9F4F0895E894A7
:1006900009C097FB3EF490958095709561957F4FCA
:1006A0008F4F9F4F9923A9F0F92F96E9BB27939578
:1006B000F695879577956795B795F111F8CFFAF488
:1006C000BB0F11F460FF1BC06F5F7F4F8F4F9F4FB9
:1006D00016C0882311F096E911C0772321F09EE817
:1006E000872F762F05C0662371F096E8862F70E07D
:1006F00060E02AF09A95660F771F881FDAF7880F57
:100700009695879597F9089557FD9058440F551F72
:1007100059F05F3F71F04795880F97FB991F61F083
:100720009F3F79F087950895121613061406551FFA
:10073000F2CF4695F1DF08C0161617061806991F66
:10074000F1CF86957105610508940895E894BB275B
:1007500066277727CB0197F908950E94C0030C9470
:1007600031040E94230438F00E942A0420F09523CB
:1007700011F00C941A040C94200411240C94A70377
:100780000E94840370F3959FC1F3950F50E0551FAD
:10079000629FF001729FBB27F00DB11D639FAA27D6
:1007A000F00DB11DAA1F649F6627B00DA11D661F25
:1007B000829F2227B00DA11D621F739FB00DA11D46
:1007C000621F839FA00D611D221F749F3327A00D00
:1007D000611D231F849F600D211D822F762F6A2F9C
:1007E00011249F5750409AF0F1F088234AF0EE0F01
:1007F000FF1FBB1F661F771F881F91505040A9F72E
:100800009E3F510580F00C941A040C94A7035F3F9F
:10081000E4F3983ED4F3869577956795B795F79569
:10082000E7959F5FC1F7FE2B880F911D96958795E1
:1008300097F9089597F99F6780E870E060E0089560
:100840009FEF80EC089500240A94161617061806E8
:100850000906089500240A941216130614060506C4
:100860000895092E0394000C11F4882352F0BB0F55
:1008700040F4BF2B11F460FF04C06F5F7F4F8F4FB8
:100880009F4F08950F931F93CF93DF93009731F4F9
:100890006115710519F480E090E03AC08B01EC011C
:1008A0006EE070E081E090E00E949C06FC01892BE4
:1008B00091F380E883830115110571F01387028796
:1008C00081E883838091B2029091B302892B21F455
:1008D000F093B302E093B2022097C9F0D187C087AA
:1008E0008381826083838091B4029091B502892BC9
:1008F00071F4F093B502E093B4028091B602909146
:10090000B702892B21F4F093B702E093B602CF012E
:10091000DF91CF911F910F910895CF93DF93CDB7C2
:10092000DEB7AE014A5F5F4FFA0161917191AF018D
:100930008091B4029091B5020E94A104DF91CF9101
:1009400008952F923F924F925F926F927F928F9273
:100950009F92AF92BF92CF92DF92EF92FF920F934E
:100960001F93CF93DF93CDB7DEB72C970FB6F894D4
:10097000DEBF0FBECDBF7C016B018A01FC01178277
:100980001682838181FFBDC1CE0101964C01F70122
:100990009381F60193FD859193FF81916F018823E7
:1009A00009F4ABC1853239F493FD859193FF8191B0
:1009B0006F01853229F4B70190E00E940208E7CF69
:1009C000512C312C20E02032A0F48B3269F030F42D
:1009D000803259F0833269F420612CC08D3239F0B5
:1009E000803339F4216026C02260246023C028604F
:1009F00021C027FD27C030ED380F3A3078F426FFAC
:100A000006C0FAE05F9E300D1124532E13C08AE019
:100A1000389E300D1124332E20620CC08E3221F40A
:100A200026FD6BC1206406C08C3611F4206802C01C
:100A3000883641F4F60193FD859193FF81916F0112
:100A40008111C1CF982F9F7D9554933028F40C5F6E
:100A50001F4FFFE3F9830DC0833631F0833771F008
:100A6000833509F05BC022C0F801808189830E5F65
:100A70001F4F44244394512C540115C03801F2E017
:100A80006F0E711CF801A080B18026FF03C0652D98
:100A900070E002C06FEF7FEFC5012C870E94F7075F
:100AA0002C0183012C852F77222E17C03801F2E00C
:100AB0006F0E711CF801A080B18026FF03C0652D68
:100AC00070E002C06FEF7FEFC5012C870E94E50741
:100AD0002C012C852068222E830123FC1BC0832D32
:100AE00090E048165906B0F4B70180E290E00E9409
:100AF00002083A94F4CFF50127FC859127FE8191F5
:100B00005F01B70190E00E94020831103A94F1E0D1
:100B10004F1A51084114510471F7E5C0843611F0A1
:100B2000893639F5F80127FF07C06081718182811C
:100B300093810C5F1F4F08C060817181072E000CEC
:100B4000880B990B0E5F1F4F2F76722E97FF09C0EF
:100B500090958095709561957F4F8F4F9F4F20683E
:100B6000722E2AE030E0A4010E943A08A82EA818AC
:100B700044C0853729F42F7EB22E2AE030E025C00C
:100B8000F22FF97FBF2E8F36C1F018F4883579F037
:100B9000B4C0803719F0883721F0AFC02F2F206103
:100BA000B22EB4FE0DC08B2D8460B82E09C024FF78
:100BB0000AC09F2F9660B92E06C028E030E005C01D
:100BC00020E130E002C020E132E0F801B7FE07C0CA
:100BD00060817181828193810C5F1F4F06C06081AB
:100BE000718180E090E00E5F1F4FA4010E943A08DF
:100BF000A82EA818FB2DFF777F2E76FE0BC0372D71
:100C00003E7FA51450F474FE0AC072FC08C0372D54
:100C10003E7E05C0BA2C372D03C0BA2C01C0B52CBE
:100C200034FF0DC0FE01EA0DF11D8081803311F407
:100C3000397E09C032FF06C0B394B39404C0832F39
:100C4000867809F0B39433FD13C030FF06C05A2CE8
:100C5000B31418F4530C5B18B32CB31468F4B70135
:100C600080E290E03C870E940208B3943C85F5CF77
:100C7000B31410F43B1801C0312C34FF12C0B7017B
:100C800080E390E03C870E9402083C8532FF17C059
:100C900031FD03C088E790E002C088E590E0B7012D
:100CA0000CC0832F867859F031FF02C08BE201C05F
:100CB00080E237FD8DE2B70190E00E940208A514A2
:100CC00038F4B70180E390E00E9402085A94F7CF0D
:100CD000AA94F401EA0DF11D8081B70190E00E9411
:100CE0000208A110F5CF332009F451CEB70180E2FC
:100CF00090E00E9402083A94F6CFF701868197812E
:100D000002C08FEF9FEF2C960FB6F894DEBF0FBE98
:100D1000CDBFDF91CF911F910F91FF90EF90DF90AA
:100D2000CF90BF90AF909F908F907F906F905F908B
:100D30004F903F902F9008950F931F93CF93DF9381
:100D4000869F8001879F100D969F100D1124C8016A
:100D50000E94B806EC01009729F0A80160E070E05D
:100D60000E94F007CE01DF91CF911F910F9108955E
:100D7000CF93DF938230910510F482E090E0E09110
:100D8000BA02F091BB0220E030E0C0E0D0E0309742
:100D900011F14081518148175907C0F04817590790
:100DA00061F482819381209719F09B838A832BC001
:100DB0009093BB028093BA0226C02115310519F029
:100DC0004217530718F49A01BE01DF01EF010280B8
:100DD000F381E02DDCCF2115310509F1281B390BFA
:100DE0002430310590F412968D919C9113976115E2
:100DF000710521F0FB019383828304C09093BB02B1
:100E00008093BA02FD01329644C0FD01E20FF31F48
:100E100081939193225031092D933C933AC02091B4
:100E2000B8023091B902232B41F420910202309193
:100E300003023093B9022093B8022091000230914E
:100E400001022115310541F42DB73EB7409104024E
:100E500050910502241B350BE091B802F091B902C4
:100E6000E217F307A0F42E1B3F0B2817390778F081
:100E7000AC014E5F5F4F2417350748F04E0F5F1FE0
:100E80005093B9024093B8028193919302C0E0E07D
:100E9000F0E0CF01DF91CF9108950F931F93CF938F
:100EA000DF93009709F48CC0FC0132971382128201
:100EB0000091BA021091BB020115110581F4208145
:100EC0003181820F931F2091B8023091B902281707
:100ED000390779F5F093B902E093B80271C0D801EF
:100EE00040E050E0AE17BF0750F412962D913C91B0
:100EF0001397AD012115310509F1D901F3CF9D01FA
:100F0000DA013383228360817181860F971F8217F4
:100F1000930769F4EC0128813981260F371F2E5F72
:100F20003F4F318320838A819B8193838283452B2A
:100F300029F4F093BB02E093BA0242C01396FC93EB
:100F4000EE931297ED01499159919E01240F351F9F
:100F5000E217F30771F480819181840F951F029647
:100F600011969C938E938281938113969C938E937A
:100F70001297E0E0F0E0D80112968D919C911397C2
:100F8000009719F0F8018C01F6CF8D919C91980192
:100F90002E5F3F4F820F931F2091B8023091B9020C
:100FA0002817390769F4309729F41092BB02109280
:100FB000BA0202C0138212821093B9020093B802DF
:100FC000DF91CF911F910F910895FC010590615021
:100FD00070400110D8F7809590958E0F9F1F08954F
:100FE000DC0101C06D9341505040E0F70895FC01D1
:100FF0006150704001900110D8F7809590958E0F48
:101000009F1F08950F931F93CF93DF93FB012381BD
:1010100021FD03C08FEF9FEF28C022FF16C046813D
:101020005781248135814217530744F4A081B1814F
:101030009D012F5F3F4F318320838C932681378121
:101040002F5F3F4F3783268310C0EB01092F182FE6
:101050000084F185E02D1995892BE1F68E819F8121
:1010600001969F838E83812F902FDF91CF911F91C7
:101070000F910895FA01AA27283051F1203181F10A
:10108000E8946F936E7F6E5F7F4F8F4F9F4FAF4F90
:10109000B1E03ED0B4E03CD0670F781F891F9A1FA3
:1010A000A11D680F791F8A1F911DA11D6A0F711D57
:1010B000811D911DA11D20D009F468943F912AE063
:1010C000269F11243019305D3193DEF6CF0108954B
:1010D000462F4770405D4193B3E00FD0C9F7F6CF7C
:1010E000462F4F70405D4A3318F0495D31FD405244
:1010F000419302D0A9F7EACFB4E0A69597958795DA
:1011000077956795BA95C9F70097610571050895B8
:101110009B01AC010A2E0694579547953795279564
:10112000BA95C9F7620F731F841F951FA01D0895FC
:04113000F894FFCF61
:101134000000BC02200061616100484549200A0D9D
:1011440000424547594E4E45522050C385204E59C2
:1011540054542025640A0A0A002D2D2D2D2D2D2DE1
:101164002D2D0A0D53656E64743A200A0D206C65AA
:101174006E6774683A202564200A0D2064617461E6
:10118400202564200A0D204944202564200A0D20CE
:101194000A0D0052656369657665643A200A0D207C
:1011A4006C656E6774683A202564200A0D206461BA
:1011B4007461202564200A0D204944202564200AF6
:1011C4000D2D2D2D2D2D2D2D0A0D0A0D0A0D0A0D77
:1011D4000075676C65722069206D756666656E734F
:0211E400000009
:00000001FF
