:100000000C9476000C9497000C9497000C94970035
:100010000C9497000C9497000C9497000C94970004
:100020000C9497000C9497000C9497000C949700F4
:100030000C9497000C9497000C9497000C949700E4
:100040000C9497000C9497000C9497000C949700D4
:100050000C9497000C9497000C9497000C949700C4
:100060000C9497000C9497000C9497000C949700B4
:100070000C9497000C9497000C9497000C949700A4
:100080000C9497000C9497000C9497000C94970094
:100090000C9497000C9497000C9497000C94970084
:1000A0000C9497000C9497000C9497000C94970074
:1000B0000C9497000C9497000C9497000C94970064
:1000C0000C9497000C9497000C9497000C94970054
:1000D0000C9497000C9497000C9497000C94970044
:1000E0000C9497000C9472020C94680211241FBEA9
:1000F000CFEFD1E2DEBFCDBF00E00CBF12E0A0E049
:10010000B2E0EEE2F1E100E00BBF02C007900D9219
:10011000AE33B107D9F722E0AEE3B2E001C01D92E1
:10012000A834B207E1F70E9499000C9495080C944A
:100130000000CF93DF93CDB7DEB72B970FB6F894BF
:10014000DEBF0FBECDBF80E895E20E947D020E9417
:10015000AD0286E092E09F938F930E948A040E94F2
:10016000E9002FEF83ED90E3215080409040E1F7CC
:1001700000C000000F900F900DE012E084E690E0C8
:100180000E94C8022FEF83EF91E021508040904001
:10019000E1F700C00000CE0101960E9462018D814E
:1001A0001F928F938C811F928F931F930F930E94A6
:1001B0008A042FEF83EF91E0215080409040E1F7D7
:1001C00000C000000F900F900F900F900F900F90B5
:1001D000D5CF0E9454020E94320240E660E680E6DB
:1001E0000E943A0241E06BE281E00E943A0240E064
:1001F0006FE080EE0E943A020895EF92FF920F9313
:100200001F93CF93DF93CDB7DEB72B970FB6F8943C
:10021000DEBF0FBECDBFE982FA820B831C832D8324
:100220003E834F83588769877A878B87E980FA8076
:10023000B70176956795769567957695679581E38D
:100240000E94F1014E2D4295440F407E62E380EE04
:100250000E943A024B8165E38FE00E943A027E01E0
:1002600084E0E80EF11C16E3F70161917F01812F14
:100270000E94F1011F5F1E33B9F781E00E94150251
:1002800063E080E30E9405029F938F938DE192E0EB
:100290009F938F930E948A040F900F900F900F905E
:1002A0002B960FB6F894DEBF0FBECDBFDF91CF9176
:1002B0001F910F91FF90EF90089563E080E30E94FB
:1002C000050208958F929F92AF92BF92CF92DF92D4
:1002D000EF92FF920F931F93CF93DF93CDB7DEB7CB
:1002E0002B970FB6F894DEBF0FBECDBF4C0161E077
:1002F0008CE20E940502892B91F181E70E94DF01C7
:10030000A82E82E70E94DF01829586958770B12C26
:10031000AA0CBB1CAA0CBB1CAA0CBB1CA82A85E7F8
:100320000E94DF01082F0F70093008F008E0002359
:10033000F1F07E0184E0E80EF11C9E01200F311DDA
:10034000F90134966F0116E7812F0E94DF01F70152
:1003500081937F011F5FEC15FD05B1F708C08FE2A7
:1003600092E09F938F930E948A040F900F9040E039
:100370006CE281E00E943A02BA82A9820B838BE090
:10038000FE013196D40101900D928A95E1F7C401E6
:100390002B960FB6F894DEBF0FBECDBFDF91CF9185
:1003A0001F910F91FF90EF90DF90CF90BF90AF9093
:1003B0009F908F9008952F9808952F9A0895CF9326
:1003C000C82F0E94DB0183E00E945E028C2F0E94F6
:1003D0005E020E946302C82F0E94DD018C2FCF9124
:1003E0000895CF93DF93D82FC62F0E94DB0182E0C0
:1003F0000E945E028D2F0E945E028C2F0E945E0280
:100400000E94DD01DF91CF910895CF93C62F0E9406
:10041000DF0190E021E030E002C0220F331FCA95D7
:10042000E2F782239323CF910895CF93C82F0E94A0
:10043000DB018C2F80680E945E020E94DD01CF915B
:100440000895CF930E94DB0180EA0E945E020E9421
:100450006302C82F80E00E945E020E94DD018C2FA3
:10046000CF9108950E94DB0180EC0E945E020E9401
:10047000DD0108951F93CF93DF93D82F162FC42F3C
:100480000E94DB0185E00E945E02812F0E945E02D5
:100490008D2F0E945E028C2F0E945E020E94DD0161
:1004A000DF91CF911F91089584B1876884B98CB58D
:1004B00081618CBD8CB580648CBD08958EBD0DB4FA
:1004C00007FEFDCF08958FEF0E945E028EB508955E
:1004D000E0ECF0E0908195FFFDCF8093C60080E0D6
:1004E00090E008958091C000882324F48091C60094
:1004F00090E0089580E090E0089582959295907F35
:100500009827807F98279C0140E050E060E074E2EB
:1005100084EF90E00E94CD02CA01B90161507109D7
:10052000810991090E9446032AE939E949E15EE31C
:100530000E94AA030E940E037093C5006093C4003A
:1005400088E18093C1008EE08093C20062E772E090
:1005500088E692E00E943F040895259AE0E8F0E0E2
:10056000808182608083A1E8B0E08C9188618C9367
:100570008081806880838081806480838C918460A6
:100580008C9382EE94E09093870080938600089588
:1005900090938900809388000895052E97FB1EF4A0
:1005A00000940E94E40257FD07D00E94EC0207FC71
:1005B00003D04EF40C94E40250954095309521956B
:1005C0003F4F4F4F5F4F089590958095709561957F
:1005D0007F4F8F4F9F4F0895A1E21A2EAA1BBB1B7E
:1005E000FD010DC0AA1FBB1FEE1FFF1FA217B307FF
:1005F000E407F50720F0A21BB30BE40BF50B661F15
:10060000771F881F991F1A9469F7609570958095D8
:1006100090959B01AC01BD01CF0108950E94150387
:100620006894B1110C94A40308950E94890388F082
:100630009F5798F0B92F9927B751B0F0E1F0660FA6
:10064000771F881F991F1AF0BA95C9F714C0B130E7
:1006500091F00E94A303B1E008950C94A303672FC7
:10066000782F8827B85F39F0B93FCCF38695779516
:100670006795B395D9F73EF49095809570956195FF
:100680007F4F8F4F9F4F0895E89409C097FB3EF42A
:1006900090958095709561957F4F8F4F9F4F9923CF
:1006A000A9F0F92F96E9BB279395F695879577954D
:1006B0006795B795F111F8CFFAF4BB0F11F460FF0D
:1006C0001BC06F5F7F4F8F4F9F4F16C0882311F065
:1006D00096E911C0772321F09EE8872F762F05C079
:1006E000662371F096E8862F70E060E02AF09A9514
:1006F000660F771F881FDAF7880F9695879597F909
:10070000089557FD9058440F551F59F05F3F71F001
:100710004795880F97FB991F61F09F3F79F0879568
:100720000895121613061406551FF2CF4695F1DFF1
:1007300008C0161617061806991FF1CF8695710581
:10074000610508940895E894BB2766277727CB01B5
:1007500097F908950E94BD030C942E040E94200472
:1007600038F00E94270420F0952311F00C94170410
:100770000C941D0411240C94A4030E94810370F3B3
:10078000959FC1F3950F50E0551F629FF001729F36
:10079000BB27F00DB11D639FAA27F00DB11DAA1F45
:1007A000649F6627B00DA11D661F829F2227B00D92
:1007B000A11D621F739FB00DA11D621F839FA00D1D
:1007C000611D221F749F3327A00D611D231F849F6D
:1007D000600D211D822F762F6A2F11249F575040C4
:1007E0009AF0F1F088234AF0EE0FFF1FBB1F661F3F
:1007F000771F881F91505040A9F79E3F510580F008
:100800000C9417040C94A4035F3FE4F3983ED4F3D4
:10081000869577956795B795F795E7959F5FC1F7AB
:10082000FE2B880F911D9695879597F9089597F956
:100830009F6780E870E060E008959FEF80EC089586
:1008400000240A94161617061806090608950024AF
:100850000A9412161306140605060895092E039429
:10086000000C11F4882352F0BB0F40F4BF2B11F49D
:1008700060FF04C06F5F7F4F8F4F9F4F08950F93AE
:100880001F93CF93DF93009731F46115710519F42D
:1008900080E090E03AC08B01EC016EE070E081E016
:1008A00090E00E949906FC01892B91F380E88383F4
:1008B0000115110571F01387028781E88383809108
:1008C0003E0290913F02892B21F4F0933F02E09386
:1008D0003E022097C9F0D187C087838182608383DD
:1008E0008091400290914102892B71F4F093410272
:1008F000E09340028091420290914302892B21F4BF
:10090000F0934302E0934202CF01DF91CF911F9118
:100910000F910895CF93DF93CDB7DEB7AE014A5F55
:100920005F4FFA0161917191AF0180914002909106
:1009300041020E949E04DF91CF9108952F923F9231
:100940004F925F926F927F928F929F92AF92BF92DF
:10095000CF92DF92EF92FF920F931F93CF93DF938B
:10096000CDB7DEB72C970FB6F894DEBF0FBECDBF64
:100970007C016B018A01FC0117821682838181FF51
:10098000BDC1CE0101964C01F7019381F60193FDA3
:10099000859193FF81916F01882309F4ABC1853262
:1009A00039F493FD859193FF81916F01853229F48C
:1009B000B70190E00E94FF07E7CF512C312C20E0D7
:1009C0002032A0F48B3269F030F4803259F0833257
:1009D00069F420612CC08D3239F0803339F4216004
:1009E00026C02260246023C0286021C027FD27C0C4
:1009F00030ED380F3A3078F426FF06C0FAE05F9EFB
:100A0000300D1124532E13C08AE0389E300D11246E
:100A1000332E20620CC08E3221F426FD6BC120647F
:100A200006C08C3611F4206802C0883641F4F60105
:100A300093FD859193FF81916F018111C1CF982F13
:100A40009F7D9554933028F40C5F1F4FFFE3F9838B
:100A50000DC0833631F0833771F0833509F05BC008
:100A600022C0F801808189830E5F1F4F4424439484
:100A7000512C540115C03801F2E06F0E711CF801C1
:100A8000A080B18026FF03C0652D70E002C06FEF2B
:100A90007FEFC5012C870E94F4072C0183012C8570
:100AA0002F77222E17C03801F2E06F0E711CF8016B
:100AB000A080B18026FF03C0652D70E002C06FEFFB
:100AC0007FEFC5012C870E94E2072C012C8520684E
:100AD000222E830123FC1BC0832D90E0481659066B
:100AE000B0F4B70180E290E00E94FF073A94F4CF9F
:100AF000F50127FC859127FE81915F01B70190E008
:100B00000E94FF0731103A94F1E04F1A5108411446
:100B1000510471F7E5C0843611F0893639F5F801D2
:100B200027FF07C060817181828193810C5F1F4F15
:100B300008C060817181072E000C880B990B0E5F35
:100B40001F4F2F76722E97FF09C090958095709554
:100B500061957F4F8F4F9F4F2068722E2AE030E0C3
:100B6000A4010E943708A82EA81844C0853729F48C
:100B70002F7EB22E2AE030E025C0F22FF97FBF2E63
:100B80008F36C1F018F4883579F0B4C0803719F089
:100B9000883721F0AFC02F2F2061B22EB4FE0DC0D8
:100BA0008B2D8460B82E09C024FF0AC09F2F966049
:100BB000B92E06C028E030E005C020E130E002C0D8
:100BC00020E132E0F801B7FE07C0608171818281C7
:100BD00093810C5F1F4F06C06081718180E090E0BF
:100BE0000E5F1F4FA4010E943708A82EA818FB2DE6
:100BF000FF777F2E76FE0BC0372D3E7FA51450F475
:100C000074FE0AC072FC08C0372D3E7E05C0BA2CA7
:100C1000372D03C0BA2C01C0B52C34FF0DC0FE0126
:100C2000EA0DF11D8081803311F4397E09C032FF55
:100C300006C0B394B39404C0832F867809F0B394AC
:100C400033FD13C030FF06C05A2CB31418F4530CF4
:100C50005B18B32CB31468F4B70180E290E03C87D2
:100C60000E94FF07B3943C85F5CFB31410F43B18F2
:100C700001C0312C34FF12C0B70180E390E03C8703
:100C80000E94FF073C8532FF17C031FD03C088E793
:100C900090E002C088E590E0B7010CC0832F867811
:100CA00059F031FF02C08BE201C080E237FD8DE2D6
:100CB000B70190E00E94FF07A51438F4B70180E364
:100CC00090E00E94FF075A94F7CFAA94F401EA0D2E
:100CD000F11D8081B70190E00E94FF07A110F5CFC0
:100CE000332009F451CEB70180E290E00E94FF0763
:100CF0003A94F6CFF7018681978102C08FEF9FEF7C
:100D00002C960FB6F894DEBF0FBECDBFDF91CF910A
:100D10001F910F91FF90EF90DF90CF90BF90AF9019
:100D20009F908F907F906F905F904F903F902F900B
:100D300008950F931F93CF93DF93869F8001879F22
:100D4000100D969F100D1124C8010E94B506EC01EC
:100D5000009729F0A80160E070E00E94ED07CE0145
:100D6000DF91CF911F910F910895CF93DF93823040
:100D7000910510F482E090E0E0914602F091470284
:100D800020E030E0C0E0D0E0309711F140815181A7
:100D900048175907C0F04817590761F482819381B9
:100DA000209719F09B838A832BC0909347028093EE
:100DB000460226C02115310519F04217530718F4D1
:100DC0009A01BE01DF01EF010280F381E02DDCCF4B
:100DD0002115310509F1281B390B2430310590F418
:100DE00012968D919C9113976115710521F0FB016D
:100DF0009383828304C09093470280934602FD014F
:100E0000329644C0FD01E20FF31F8193919322506B
:100E100031092D933C933AC0209144023091450210
:100E2000232B41F4209102023091030230934502BA
:100E300020934402209100023091010221153105D6
:100E400041F42DB73EB74091040250910502241B96
:100E5000350BE0914402F0914502E217F307A0F44C
:100E60002E1B3F0B2817390778F0AC014E5F5F4F00
:100E70002417350748F04E0F5F1F509345024093EB
:100E800044028193919302C0E0E0F0E0CF01DF9152
:100E9000CF9108950F931F93CF93DF93009709F499
:100EA0008CC0FC013297138212820091460210918D
:100EB00047020115110581F420813181820F931FB2
:100EC00020914402309145022817390779F5F093B3
:100ED0004502E093440271C0D80140E050E0AE17F3
:100EE000BF0750F412962D913C911397AD01211537
:100EF000310509F1D901F3CF9D01DA013383228352
:100F000060817181860F971F8217930769F4EC0146
:100F100028813981260F371F2E5F3F4F3183208371
:100F20008A819B8193838283452B29F4F093470226
:100F3000E093460242C01396FC93EE931297ED01A4
:100F4000499159919E01240F351FE217F30771F45F
:100F500080819181840F951F029611969C938E93A8
:100F60008281938113969C938E931297E0E0F0E038
:100F7000D80112968D919C911397009719F0F80162
:100F80008C01F6CF8D919C9198012E5F3F4F820F7F
:100F9000931F20914402309145022817390769F4C4
:100FA000309729F4109247021092460202C0138231
:100FB00012821093450200934402DF91CF911F915A
:100FC0000F910895FC010590615070400110D8F711
:100FD000809590958E0F9F1F0895DC0101C06D9341
:100FE00041505040E0F70895FC016150704001907D
:100FF0000110D8F7809590958E0F9F1F08950F933D
:101000001F93CF93DF93FB01238121FD03C08FEF5B
:101010009FEF28C022FF16C0468157812481358169
:101020004217530744F4A081B1819D012F5F3F4FC8
:10103000318320838C93268137812F5F3F4F378305
:10104000268310C0EB01092F182F0084F185E02DB5
:101050001995892BE1F68E819F8101969F838E835E
:10106000812F902FDF91CF911F910F910895FA0159
:10107000AA27283051F1203181F1E8946F936E7FD7
:101080006E5F7F4F8F4F9F4FAF4FB1E03ED0B4E0C8
:101090003CD0670F781F891F9A1FA11D680F791F09
:1010A0008A1F911DA11D6A0F711D811D911DA11D1A
:1010B00020D009F468943F912AE0269F112430192A
:1010C000305D3193DEF6CF010895462F4770405DC5
:1010D0004193B3E00FD0C9F7F6CF462F4F70405D74
:1010E0004A3318F0495D31FD4052419302D0A9F7CF
:1010F000EACFB4E0A6959795879577956795BA95C9
:10110000C9F700976105710508959B01AC010A2E8E
:1011100006945795479537952795BA95C9F7620F65
:0E112000731F841F951FA01D0895F894FFCF24
:10112E00000048022000484549200A0D00783A2068
:10113E0025642C20793A202564200A0D0052745320
:10114E0020692066756E6B3A202564200A0D0052C8
:0E115E0058422E2E2E2064C3A5726C696700C5
:00000001FF
