:100000000C94EC000C940D010C940D010C940D015A
:100010000C940D010C940D010C940D010C940D0128
:100020000C940D010C940D010C940D010C940D0118
:100030000C940D010C940D010C940D010C940D0108
:100040000C940D010C940D010C940D010C940D01F8
:100050000C940D010C940D010C940D010C940D01E8
:100060000C940D010C940D010C940D010C940D01D8
:100070000C940D010C940D010C940D010C940D01C8
:100080000C940D010C940D010C940D010C940D01B8
:100090000C940D010C940D010C940D010C949D0415
:1000A0000C940D010C940D010C940D010C940D0198
:1000B0000C940D010C940D010C940D010C940D0188
:1000C0000C940D010C940D010C940D010C940D0178
:1000D0000C940D010C940D010C940D010C940D0168
:1000E0000C940D01BC040E050E050E050E050E0543
:1000F0000E050E05BC040E050E050E050E050E05BB
:100100000E050E05BE040E050E050E050E050E05A8
:100110000E050E050E050E050E050E050E050E0547
:100120000E050E05BE040E050E050E050E050E0588
:100130000E050E050E050E050E050E050E050E0527
:100140000E050E050A050E050E050E050E050E051B
:100150000E050E05E7040E050E050E050E050E052F
:100160000E050E050E050E050E050E050E050E05F7
:100170000E050E05DB040E050E050E050E050E051B
:100180000E050E05F904084AD73B3BCE016E84BC30
:10019000BFFDC12F3D6C74319ABD56833DDA3D00E1
:1001A000C77F11BED9E4BB4C3E916BAAAABE00002A
:1001B00000803F000C940A050C9488030C94E7041B
:1001C0000C94DB040C947E030C940E050C94BC047C
:1001D0000C94F9040C94BE0411241FBECFEFD1E29D
:1001E000DEBFCDBF00E00CBF12E0A0E0B2E0E0E374
:1001F000F0E200E00BBF02C007900D92A639B107F4
:10020000D9F722E0A6E9B2E001C01D92A63BB207F1
:10021000E1F70E940F010C9416100C940000CF938C
:10022000DF93CDB7DEB7A4970FB6F894DEBF0FBE4D
:10023000CDBF80E895E20E9493030E94C3030E9411
:100240005A0887E092E09F938F930E940B0C78945A
:100250000E94F6030E9424050E94E7012FEF31EE71
:1002600084E0215030408040E1F700C000000E944F
:100270003E050E941707E2E0F1E080818D7F8083D8
:1002800084E60E942A059FEFA3EDB0E39150A040C1
:10029000B040E1F700C00000AE014F5F5F4F6AE081
:1002A00070E08AEF90E00E949E070F900F90662406
:1002B0006394712C0F2EF3E34F2EF2E05F2EF02D9E
:1002C0000F2EF7E42F2EF2E03F2EF02D0E94540760
:1002D000919581959109BC0180E090E00E94920A7D
:1002E0002DEC3CE44FEA52E40E94EA090E945C0AC9
:1002F0004B015C010E9412046C01788A6F8622E037
:10030000298B0E94D406AE014F5F5F4FB4010E945B
:10031000C6070E9425070E94D4069F938F93AEE0E4
:10032000B2E0BF93AF930E940B0C9F928F92A2E218
:10033000B2E0BF93AF930E940B0C0E94D4068819C1
:1003400099099F938F935F924F920E940B0CC60165
:1003500099279F938F931F92DF923F922F920E9433
:100360000B0C0E94CC060FB6F894DEBF0FBECDBFBB
:10037000892B51F0A7E5B2E0BF93AF930E940B0C1D
:100380000E945D080F900F9061E08CE20E941B03B9
:10039000892B69F0CE014A960E945002FE017A969E
:1003A000ADE9B2E08BE001900D928A95E1F7DA8A2F
:1003B000CB8AEF84F88809891D2D2C2D3C894D8925
:1003C0005E896F89788D898D0E94FB017FCF0E94A5
:1003D0006A030E94480340E660E780E60E945003FB
:1003E00042E06BE282E00E94500340E06FE080EE6A
:1003F0000E9450030895EF92FF920F931F93CF93A3
:10040000DF93CDB7DEB72B970FB6F894DEBF0FBEE4
:10041000CDBFE982FA820B831C832D833E834F83F9
:10042000588769877A878B87E980FA80B701769544
:100430006795769567957695679581E30E940703A2
:100440004E2D4295440F407E62E380EE0E945003A1
:100450004B8165E38FE00E9450037E0184E0E80E4B
:10046000F11C16E3F70161917F01812F0E940703C0
:100470001F5F1E33B9F781E00E942B032B960FB646
:10048000F894DEBF0FBECDBFDF91CF911F910F91CA
:10049000FF90EF90089563E080E30E941B030895AE
:1004A0008F929F92AF92BF92CF92DF92EF92FF9284
:1004B0000F931F93CF93DF93CDB7DEB72B970FB674
:1004C000F894DEBF0FBECDBF4C0161E08CE20E940C
:1004D0001B03892BB9F181E70E94F502A82E82E760
:1004E0000E94F502829586958770B12CAA0CBB1CE0
:1004F000AA0CBB1CAA0CBB1CA82A85E70E94F5020B
:10050000082F0F70093008F008E00023A9F07E01E1
:1005100084E0E80EF11C9E01200F311DF901349694
:100520006F0116E7812F0E94F502F70181937F0189
:100530001F5FEC15FD05B1F740E06CE283E00E941F
:10054000500308C081E692E09F938F930E940B0CAA
:100550000F900F90BA82A9820B838BE0FE01319637
:10056000D40101900D928A95E1F7C4012B960FB644
:10057000F894DEBF0FBECDBFDF91CF911F910F91D9
:10058000FF90EF90DF90CF90BF90AF909F908F90B3
:100590000895CF93DF93CDB7DEB72B970FB6F894BE
:1005A000DEBF0FBECDBF61E08CE20E941B0300974F
:1005B00079F0CE0101960E9450028BE0FE01319647
:1005C000ADE9B2E001900D928A95E1F781E090E00B
:1005D0002B960FB6F894DEBF0FBECDBFDF91CF9143
:1005E00008952F9808952F9A0895CF93C82F0E94A9
:1005F000F10283E00E9474038C2F0E9474030E9416
:100600007903C82F0E94F3028C2FCF910895CF93C6
:10061000DF93D82FC62F0E94F10282E00E9474035C
:100620008D2F0E9474038C2F0E9474030E94F3028A
:10063000DF91CF910895CF93C62F0E94F50290E0ED
:1006400021E030E002C0220F331FCA95E2F7822377
:100650009323CF910895CF93C82F0E94F1028C2F3E
:1006600080680E9474030E94F302CF910895CF9393
:100670000E94F10280EA0E9474030E947903C82F4D
:1006800080E00E9474030E94F3028C2FCF910895A2
:100690000E94F10280EC0E9474030E94F30208950C
:1006A0001F93CF93DF93D82F162FC42F0E94F102F0
:1006B00085E00E947403812F0E9474038D2F0E9495
:1006C00074038C2F0E9474030E94F302DF91CF9178
:1006D0001F91089584B1876884B98CB581618CBD00
:1006E0008CB580648CBD08958EBD0DB407FEFDCF22
:1006F00008958FEF0E9474038EB50895E0ECF0E04A
:10070000908195FFFDCF8093C60080E090E0089532
:100710008091C000882324F48091C60090E0089561
:1007200080E090E0089582959295907F9827807F51
:1007300098279C0140E050E060E074E284EF90E094
:100740000E94CF08CA01B90161507109810991095C
:100750000E94940A2AE939E949E15EE30E944F0BBD
:100760000E945C0A7093C5006093C40088E1809386
:10077000C1008EE08093C20068E873E08EE793E0EA
:100780000E94C00B0895259AE0E8F0E08081826025
:100790008083A1E8B0E08C9188618C93808180682F
:1007A00080838081806480838C9184608C9382EECE
:1007B00094E0909387008093860008959C012656CC
:1007C00034402C33310538F49093890080938800AD
:1007D00081E090E008958EE692E09F938F930E94CF
:1007E0000B0C0F900F908FEF9FEF08958298EAE720
:1007F000F0E0808180688083808187608083ECE77F
:10080000F0E080818F7D80838081806C808308957B
:1008100083B1829586958695837091E08927817052
:1008200090E00895ECE7F0E0808182608083EAE761
:10083000F0E0808180648083808186FDFDCF2091FF
:1008400078008091790090E0982F8827820F911D81
:1008500008950E94120421E08436910508F020E0FA
:10086000822F08958CE08093B8008FEF8093BB00B7
:1008700084E08093BC0008958091BC00817008954D
:10088000ECEBF0E0808180FDFDCF809100020895C7
:10089000CF93DF93EC01ECEBF0E0908190FDFDCF86
:1008A0006093980298819093990290FD13C06230F2
:1008B00088F0FE013196AAE9B2E06250262F30E0BE
:1008C0002E5F3F4FCE01820F931F21912D93E8178A
:1008D000F907D9F71092960288EF8093000285EA13
:1008E0008093BC00DF91CF910895ECEBF0E0808124
:1008F00080FDFDCF1092960288EF8093000285EA7A
:100900008093BC000895ECEBF0E0208120FDFDCF4A
:100910002091960220FF0DC0662359F029E932E0AC
:10092000A82FB92FF90181918D938E2F821B8617E5
:10093000D0F380919602817008951F920F920FB6A6
:100940000F9211240BB60F922F933F938F939F9387
:10095000AF93BF93EF93FF93E091B9008E2F90E098
:10096000FC013897E135F10508F058C08827EE58AA
:10097000FF4F8F4F0C94EE0810929702E091970270
:1009800080919802E81770F481E08E0F80939702AF
:10099000F0E0E756FD4F80818093BB0085E88093AF
:1009A000BC0043C08091960281608093960284E9E6
:1009B0008093BC003AC0E091970281E08E0F809353
:1009C00097028091BB00F0E0E756FD4F80832091B5
:1009D000970230E08091980290E00197281739073C
:1009E00024F485EC8093BC0020C085E88093BC0093
:1009F0001CC08091BB00E0919702F0E0E756FD4FEC
:100A000080838091960281608093960284E980932E
:100A1000BC000BC085EA8093BC0007C08091B90080
:100A20008093000284E08093BC00FF91EF91BF911E
:100A3000AF919F918F913F912F910F900BBE0F908F
:100A40000FBE0F901F9018950E9432048AB18360E8
:100A50008AB90895CF93DF9300D0CDB7DEB790E584
:100A600099831A828B8363E0CE0101960E94480429
:100A70000F900F900F90DF91CF910895CF93DF9358
:100A8000CDB7DEB72B970FB6F894DEBF0FBECDBF44
:100A9000CE0101960E9450028BE0FE013196ADE935
:100AA000B2E001900D928A95E1F7EDE9F2E08381E1
:100AB00090E09093AB028093AA02848190E090939F
:100AC000A9028093A8022B960FB6F894DEBF0FBE42
:100AD000CDBFDF91CF9108958091A00290E008955D
:100AE0008091A10290E00895CF92DF92EF92FF9261
:100AF000CF93DF93C091AA02D091AB026091A00284
:100B000070E080E090E00E94920A6B017C01BE01DF
:100B1000DD0F880B990B0E94940A9B01AC01C70161
:100B2000B6010E944E090E945C0A77237CF0072ED2
:100B3000000C880B990B0E94940A24EA30E74DE3DD
:100B40005FE30E94EA090E945C0A0EC0072E000CB7
:100B5000880B990B0E94940A23E333E343EB5FE392
:100B60000E94EA090E945C0ACB010496099710F4DE
:100B700060E070E06C398FEF780714F46CE97FEF78
:100B8000CB016536710514F084E690E0DF91CF91DA
:100B9000FF90EF90DF90CF900895CF92DF92EF9289
:100BA000FF92CF93DF93C091A802D091A9026091E8
:100BB000A10270E080E090E00E94920A6B017C014B
:100BC000BE01DD0F880B990B0E94940A9B01AC01BA
:100BD000C701B6010E944E090E945C0A77237CF08F
:100BE000072E000C880B990B0E94940A28EB3EE11B
:100BF00045E45FE30E94EA090E945C0A0EC0072EEA
:100C0000000C880B990B0E94940A23E333E343EB17
:100C10005FE30E94EA090E945C0ACB0104960997EF
:100C200010F460E070E06C398FEF780714F46CE931
:100C30007FEFCB016536710514F084E690E0DF911B
:100C4000CF91FF90EF90DF90CF900895009771F0D3
:100C50008130910571F08230910571F083309105FA
:100C600071F0049779F08CE792E0089582E792E0C2
:100C7000089584E792E0089586E792E0089588E772
:100C800092E008958AE792E00895CF92DF92EF9282
:100C9000FF92CF93DF930E947405EC010E94CD0573
:100CA000BC01990F880B990B0E94940A6B017C017F
:100CB000BE010D2E000C880B990B0E94940A9B011B
:100CC000AC01C701B6010E94EA090E94BB0920E0FD
:100CD00030E044E353E40E944F0B2BED3FE049E446
:100CE00050E40E94EA090E945C0A9B01DD2314F48F
:100CF0002C543F4F332314F428593E4FC901DF9140
:100D0000CF91FF90EF90DF90CF900895CF93DF9336
:100D10000E947405EC010E94CD059E01215B3F4FAE
:100D20002F39310530F49C01215B3F4F2F393105BC
:100D3000F8F0BC01CE010E9445069C012B533140C6
:100D40002E323105C0F08E329105C0F0235F3E4F48
:100D500029353105B0F0295531092B353105A0F081
:100D6000825E91098935910590F080E090E011C094
:100D700080E090E00EC081E090E00BC081E090E068
:100D800008C083E090E005C082E090E002C084E00B
:100D900090E0DF91CF9108958091A20290E00895B4
:100DA0008091A30290E008958091A40290E00895BC
:100DB0008091A60290E008958091A50290E00895A8
:100DC000CF93DF938C599F4FBC0112F46F5F7F4F1D
:100DD000EB01D595C795DF93CF9382E892E09F937F
:100DE0008F930E940B0CBE01DD0F880B990B0E94A4
:100DF000940A20E030E04CE652E40E944F0B20E0E1
:100E000030E048EC52E40E94EA0920E030EC4CE883
:100E100054E40E944F090E945C0ACB010E94DE0349
:100E20000F900F900F900F90DF91CF910895E1E018
:100E3000F1E0808182618083808188668083E2E046
:100E4000F1E08081806180830895CF93DF93EC018E
:100E5000DF93CF938AE892E09F938F930E940B0CCD
:100E60000F900F900F900F90CB30D1054CF0E2E037
:100E7000F1E08081826080838C2F0E942A0511C05E
:100E8000C63F8FEFD80754F48C2F81950E942A0516
:100E9000E2E0F1E080818D7F808303C080E00E94EA
:100EA0002A05DF91CF910895CF93DF93F8941092A4
:100EB0000701E2E0F1E080818F7D80838081877F80
:100EC000808387E893E10197F1F700C00000A6E076
:100ED000B1E08C9190E0982F8827208128602083B2
:100EE000C7E8D3E12197F1F700C000003C91A7E8E3
:100EF000B3E11197F1F700C0000020812064208346
:100F00002081206220837894832BDF91CF910895F4
:100F10000E945407BC0180E090E00E94920A2DECF0
:100F20003CE44FEA52E40E94EA090E945C0ACB01C9
:100F30006F36710514F080E090E00895CF93DF9351
:100F40009B01EA01188219821A821B829D838C837D
:100F50007F836E83BC016F5F7F4F8FEF9FE70E949F
:100F6000BB08798768872F5F3F4F032E000C440B27
:100F7000550B6FEF7FEF8FEF9FE30E94CF082A871B
:100F80003B874C875D87DF91CF9108950F931F9327
:100F9000CF93DF93EA01861B970B8536910574F496
:100FA0008C392FEF92076CF02C813D81829FF001EC
:100FB000839FF00D929FF00D112405C0E4E6F0E050
:100FC00002C0ECE9FFEF092E000CAA0BBB0B488115
:100FD00059816A817B819A01AB01280F391F4A1F11
:100FE0005B1F8A859B85AC85BD8582179307A40707
:100FF000B5074CF488839983AA83BB836FEF7FEF97
:101000008FEF9FE31DC0B095A095909581959F4F60
:10101000AF4FBF4F281739074A075B074CF4888347
:101020009983AA83BB8361E070E080E090EC08C004
:10103000288339834A835B83AE81BF810E94F6088F
:101040008F01FF0F220B330BAB01BC01400F511F6F
:10105000621F731FDB01CA01772324F481589F4F5D
:10106000AF4FBF4F689416F8B595A795979587959C
:101070001694D1F7813020E892072FEFA207B2072C
:1010800024F481E090E8AFEFBFEF811520E89207EC
:10109000A105B10524F08FEF9FE7A0E0B0E0DF915C
:1010A000CF911F910F910895FC011082118212823D
:1010B00013820895249A2C9A08952C982FEB85E496
:1010C00094E0215080409040E1F700C000002C9A4D
:1010D0000895CF93DF93CDB7DEB72E970FB6F89470
:1010E000DEBF0FBECDBF8C01AE014F5F5F4F6AE028
:1010F00070E08AEF90E00E949E070F2EF2E3EF2E41
:10110000F12CF02D812C912C9E012F5F3F4F690116
:101110000F2EF7E5AF2EF2E0BF2EF02D0E94C90290
:101120000130110539F40E9454070E94D4068C2D19
:101130009D2D08C00115110519F40E94740502C007
:10114000882D992D0E9425070E94D4069701281BFF
:10115000390BC901880F991F0E94E0060E94CC0636
:10116000892BE1F2BF92AF920E940B0C0E945D08A6
:101170000F900F90D3CF97FB072E16F4009407D053
:1011800077FD09D00E94FE0807FC05D03EF490953B
:1011900081959F4F0895709561957F4F0895052E15
:1011A00097FB1EF400940E94E60857FD07D00E94AA
:1011B000120907FC03D04EF40C94E60850954095B4
:1011C000309521953F4F4F4F5F4F089590958095F3
:1011D000709561957F4F8F4F9F4F0895EE0FFF1FC2
:1011E000881F8BBF0790F691E02D1994B7FF0C94E0
:1011F00034090E943409821B930B0895AA1BBB1B60
:1012000051E107C0AA1FBB1FA617B70710F0A61B06
:10121000B70B881F991F5A95A9F780959095BC0127
:10122000CD010895A1E21A2EAA1BBB1BFD010DC022
:10123000AA1FBB1FEE1FFF1FA217B307E407F50786
:1012400020F0A21BB30BE40BF50B661F771F881F62
:10125000991F1A9469F760957095809590959B01F8
:10126000AC01BD01CF0108950E943F09A59F900DDB
:10127000B49F900DA49F800D911D11240895A29FED
:10128000B001B39FC001A39F700D811D1124911D5A
:10129000B29F700D811D1124911D08955058BB27D8
:1012A000AA270E9466090C940D0B0E94FF0A38F0D1
:1012B0000E94060B20F039F49F3F19F426F40C9499
:1012C000D50A0EF4E095E7FB0C94CF0AE92F0E94B3
:1012D0001E0B58F3BA17620773078407950720F0AF
:1012E00079F4A6F50C94400B0EF4E0950B2EBA2F72
:1012F000A02D0B01B90190010C01CA01A00111241C
:10130000FF27591B99F0593F50F4503E68F11A16C7
:10131000F040A22F232F342F4427585FF3CF469558
:1013200037952795A795F0405395C9F77EF41F167A
:10133000BA0B620B730B840BBAF09150A1F0FF0F44
:10134000BB1F661F771F881FC2F70EC0BA0F621F30
:10135000731F841F48F4879577956795B795F79520
:101360009E3F08F0B0CF9395880F08F09927EE0FB5
:10137000979587950895DF93DD27B92FBF7740E8CC
:101380005FE31616170648075B0718F4D92F0E946B
:10139000470B9F938F937F936F930E94BC0BE6E85C
:1013A000F1E00E94D80A0E940D0B2F913F914F91BE
:1013B0005F910E94620BDD2351F09058A2EA2AED62
:1013C0003FE049EC5FE3D0785D270E946609DF913A
:1013D0000C940D0B0E94FE090C940D0B0E94060B41
:1013E00058F00E94FF0A40F029F45F3F29F00C9466
:1013F000CF0A51110C94410B0C94D50A0E941E0B7C
:1014000068F39923B1F3552391F3951B550BBB2733
:10141000AA2762177307840738F09F5F5F4F220F78
:10142000331F441FAA1FA9F335D00E2E3AF0E0E86F
:1014300032D091505040E695001CCAF72BD0FE2FB9
:1014400029D0660F771F881FBB1F2617370748074D
:10145000AB07B0E809F0BB0B802DBF01FF27935805
:101460005F4F3AF09E3F510578F00C94CF0A0C94F0
:10147000410B5F3FE4F3983ED4F3869577956795EB
:10148000B795F7959F5FC9F7880F911D969587953A
:1014900097F90895E1E0660F771F881FBB1F621759
:1014A00073078407BA0720F0621B730B840BBA0B17
:1014B000EE1F88F7E09508950E94630A6894B111C1
:1014C0000C94410B08950E94260B88F09F5798F0CA
:1014D000B92F9927B751B0F0E1F0660F771F881F39
:1014E000991F1AF0BA95C9F714C0B13091F00E9453
:1014F000400BB1E008950C94400B672F782F88279C
:10150000B85F39F0B93FCCF3869577956795B39579
:10151000D9F73EF490958095709561957F4F8F4FE8
:101520009F4F0895E89409C097FB3EF490958095ED
:10153000709561957F4F8F4F9F4F9923A9F0F92F99
:1015400096E9BB279395F695879577956795B79517
:10155000F111F8CFFAF4BB0F11F460FF1BC06F5FFD
:101560007F4F8F4F9F4F16C0882311F096E911C00F
:10157000772321F09EE8872F762F05C0662371F030
:1015800096E8862F70E060E02AF09A95660F771F44
:10159000881FDAF7880F9695879597F9089597F938
:1015A0009F6780E870E060E008959FEF80EC089509
:1015B000DF93CF931F930F93FF92EF92DF927B0104
:1015C0008C01689406C0DA2EEF010E94620BFE01C6
:1015D000E894A5912591359145915591A6F3EF0198
:1015E0000E946609FE019701A801DA9469F7DF906D
:1015F000EF90FF900F911F91CF91DF9108950024FC
:101600000A941616170618060906089500240A9467
:1016100012161306140605060895092E0394000CED
:1016200011F4882352F0BB0F40F4BF2B11F460FF7C
:1016300004C06F5F7F4F8F4F9F4F089557FD9058A5
:10164000440F551F59F05F3F71F04795880F97FB86
:10165000991F61F09F3F79F0879508951216130640
:101660001406551FF2CF4695F1DF08C0161617066F
:101670001806991FF1CF86957105610508940895A4
:10168000E894BB2766277727CB0197F908959B013C
:10169000AC0160E070E080E89FE30C94EA090E94EE
:1016A000620B0C940D0B0E94FF0A38F00E94060B8F
:1016B00020F0952311F00C94CF0A0C94D50A112434
:1016C0000C94410B0E941E0B70F3959FC1F3950F74
:1016D00050E0551F629FF001729FBB27F00DB11DB6
:1016E000639FAA27F00DB11DAA1F649F6627B00D46
:1016F000A11D661F829F2227B00DA11D621F739F2F
:10170000B00DA11D621F839FA00D611D221F749F3C
:101710003327A00D611D231F849F600D211D822F83
:10172000762F6A2F11249F5750409AF0F1F08823AA
:101730004AF0EE0FFF1FBB1F661F771F881F9150D7
:101740005040A9F79E3F510580F00C94CF0A0C94AD
:10175000410B5F3FE4F3983ED4F386957795679508
:10176000B795F795E7959F5FC1F7FE2B880F911D01
:101770009695879597F908959B01AC010C944F0BB2
:101780000F931F93CF93DF93009731F46115710589
:1017900019F480E090E03AC08B01EC016EE070E05B
:1017A00081E090E00E941A0EFC01892B91F380E801
:1017B00083830115110571F01387028781E8838304
:1017C0008091AC029091AD02892B21F4F093AD028F
:1017D000E093AC022097C9F0D187C08783818260F3
:1017E00083838091AE029091AF02892B71F4F093C4
:1017F000AF02E093AE028091B0029091B102892BCA
:1018000021F4F093B102E093B002CF01DF91CF91C8
:101810001F910F910895CF93DF93CDB7DEB7AE013F
:101820004A5F5F4FFA0161917191AF018091AE0201
:101830009091AF020E941F0CDF91CF9108952F92DB
:101840003F924F925F926F927F928F929F92AF9250
:10185000BF92CF92DF92EF92FF920F931F93CF939D
:10186000DF93CDB7DEB72C970FB6F894DEBF0FBE6F
:10187000CDBF7C016B018A01FC0117821682838136
:1018800081FFBDC1CE0101964C01F7019381F601A4
:1018900093FD859193FF81916F01882309F4ABC17A
:1018A000853239F493FD859193FF81916F018532E3
:1018B00029F4B70190E00E94800FE7CF512C312C22
:1018C00020E02032A0F48B3269F030F4803259F0FD
:1018D000833269F420612CC08D3239F0803339F4C1
:1018E000216026C02260246023C0286021C027FD1B
:1018F00027C030ED380F3A3078F426FF06C0FAE002
:101900005F9E300D1124532E13C08AE0389E300D97
:101910001124332E20620CC08E3221F426FD6BC1BF
:10192000206406C08C3611F4206802C0883641F469
:10193000F60193FD859193FF81916F018111C1CFD4
:10194000982F9F7D9554933028F40C5F1F4FFFE331
:10195000F9830DC0833631F0833771F0833509F098
:101960005BC022C0F801808189830E5F1F4F442431
:101970004394512C540115C03801F2E06F0E711CD4
:10198000F801A080B18026FF03C0652D70E002C081
:101990006FEF7FEFC5012C870E94750F2C0183012B
:1019A0002C852F77222E17C03801F2E06F0E711CA4
:1019B000F801A080B18026FF03C0652D70E002C051
:1019C0006FEF7FEFC5012C870E94630F2C012C85E0
:1019D0002068222E830123FC1BC0832D90E0481633
:1019E0005906B0F4B70180E290E00E94800F3A946B
:1019F000F4CFF50127FC859127FE81915F01B701A6
:101A000090E00E94800F31103A94F1E04F1A510893
:101A10004114510471F7E5C0843611F0893639F567
:101A2000F80127FF07C060817181828193810C5F7B
:101A30001F4F08C060817181072E000C880B990B25
:101A40000E5F1F4F2F76722E97FF09C090958095DD
:101A5000709561957F4F8F4F9F4F2068722E2AE0BF
:101A600030E0A4010E94B80FA82EA81844C0853702
:101A700029F42F7EB22E2AE030E025C0F22FF97F24
:101A8000BF2E8F36C1F018F4883579F0B4C0803796
:101A900019F0883721F0AFC02F2F2061B22EB4FE8D
:101AA0000DC08B2D8460B82E09C024FF0AC09F2F63
:101AB0009660B92E06C028E030E005C020E130E095
:101AC00002C020E132E0F801B7FE07C060817181F9
:101AD000828193810C5F1F4F06C06081718180E01D
:101AE00090E00E5F1F4FA4010E94B80FA82EA81807
:101AF000FB2DFF777F2E76FE0BC0372D3E7FA51482
:101B000050F474FE0AC072FC08C0372D3E7E05C03A
:101B1000BA2C372D03C0BA2C01C0B52C34FF0DC030
:101B2000FE01EA0DF11D8081803311F4397E09C078
:101B300032FF06C0B394B39404C0832F867809F0B3
:101B4000B39433FD13C030FF06C05A2CB31418F4FD
:101B5000530C5B18B32CB31468F4B70180E290E027
:101B60003C870E94800FB3943C85F5CFB31410F4EA
:101B70003B1801C0312C34FF12C0B70180E390E064
:101B80003C870E94800F3C8532FF17C031FD03C0A7
:101B900088E790E002C088E590E0B7010CC0832F91
:101BA000867859F031FF02C08BE201C080E237FD38
:101BB0008DE2B70190E00E94800FA51438F4B701C0
:101BC00080E390E00E94800F5A94F7CFAA94F4012A
:101BD000EA0DF11D8081B70190E00E94800FA110F5
:101BE000F5CF332009F451CEB70180E290E00E9496
:101BF000800F3A94F6CFF7018681978102C08FEF6C
:101C00009FEF2C960FB6F894DEBF0FBECDBFDF91CD
:101C1000CF911F910F91FF90EF90DF90CF90BF90E9
:101C2000AF909F908F907F906F905F904F903F907C
:101C30002F9008950F931F93CF93DF93869F80017A
:101C4000879F100D969F100D1124C8010E94360E1B
:101C5000EC01009729F0A80160E070E00E946E0F8F
:101C6000CE01DF91CF911F910F910895CF93DF9314
:101C70008230910510F482E090E0E091B402F0919E
:101C8000B50220E030E0C0E0D0E0309711F14081B3
:101C9000518148175907C0F04817590761F48281EC
:101CA0009381209719F09B838A832BC09093B50270
:101CB0008093B40226C02115310519F0421753074D
:101CC00018F49A01BE01DF01EF010280F381E02DDB
:101CD000DCCF2115310509F1281B390B24303105E2
:101CE00090F412968D919C9113976115710521F0D6
:101CF000FB019383828304C09093B5028093B40266
:101D0000FD01329644C0FD01E20FF31F81939193D0
:101D1000225031092D933C933AC02091B202309168
:101D2000B302232B41F4209103023091040230933B
:101D3000B3022093B20220910102309102022115D8
:101D4000310541F42DB73EB740910502509106028E
:101D5000241B350BE091B202F091B302E217F307B6
:101D6000A0F42E1B3F0B2817390778F0AC014E5F0B
:101D70005F4F2417350748F04E0F5F1F5093B30293
:101D80004093B2028193919302C0E0E0F0E0CF0172
:101D9000DF91CF9108950F931F93CF93DF93009717
:101DA00009F48CC0FC013297138212820091B402B4
:101DB0001091B5020115110581F420813181820F46
:101DC000931F2091B2023091B3022817390779F599
:101DD000F093B302E093B20271C0D80140E050E04A
:101DE000AE17BF0750F412962D913C911397AD0199
:101DF0002115310509F1D901F3CF9D01DA013383B2
:101E0000228360817181860F971F8217930769F47F
:101E1000EC0128813981260F371F2E5F3F4F318318
:101E200020838A819B8193838283452B29F4F093BD
:101E3000B502E093B40242C01396FC93EE9312975E
:101E4000ED01499159919E01240F351FE217F307C7
:101E500071F480819181840F951F029611969C9355
:101E60008E938281938113969C938E931297E0E0D8
:101E7000F0E0D80112968D919C911397009719F07C
:101E8000F8018C01F6CF8D919C9198012E5F3F4F08
:101E9000820F931F2091B2023091B30228173907A5
:101EA00069F4309729F41092B5021092B40202C07E
:101EB000138212821093B3020093B202DF91CF918A
:101EC0001F910F910895FC01059061507040011021
:101ED000D8F7809590958E0F9F1F0895DC0101C063
:101EE0006D9341505040E0F70895FC0161507040FF
:101EF00001900110D8F7809590958E0F9F1F08953F
:101F00000F931F93CF93DF93FB01238121FD03C028
:101F10008FEF9FEF28C022FF16C046815781248192
:101F200035814217530744F4A081B1819D012F5F91
:101F30003F4F318320838C93268137812F5F3F4F22
:101F40003783268310C0EB01092F182F0084F185F9
:101F5000E02D1995892BE1F68E819F8101969F8353
:101F60008E83812F902FDF91CF911F910F91089534
:101F7000FA01AA27283051F1203181F1E8946F93BA
:101F80006E7F6E5F7F4F8F4F9F4FAF4FB1E03ED060
:101F9000B4E03CD0670F781F891F9A1FA11D680FFE
:101FA000791F8A1F911DA11D6A0F711D811D911D31
:101FB000A11D20D009F468943F912AE0269F1124A6
:101FC0003019305D3193DEF6CF010895462F47700A
:101FD000405D4193B3E00FD0C9F7F6CF462F4F7065
:101FE000405D4A3318F0495D31FD4052419302D0C3
:101FF000A9F7EACFB4E0A695979587957795679569
:10200000BA95C9F700976105710508959B01AC0168
:102010000A2E06945795479537952795BA95C9F78F
:10202000620F731F841F951FA01D0895F894FFCFA2
:10203000F80000B6022000484549200A0D00202083
:10204000536C696465722072696768743A2025640C
:10205000200020202020456E636F6465723A2025A1
:10206000642000202020204572726F722065723A31
:10207000202564200A0D0061646320696E70757408
:102080002025642025640053686F6F7421200A0D99
:102090000063616E206572726F72200A0D006572B6
:1020A00072004E0052004C00550044006572726F81
:1020B0007200703A2025642020002053706565640A
:0620C0003A202564200017
:00000001FF
