:100000000C94EC000C940D010C940D010C940D015A
:100010000C940D010C940D010C940D010C940D0128
:100020000C940D010C940D010C940D010C940D0118
:100030000C940D010C940D010C940D010C940D0108
:100040000C940D010C940D010C940D010C940D01F8
:100050000C940D010C940D010C940D010C940D01E8
:100060000C940D010C940D010C940D010C940D01D8
:100070000C940D010C940D010C940D010C940D01C8
:100080000C940D010C940D010C940D010C940D01B8
:100090000C940D010C940D010C940D010C943E0474
:1000A0000C940D010C940D010C940D010C940D0198
:1000B0000C940D010C940D010C940D010C940D0188
:1000C0000C940D010C940D010C940D010C940D0178
:1000D0000C940D010C940D010C940D010C940D0168
:1000E0000C940D015D04AF04AF04AF04AF04AF0482
:1000F000AF04AF045D04AF04AF04AF04AF04AF04BA
:10010000AF04AF045F04AF04AF04AF04AF04AF04A7
:10011000AF04AF04AF04AF04AF04AF04AF04AF0447
:10012000AF04AF045F04AF04AF04AF04AF04AF0487
:10013000AF04AF04AF04AF04AF04AF04AF04AF0427
:10014000AF04AF04AB04AF04AF04AF04AF04AF041B
:10015000AF04AF048804AF04AF04AF04AF04AF042E
:10016000AF04AF04AF04AF04AF04AF04AF04AF04F7
:10017000AF04AF047C04AF04AF04AF04AF04AF041A
:10018000AF04AF049A04084AD73B3BCE016E84BC4F
:10019000BFFDC12F3D6C74319ABD56833DDA3D00E1
:1001A000C77F11BED9E4BB4C3E916BAAAABE00002A
:1001B00000803F000C94AB040C9429030C94880439
:1001C0000C947C040C941F030C94AF040C945D04F9
:1001D0000C949A040C945F0411241FBECFEFD1E25B
:1001E000DEBFCDBF00E00CBF12E0A0E0B2E0ECE16A
:1001F000F0E200E00BBF02C007900D92A436B107F9
:10020000D9F722E0A4E6B2E001C01D92AF38B207F0
:10021000E1F70E940F010C940C100C9400000F9356
:100220001F93CF93DF93CDB7DEB72E970FB6F89419
:10023000DEBF0FBECDBF80E895E20E94340387E0A9
:1002400092E09F938F930E94010C0E9464030E948E
:100250000B030E9477010E94FB070E94DF040E94AB
:1002600097030E94C5040E94B80678940F900F90DF
:1002700006E712E00E945902F8018381823569F491
:100280008EE092E09F938F930E94010C80E090E0BB
:100290000E940A080F900F9012C0853469F48EE016
:1002A00092E09F938F930E94010C81E090E00E9466
:1002B0000A080F900F9003C0F8011382DBCF109251
:1002C0007902AE014F5F5F4F6AE070E08AEF90E025
:1002D0000E943F0780E090E02E960FB6F894DEBFB4
:1002E0000FBECDBFDF91CF911F910F9108950E9456
:1002F0000B030E94E90240E660E780E60E94F102FB
:1003000042E06BE282E00E94F10240E06FE080EEAA
:100310000E94F1020895EF92FF920F931F93CF93E3
:10032000DF93CDB7DEB72B970FB6F894DEBF0FBEC5
:10033000CDBFE982FA820B831C832D833E834F83DA
:10034000588769877A878B87E980FA80B701769525
:100350006795769567957695679581E30E94A802E3
:100360004E2D4295440F407E62E380EE0E94F102E2
:100370004B8165E38FE00E94F1027E0184E0E80E8C
:10038000F11C16E3F70161917F01812F0E94A80201
:100390001F5F1E33B9F781E00E94CC022B960FB687
:1003A000F894DEBF0FBECDBFDF91CF911F910F91AB
:1003B000FF90EF90089563E080E30E94BC020895EF
:1003C0008F929F92AF92BF92CF92DF92EF92FF9265
:1003D0000F931F93CF93DF93CDB7DEB72B970FB655
:1003E000F894DEBF0FBECDBF4C0161E08CE20E94ED
:1003F000BC02892BB9F181E70E949602A82E82E700
:100400000E949602829586958770B12CAA0CBB1C1F
:10041000AA0CBB1CAA0CBB1CA82A85E70E9496024A
:10042000082F0F70093008F008E00023A9F07E01C2
:1004300084E0E80EF11C9E01200F311DF901349675
:100440006F0116E7812F0E949602F70181937F01C9
:100450001F5FEC15FD05B1F740E06CE283E00E9400
:10046000F10208C082E192E09F938F930E94010CF9
:100470000F900F90BA82A9820B838BE0FE01319618
:10048000D40101900D928A95E1F7C4012B960FB625
:10049000F894DEBF0FBECDBFDF91CF911F910F91BA
:1004A000FF90EF90DF90CF90BF90AF909F908F9094
:1004B0000895CF93DF93CDB7DEB72B970FB6F8949F
:1004C000DEBF0FBECDBF61E08CE20E94BC02009790
:1004D00001F1CE0101960E94E00189819A8181306B
:1004E000910551F48BE0FE013196ABE6B2E001904C
:1004F0000D928A95E1F70BC0029749F48BE0FE015B
:100500003196A6E7B2E001900D928A95E1F781E07D
:1005100090E02B960FB6F894DEBF0FBECDBFDF91F3
:10052000CF9108952F9808952F9A0895CF93C82FAB
:100530000E94920283E00E9415038C2F0E941503F3
:100540000E941A03C82F0E9494028C2FCF91089505
:10055000CF93DF93D82FC62F0E94920282E00E9491
:1005600015038D2F0E9415038C2F0E9415030E94E6
:100570009402DF91CF910895CF93C62F0E949602E7
:1005800090E021E030E002C0220F331FCA95E2F76D
:1005900082239323CF910895CF93C82F0E94920274
:1005A0008C2F80680E9415030E949402CF910895B9
:1005B000CF930E94920280EA0E9415030E941A03C0
:1005C000C82F80E00E9415030E9494028C2FCF91C7
:1005D00008950E94920280EC0E9415030E949402EA
:1005E00008951F93CF93DF93D82F162FC42F0E9407
:1005F000920285E00E941503812F0E9415038D2F22
:100600000E9415038C2F0E9415030E949402DF9113
:10061000CF911F91089584B1876884B98CB58161A9
:100620008CBD8CB580648CBD08958EBD0DB407FE65
:10063000FDCF08958FEF0E9415038EB50895E0EC6D
:10064000F0E0908195FFFDCF8093C60080E090E0C0
:1006500008958091C000882324F48091C60090E022
:10066000089580E090E0089582959295907F982774
:10067000807F98279C0140E050E060E074E284EFC6
:1006800090E00E94C508CA01B90161507109810951
:1006900091090E948A0A2AE939E949E15EE30E9448
:1006A000450B0E94520A7093C5006093C40088E114
:1006B0008093C1008EE08093C20069E273E08FE115
:1006C00093E00E94B60B0895259AE0E8F0E080815F
:1006D00082608083A1E8B0E08C9188618C938081F6
:1006E000806880838081806480838C9184608C9317
:1006F00082EE94E0909387008093860008959C0199
:10070000265634402C33310538F490938900809379
:10071000880081E090E008958FE192E09F938F93AD
:100720000E94010C0F900F908FEF9FEF0895829819
:10073000EAE7F0E080818068808380818760808341
:10074000ECE7F0E080818F7D80838081806C808306
:10075000089583B1829586958695837091E0892767
:10076000817090E00895ECE7F0E080818260808302
:10077000EAE7F0E0808180648083808186FDFDCFA0
:10078000209178008091790090E0982F8827820F3F
:10079000911D08950E94B30321E08436910508F06D
:1007A00020E0822F08958CE08093B8008FEF809333
:1007B000BB0084E08093BC0008958091BC008170F0
:1007C0000895ECEBF0E0808180FDFDCF8091000288
:1007D0000895CF93DF93EC01ECEBF0E0908190FD76
:1007E000FDCF6093660298819093670290FD13C0DD
:1007F000623088F0FE013196A8E6B2E06250262F02
:1008000030E02E5F3F4FCE01820F931F21912D9339
:10081000E817F907D9F71092640288EF8093000275
:1008200085EA8093BC00DF91CF910895ECEBF0E076
:10083000808180FDFDCF1092640288EF80930002DA
:1008400085EA8093BC000895ECEBF0E0208120FD68
:10085000FDCF2091640220FF0DC0662359F027E6EA
:1008600032E0A82FB92FF90181918D938E2F821B31
:100870008617D0F380916402817008951F920F92C1
:100880000FB60F9211240BB60F922F933F938F93B5
:100890009F93AF93BF93EF93FF93E091B9008E2F97
:1008A00090E0FC013897E135F10508F058C0882741
:1008B000EE58FF4F8F4F0C94E40810926502E091C0
:1008C000650280916602E81770F481E08E0F8093D4
:1008D0006502F0E0E959FD4F80818093BB0085E817
:1008E0008093BC0043C08091640281608093640265
:1008F00084E98093BC003AC0E091650281E08E0FEC
:10090000809365028091BB00F0E0E959FD4F808340
:100910002091650230E08091660290E001972817EF
:10092000390724F485EC8093BC0020C085E88093CF
:10093000BC001CC08091BB00E0916502F0E0E95969
:10094000FD4F80838091640281608093640284E91A
:100950008093BC000BC085EA8093BC0007C08091E7
:10096000B9008093000284E08093BC00FF91EF9176
:10097000BF91AF919F918F913F912F910F900BBE9F
:100980000F900FBE0F901F9018950E94D3038AB14D
:1009900083608AB90895CF93DF9300D0CDB7DEB7D7
:1009A00090E599831A828B8363E0CE0101960E94C1
:1009B000E9030F900F900F90DF91CF910895CF939F
:1009C000DF93CDB7DEB72B970FB6F894DEBF0FBE1F
:1009D000CDBFCE0101960E94E0018BE0FE01319671
:1009E000ABE6B2E001900D928A95E1F7EBE6F2E01A
:1009F000838190E09093840280938302848190E0CD
:100A000090938202809381022B960FB6F894DEBFFA
:100A10000FBECDBFDF91CF91089580916E0290E01F
:100A2000089580916F0290E00895CF92DF92EF9247
:100A3000FF92CF93DF93C0918302D09184026091A3
:100A40006E0270E080E090E00E94880A6B017C01F9
:100A5000BE01DD0F880B990B0E948A0A9B01AC0135
:100A6000C701B6010E9444090E94520A77237CF014
:100A7000072E000C880B990B0E948A0A24EA30E7A3
:100A80004DE35FE30E94E0090E94520A0EC0072E68
:100A9000000C880B990B0E948A0A23E333E343EB93
:100AA0005FE30E94E0090E94520ACB010496099775
:100AB00010F460E070E06C398FEF780714F46CE9A3
:100AC0007FEFCB016536710514F084E690E0DF918D
:100AD000CF91FF90EF90DF90CF900895CF92DF926B
:100AE000EF92FF92CF93DF93C0918102D091820267
:100AF00060916F0270E080E090E00E94880A6B01D4
:100B00007C01BE01DD0F880B990B0E948A0A9B01B4
:100B1000AC01C701B6010E9444090E94520A772322
:100B20007CF0072E000C880B990B0E948A0A28EB98
:100B30003EE145E45FE30E94E0090E94520A0EC0D4
:100B4000072E000C880B990B0E948A0A23E333E3DB
:100B500043EB5FE30E94E0090E94520ACB01049636
:100B6000099710F460E070E06C398FEF780714F4A7
:100B70006CE97FEFCB016536710514F084E690E0F7
:100B8000DF91CF91FF90EF90DF90CF900895009785
:100B900071F08130910571F08230910571F08330F0
:100BA000910571F0049779F08DE292E0089583E267
:100BB00092E0089585E292E0089587E292E0089538
:100BC00089E292E008958BE292E00895CF92DF925D
:100BD000EF92FF92CF93DF930E941505EC010E94E4
:100BE0006E05BC01990F880B990B0E948A0A6B0154
:100BF0007C01BE010D2E000C880B990B0E948A0A05
:100C00009B01AC01C701B6010E94E0090E94B10935
:100C100020E030E044E353E40E94450B2BED3FE03D
:100C200049E450E40E94E0090E94520A9B01DD233E
:100C300014F42C543F4F332314F428593E4FC90168
:100C4000DF91CF91FF90EF90DF90CF900895CF93F9
:100C5000DF930E941505EC010E946E059E01215B49
:100C60003F4F2F39310530F49C01215B3F4F2F3925
:100C70003105F8F0BC01CE010E94E6059C012B5322
:100C800031402E323105C0F08E329105C0F0235F25
:100C90003E4F29353105B0F0295531092B35310545
:100CA000A0F0825E91098935910590F080E090E096
:100CB00011C080E090E00EC081E090E00BC081E0C8
:100CC00090E008C083E090E005C082E090E002C0C0
:100CD00084E090E0DF91CF9108958091700290E0E0
:100CE00008958091710290E008958091720290E0E1
:100CF00008958091740290E008958091730290E0CD
:100D00000895CF93DF938C599F4FBC0112F46F5F0E
:100D10007F4FEB01D595C795DF93CF9383E392E0A7
:100D20009F938F930E94010CBE01DD0F880B990BDE
:100D30000E948A0A20E030E04CE652E40E94450B13
:100D400020E030E048EC52E40E94E00920E030EC82
:100D50004CE854E40E9445090E94520ACB010E94CB
:100D60007F030F900F900F900F90DF91CF91089518
:100D7000E1E0F1E080818261808380818866808308
:100D8000E2E0F1E08081806180830895CF93DF937A
:100D9000EC01DF93CF938BE392E09F938F930E94BC
:100DA000010C0F900F900F900F90CB30D1054CF0AD
:100DB000E2E0F1E08081826080838C2F0E94CB048E
:100DC00011C0C63F8FEFD80754F48C2F81950E9435
:100DD000CB04E2E0F1E080818D7F808303C080E07E
:100DE0000E94CB04DF91CF910895CF93DF93F894C5
:100DF00010920701E2E0F1E080818F7D80838081A5
:100E0000877F808387E893E10197F1F700C00000B6
:100E1000A6E0B1E08C9190E0982F8827208128608F
:100E20002083C7E8D3E12197F1F700C000003C918F
:100E3000A7E8B3E11197F1F700C00000208120641A
:100E400020832081206220837894832BDF91CF91AF
:100E500008950E94F506BC0180E090E00E94880A97
:100E60002DEC3CE44FEA52E40E94E0090E94520A51
:100E7000CB016F36710514F080E090E00895CF93B8
:100E8000DF939B01EA01188219821A821B829D83DB
:100E90008C837F836E83BC016F5F7F4F8FEF9FE7F3
:100EA0000E94B108798768872F5F3F4F032E000C9F
:100EB000440B550B6FEF7FEF8FEF9FE30E94C50848
:100EC0002A873B874C875D87DF91CF9108950F93E9
:100ED0001F93CF93DF93EA01861B970B853691050D
:100EE00074F48C392FEF92076CF02C813D81829F36
:100EF000F001839FF00D929FF00D112405C0E4E6F0
:100F0000F0E002C0ECE9FFEF092E000CAA0BBB0BCE
:100F1000488159816A817B819A01AB01280F391F71
:100F20004A1F5B1F8A859B85AC85BD858217930709
:100F3000A407B5074CF488839983AA83BB836FEF1A
:100F40007FEF8FEF9FE31DC0B095A09590958195A1
:100F50009F4FAF4FBF4F281739074A075B074CF425
:100F600088839983AA83BB8361E070E080E090EC82
:100F700008C0288339834A835B83AE81BF810E9486
:100F8000EC088F01FF0F220B330BAB01BC01400FAC
:100F9000511F621F731FDB01CA01772324F481589C
:100FA0009F4FAF4FBF4F689416F8B595A79597958B
:100FB00087951694D1F7813020E892072FEFA2078A
:100FC000B20724F481E090E8AFEFBFEF811520E88D
:100FD0009207A105B10524F08FEF9FE7A0E0B0E0F4
:100FE000DF91CF911F910F910895FC011082118222
:100FF000128213820895249A2C9A08952C982FEB2C
:1010000085E494E0215080409040E1F700C000006A
:101010002C9A0895EF92FF920F931F93CF93DF9333
:10102000CDB7DEB769970FB6F894DEBF0FBECDBF60
:10103000AE014F5F5F4F6AE070E08AEF90E00E9480
:101040003F0783E090E0988B8F8786E0898B81E073
:101050008A8B07E412E01F930F930E94010C0E94F9
:10106000B3030F900F9085369105A8F78AE592E0BB
:101070009F938F930E94010CEF84F88809891A8945
:101080002B893C894D895E896F89788D898D0E9475
:101090008B010F900F9069960FB6F894DEBF0FBECC
:1010A000CDBFDF91CF911F910F91FF90EF900895E9
:1010B000AF92BF92CF92DF92EF92FF920F931F9366
:1010C000CF93DF936C0118161906ECF5E12CF12C87
:1010D000CCE9DFEF02E011E00F2EFCE9AF2EF02D9E
:1010E000BB24BA94F80180818D7F808384E60E94BE
:1010F000CB04FFE724E88EE1F15020408040E1F787
:1011000000C00000F80190819260908384E60E9404
:10111000CB04FFE724E88EE1F15020408040E1F766
:1011200000C000000E94FE07E2969FEFE91AF90A4C
:10113000CB35D10514F0CA2DDB2DCE010E948106DE
:10114000EC14FD0479F680E00E94CB04DF91CF918E
:101150001F910F91FF90EF90DF90CF90BF90AF90D5
:10116000089597FB072E16F4009407D077FD09D059
:101170000E94F40807FC05D03EF4909581959F4F9E
:101180000895709561957F4F0895052E97FB1EF485
:1011900000940E94DC0857FD07D00E94080907FC54
:1011A00003D04EF40C94DC08509540953095219571
:1011B0003F4F4F4F5F4F0895909580957095619583
:1011C0007F4F8F4F9F4F0895EE0FFF1F881F8BBFDC
:1011D0000790F691E02D1994B7FF0C942A090E940C
:1011E0002A09821B930B0895AA1BBB1B51E107C060
:1011F000AA1FBB1FA617B70710F0A61BB70B881FA7
:10120000991F5A95A9F780959095BC01CD01089535
:10121000A1E21A2EAA1BBB1BFD010DC0AA1FBB1FFA
:10122000EE1FFF1FA217B307E407F50720F0A21B6C
:10123000B30BE40BF50B661F771F881F991F1A94D9
:1012400069F760957095809590959B01AC01BD0103
:10125000CF0108950E943509A59F900DB49F900D70
:10126000A49F800D911D11240895A29FB001B39FEA
:10127000C001A39F700D811D1124911DB29F700D9F
:10128000811D1124911D08955058BB27AA270E9443
:101290005C090C94030B0E94F50A38F00E94FC0ACA
:1012A00020F039F49F3F19F426F40C94CB0A0EF485
:1012B000E095E7FB0C94C50AE92F0E94140B58F344
:1012C000BA17620773078407950720F079F4A6F52B
:1012D0000C94360B0EF4E0950B2EBA2FA02D0B01BB
:1012E000B90190010C01CA01A0011124FF27591B6B
:1012F00099F0593F50F4503E68F11A16F040A22F71
:10130000232F342F4427585FF3CF469537952795E1
:10131000A795F0405395C9F77EF41F16BA0B620BE0
:10132000730B840BBAF09150A1F0FF0FBB1F661F27
:10133000771F881FC2F70EC0BA0F621F731F841F6A
:1013400048F4879577956795B795F7959E3F08F090
:10135000B0CF9395880F08F09927EE0F9795879552
:101360000895DF93DD27B92FBF7740E85FE31616B6
:10137000170648075B0718F4D92F0E943D0B9F936F
:101380008F937F936F930E94B20BE6E8F1E00E9487
:10139000CE0A0E94030B2F913F914F915F910E94C3
:1013A000580BDD2351F09058A2EA2AED3FE049ECBA
:1013B0005FE3D0785D270E945C09DF910C94030BFA
:1013C0000E94F4090C94030B0E94FC0A58F00E943E
:1013D000F50A40F029F45F3F29F00C94C50A511139
:1013E0000C94370B0C94CB0A0E94140B68F39923CE
:1013F000B1F3552391F3951B550BBB27AA27621711
:101400007307840738F09F5F5F4F220F331F441F1D
:10141000AA1FA9F335D00E2E3AF0E0E832D0915051
:101420005040E695001CCAF72BD0FE2F29D0660F3E
:10143000771F881FBB1F261737074807AB07B0E881
:1014400009F0BB0B802DBF01FF2793585F4F3AF087
:101450009E3F510578F00C94C50A0C94370B5F3F02
:10146000E4F3983ED4F3869577956795B795F7950D
:101470009F5FC9F7880F911D9695879597F90895F5
:10148000E1E0660F771F881FBB1F62177307840791
:10149000BA0720F0621B730B840BBA0BEE1F88F7A0
:1014A000E09508950E94590A6894B1110C94370B85
:1014B00008950E941C0B88F09F5798F0B92F992728
:1014C000B751B0F0E1F0660F771F881F991F1AF02F
:1014D000BA95C9F714C0B13091F00E94360BB1E053
:1014E00008950C94360B672F782F8827B85F39F052
:1014F000B93FCCF3869577956795B395D9F73EF4C8
:1015000090958095709561957F4F8F4F9F4F08956F
:10151000E89409C097FB3EF490958095709561958D
:101520007F4F8F4F9F4F9923A9F0F92F96E9BB2743
:101530009395F695879577956795B795F111F8CFBF
:10154000FAF4BB0F11F460FF1BC06F5F7F4F8F4F2A
:101550009F4F16C0882311F096E911C0772321F020
:101560009EE8872F762F05C0662371F096E8862FB8
:1015700070E060E02AF09A95660F771F881FDAF70F
:10158000880F9695879597F9089597F99F6780E852
:1015900070E060E008959FEF80EC0895DF93CF93B3
:1015A0001F930F93FF92EF92DF927B018C0168945F
:1015B00006C0DA2EEF010E94580BFE01E894A591B7
:1015C0002591359145915591A6F3EF010E945C0953
:1015D000FE019701A801DA9469F7DF90EF90FF9080
:1015E0000F911F91CF91DF91089500240A94161650
:1015F000170618060906089500240A941216130601
:10160000140605060895092E0394000C11F488238E
:1016100052F0BB0F40F4BF2B11F460FF04C06F5FAA
:101620007F4F8F4F9F4F089557FD9058440F551F80
:1016300059F05F3F71F04795880F97FB991F61F054
:101640009F3F79F087950895121613061406551FCB
:10165000F2CF4695F1DF08C0161617061806991F37
:10166000F1CF86957105610508940895E894BB272C
:1016700066277727CB0197F908959B01AC0160E0BD
:1016800070E080E89FE30C94E0090E94580B0C94F2
:10169000030B0E94F50A38F00E94FC0A20F0952303
:1016A00011F00C94C50A0C94CB0A11240C94370B3E
:1016B0000E94140B70F3959FC1F3950F50E0551FD6
:1016C000629FF001729FBB27F00DB11D639FAA2797
:1016D000F00DB11DAA1F649F6627B00DA11D661FE6
:1016E000829F2227B00DA11D621F739FB00DA11D07
:1016F000621F839FA00D611D221F749F3327A00DC1
:10170000611D231F849F600D211D822F762F6A2F5C
:1017100011249F5750409AF0F1F088234AF0EE0FC1
:10172000FF1FBB1F661F771F881F91505040A9F7EE
:101730009E3F510580F00C94C50A0C94370B5F3F17
:10174000E4F3983ED4F3869577956795B795F7952A
:10175000E7959F5FC1F7FE2B880F911D96958795A2
:1017600097F908959B01AC010C94450B0F931F93BF
:10177000CF93DF93009731F46115710519F480E080
:1017800090E03AC08B01EC016EE070E081E090E007
:101790000E94100EFC01892B91F380E883830115D0
:1017A000110571F01387028781E883838091850298
:1017B00090918602892B21F4F0938602E0938502B2
:1017C0002097C9F0D187C08783818260838380910D
:1017D000870290918802892B71F4F0938802E0933C
:1017E00087028091890290918A02892B21F4F093DB
:1017F0008A02E0938902CF01DF91CF911F910F916F
:101800000895CF93DF93CDB7DEB7AE014A5F5F4F48
:10181000FA0161917191AF018091870290918802E4
:101820000E94150CDF91CF9108952F923F924F9215
:101830005F926F927F928F929F92AF92BF92CF9260
:10184000DF92EF92FF920F931F93CF93DF93CDB769
:10185000DEB72C970FB6F894DEBF0FBECDBF7C016C
:101860006B018A01FC0117821682838181FFBDC151
:10187000CE0101964C01F7019381F60193FD85910C
:1018800093FF81916F01882309F4ABC1853239F44C
:1018900093FD859193FF81916F01853229F4B70102
:1018A00090E00E94760FE7CF512C312C20E02032BF
:1018B000A0F48B3269F030F4803259F0833269F44D
:1018C00020612CC08D3239F0803339F4216026C07C
:1018D0002260246023C0286021C027FD27C030ED8E
:1018E000380F3A3078F426FF06C0FAE05F9E300DDC
:1018F0001124532E13C08AE0389E300D1124332E4C
:1019000020620CC08E3221F426FD6BC1206406C01B
:101910008C3611F4206802C0883641F4F60193FD3C
:10192000859193FF81916F018111C1CF982F9F7D88
:101930009554933028F40C5F1F4FFFE3F9830DC0DB
:10194000833631F0833771F0833509F05BC022C0F4
:10195000F801808189830E5F1F4F44244394512CEA
:10196000540115C03801F2E06F0E711CF801A0801F
:10197000B18026FF03C0652D70E002C06FEF7FEFDE
:10198000C5012C870E946B0F2C0183012C852F77BA
:10199000222E17C03801F2E06F0E711CF801A080F2
:1019A000B18026FF03C0652D70E002C06FEF7FEFAE
:1019B000C5012C870E94590F2C012C852068222EEE
:1019C000830123FC1BC0832D90E048165906B0F418
:1019D000B70180E290E00E94760F3A94F4CFF501CF
:1019E00027FC859127FE81915F01B70190E00E945D
:1019F000760F31103A94F1E04F1A51084114510416
:101A000071F7E5C0843611F0893639F5F80127FF02
:101A100007C060817181828193810C5F1F4F08C074
:101A200060817181072E000C880B990B0E5F1F4F90
:101A30002F76722E97FF09C09095809570956195CD
:101A40007F4F8F4F9F4F2068722E2AE030E0A40115
:101A50000E94AE0FA82EA81844C0853729F42F7E07
:101A6000B22E2AE030E025C0F22FF97FBF2E8F364C
:101A7000C1F018F4883579F0B4C0803719F0883790
:101A800021F0AFC02F2F2061B22EB4FE0DC08B2DE0
:101A90008460B82E09C024FF0AC09F2F9660B92E1B
:101AA00006C028E030E005C020E130E002C020E1BF
:101AB00032E0F801B7FE07C06081718182819381B5
:101AC0000C5F1F4F06C06081718180E090E00E5F67
:101AD0001F4FA4010E94AE0FA82EA818FB2DFF7760
:101AE0007F2E76FE0BC0372D3E7FA51450F474FE7A
:101AF0000AC072FC08C0372D3E7E05C0BA2C372DB7
:101B000003C0BA2C01C0B52C34FF0DC0FE01EA0D94
:101B1000F11D8081803311F4397E09C032FF06C087
:101B2000B394B39404C0832F867809F0B39433FD43
:101B300013C030FF06C05A2CB31418F4530C5B18B2
:101B4000B32CB31468F4B70180E290E03C870E94A4
:101B5000760FB3943C85F5CFB31410F43B1801C055
:101B6000312C34FF12C0B70180E390E03C870E9423
:101B7000760F3C8532FF17C031FD03C088E790E047
:101B800002C088E590E0B7010CC0832F867859F039
:101B900031FF02C08BE201C080E237FD8DE2B70168
:101BA00090E00E94760FA51438F4B70180E390E02E
:101BB0000E94760F5A94F7CFAA94F401EA0DF11D12
:101BC0008081B70190E00E94760FA110F5CF3320FD
:101BD00009F451CEB70180E290E00E94760F3A946A
:101BE000F6CFF7018681978102C08FEF9FEF2C9689
:101BF0000FB6F894DEBF0FBECDBFDF91CF911F911E
:101C00000F91FF90EF90DF90CF90BF90AF909F909B
:101C10008F907F906F905F904F903F902F9008959E
:101C20000F931F93CF93DF93869F8001879F100DA3
:101C3000969F100D1124C8010E942C0EEC010097F4
:101C400029F0A80160E070E00E94640FCE01DF91EE
:101C5000CF911F910F910895CF93DF93823091051B
:101C600010F482E090E0E0918D02F0918E0220E08D
:101C700030E0C0E0D0E0309711F140815181481749
:101C80005907C0F04817590761F482819381209762
:101C900019F09B838A832BC090938E0280938D02D0
:101CA00026C02115310519F04217530718F49A017F
:101CB000BE01DF01EF010280F381E02DDCCF2115B1
:101CC000310509F1281B390B2430310590F41296A7
:101CD0008D919C9113976115710521F0FB01938300
:101CE000828304C090938E0280938D02FD01329610
:101CF00044C0FD01E20FF31F8193919322503109FB
:101D00002D933C933AC020918B0230918C02232B6F
:101D100041F4209103023091040230938C0220930D
:101D20008B0220910102309102022115310541F40C
:101D30002DB73EB74091050250910602241B350B8A
:101D4000E0918B02F0918C02E217F307A0F42E1BB6
:101D50003F0B2817390778F0AC014E5F5F4F24170F
:101D6000350748F04E0F5F1F50938C0240938B0253
:101D70008193919302C0E0E0F0E0CF01DF91CF9139
:101D800008950F931F93CF93DF93009709F48CC0AE
:101D9000FC0132971382128200918D0210918E0203
:101DA0000115110581F420813181820F931F20914B
:101DB0008B0230918C022817390779F5F0938C0249
:101DC000E0938B0271C0D80140E050E0AE17BF072E
:101DD00050F412962D913C911397AD0121153105C8
:101DE00009F1D901F3CF9D01DA01338322836081A8
:101DF0007181860F971F8217930769F4EC01288180
:101E00003981260F371F2E5F3F4F318320838A8110
:101E10009B8193838283452B29F4F0938E02E09378
:101E20008D0242C01396FC93EE931297ED014991F7
:101E300059919E01240F351FE217F30771F4808139
:101E40009181840F951F029611969C938E938281A7
:101E5000938113969C938E931297E0E0F0E0D80163
:101E600012968D919C911397009719F0F8018C01AF
:101E7000F6CF8D919C9198012E5F3F4F820F931F5B
:101E800020918B0230918C022817390769F4309722
:101E900029F410928E0210928D0202C013821282D7
:101EA00010938C0200938B02DF91CF911F910F91C1
:101EB0000895FC010590615070400110D8F780959D
:101EC00090958E0F9F1F0895DC0101C06D934150C6
:101ED0005040E0F70895FC016150704001900110FE
:101EE000D8F7809590958E0F9F1F08950F931F939D
:101EF000CF93DF93FB01238121FD03C08FEF9FEF81
:101F000028C022FF16C0468157812481358142179F
:101F1000530744F4A081B1819D012F5F3F4F31836E
:101F200020838C93268137812F5F3F4F3783268311
:101F300010C0EB01092F182F0084F185E02D1995B1
:101F4000892BE1F68E819F8101969F838E83812F5D
:101F5000902FDF91CF911F910F910895FA01AA2739
:101F6000283051F1203181F1E8946F936E7F6E5FDC
:101F70007F4F8F4F9F4FAF4FB1E03ED0B4E03CD08A
:101F8000670F781F891F9A1FA11D680F791F8A1F6D
:101F9000911DA11D6A0F711D811D911DA11D20D0D4
:101FA00009F468943F912AE0269F11243019305D8E
:101FB0003193DEF6CF010895462F4770405D41937F
:101FC000B3E00FD0C9F7F6CF462F4F70405D4A33CC
:101FD00018F0495D31FD4052419302D0A9F7EACF94
:101FE000B4E0A6959795879577956795BA95C9F7C3
:101FF00000976105710508959B01AC010A2E0694B6
:102000005795479537952795BA95C9F7620F731F6E
:0C201000841F951FA01D0895F894FFCFB9
:10201C00F800008F022000484549200A0D0061732A
:10202C00640063616E206572726F72200A0D006528
:10203C007272004E0052004C0055004400657272E2
:10204C006F7200703A202564202000205370656563
:10205C00643A20256420005748494C45204CC398CD
:10206C004B4B45204552200A0D0053656E64696E3A
:04207C0067200000D9
:00000001FF
